{
  "contractName": "BidAuction",
  "abi": [
    {
      "anonymous": false,
      "inputs": [
        {
          "indexed": false,
          "internalType": "address",
          "name": "from",
          "type": "address"
        },
        {
          "indexed": false,
          "internalType": "address",
          "name": "to",
          "type": "address"
        },
        {
          "indexed": false,
          "internalType": "uint256",
          "name": "animalId",
          "type": "uint256"
        },
        {
          "indexed": false,
          "internalType": "uint256",
          "name": "price",
          "type": "uint256"
        }
      ],
      "name": "AnimalSoldAuction",
      "type": "event"
    },
    {
      "anonymous": false,
      "inputs": [
        {
          "indexed": false,
          "internalType": "address",
          "name": "owner",
          "type": "address"
        },
        {
          "indexed": false,
          "internalType": "uint256",
          "name": "animalId",
          "type": "uint256"
        },
        {
          "indexed": false,
          "internalType": "string",
          "name": "species",
          "type": "string"
        },
        {
          "indexed": false,
          "internalType": "string",
          "name": "name",
          "type": "string"
        },
        {
          "indexed": false,
          "internalType": "uint256",
          "name": "age",
          "type": "uint256"
        },
        {
          "indexed": false,
          "internalType": "uint256",
          "name": "readyTime",
          "type": "uint256"
        },
        {
          "indexed": false,
          "internalType": "string",
          "name": "color",
          "type": "string"
        },
        {
          "indexed": false,
          "internalType": "uint256",
          "name": "winCount",
          "type": "uint256"
        },
        {
          "indexed": false,
          "internalType": "uint256",
          "name": "lossCount",
          "type": "uint256"
        }
      ],
      "name": "AnimalToBid",
      "type": "event"
    },
    {
      "anonymous": false,
      "inputs": [
        {
          "indexed": true,
          "internalType": "address",
          "name": "owner",
          "type": "address"
        },
        {
          "indexed": true,
          "internalType": "address",
          "name": "approved",
          "type": "address"
        },
        {
          "indexed": true,
          "internalType": "uint256",
          "name": "tokenId",
          "type": "uint256"
        }
      ],
      "name": "Approval",
      "type": "event"
    },
    {
      "anonymous": false,
      "inputs": [
        {
          "indexed": true,
          "internalType": "address",
          "name": "owner",
          "type": "address"
        },
        {
          "indexed": true,
          "internalType": "address",
          "name": "operator",
          "type": "address"
        },
        {
          "indexed": false,
          "internalType": "bool",
          "name": "approved",
          "type": "bool"
        }
      ],
      "name": "ApprovalForAll",
      "type": "event"
    },
    {
      "anonymous": false,
      "inputs": [
        {
          "indexed": false,
          "internalType": "uint256",
          "name": "Id1",
          "type": "uint256"
        },
        {
          "indexed": false,
          "internalType": "uint256",
          "name": "Id2",
          "type": "uint256"
        }
      ],
      "name": "BreedAnimal",
      "type": "event"
    },
    {
      "anonymous": false,
      "inputs": [
        {
          "indexed": false,
          "internalType": "uint256",
          "name": "Id",
          "type": "uint256"
        },
        {
          "indexed": false,
          "internalType": "string",
          "name": "_species",
          "type": "string"
        },
        {
          "indexed": false,
          "internalType": "string",
          "name": "_name",
          "type": "string"
        },
        {
          "indexed": false,
          "internalType": "uint256",
          "name": "age",
          "type": "uint256"
        },
        {
          "indexed": false,
          "internalType": "uint256",
          "name": "_readyTime",
          "type": "uint256"
        },
        {
          "indexed": false,
          "internalType": "string",
          "name": "_color",
          "type": "string"
        },
        {
          "indexed": false,
          "internalType": "uint256",
          "name": "winCount",
          "type": "uint256"
        },
        {
          "indexed": false,
          "internalType": "uint256",
          "name": "lossCount",
          "type": "uint256"
        }
      ],
      "name": "DeadAnimal",
      "type": "event"
    },
    {
      "anonymous": false,
      "inputs": [
        {
          "indexed": false,
          "internalType": "uint256",
          "name": "Id",
          "type": "uint256"
        },
        {
          "indexed": false,
          "internalType": "string",
          "name": "_species",
          "type": "string"
        },
        {
          "indexed": false,
          "internalType": "string",
          "name": "_name",
          "type": "string"
        },
        {
          "indexed": false,
          "internalType": "uint256",
          "name": "age",
          "type": "uint256"
        },
        {
          "indexed": false,
          "internalType": "uint256",
          "name": "_readyTime",
          "type": "uint256"
        },
        {
          "indexed": false,
          "internalType": "string",
          "name": "_color",
          "type": "string"
        },
        {
          "indexed": false,
          "internalType": "uint256",
          "name": "winCount",
          "type": "uint256"
        },
        {
          "indexed": false,
          "internalType": "uint256",
          "name": "lossCount",
          "type": "uint256"
        }
      ],
      "name": "NewAnimal",
      "type": "event"
    },
    {
      "anonymous": false,
      "inputs": [
        {
          "indexed": true,
          "internalType": "address",
          "name": "previousOwner",
          "type": "address"
        },
        {
          "indexed": true,
          "internalType": "address",
          "name": "newOwner",
          "type": "address"
        }
      ],
      "name": "OwnershipTransferred",
      "type": "event"
    },
    {
      "anonymous": false,
      "inputs": [
        {
          "indexed": true,
          "internalType": "address",
          "name": "from",
          "type": "address"
        },
        {
          "indexed": true,
          "internalType": "address",
          "name": "to",
          "type": "address"
        },
        {
          "indexed": true,
          "internalType": "uint256",
          "name": "tokenId",
          "type": "uint256"
        }
      ],
      "name": "Transfer",
      "type": "event"
    },
    {
      "anonymous": false,
      "inputs": [
        {
          "indexed": false,
          "internalType": "address",
          "name": "_owner",
          "type": "address"
        },
        {
          "indexed": false,
          "internalType": "uint256",
          "name": "_bidAnimalId",
          "type": "uint256"
        },
        {
          "indexed": false,
          "internalType": "uint256",
          "name": "price",
          "type": "uint256"
        }
      ],
      "name": "UpdatedAuction",
      "type": "event"
    },
    {
      "inputs": [
        {
          "internalType": "uint256",
          "name": "",
          "type": "uint256"
        }
      ],
      "name": "Owners",
      "outputs": [
        {
          "internalType": "address",
          "name": "",
          "type": "address"
        }
      ],
      "stateMutability": "view",
      "type": "function"
    },
    {
      "inputs": [
        {
          "internalType": "uint256",
          "name": "",
          "type": "uint256"
        }
      ],
      "name": "animals",
      "outputs": [
        {
          "internalType": "string",
          "name": "species",
          "type": "string"
        },
        {
          "internalType": "string",
          "name": "name",
          "type": "string"
        },
        {
          "internalType": "uint256",
          "name": "age",
          "type": "uint256"
        },
        {
          "internalType": "uint256",
          "name": "readyTime",
          "type": "uint256"
        },
        {
          "internalType": "string",
          "name": "color",
          "type": "string"
        },
        {
          "internalType": "uint256",
          "name": "winCount",
          "type": "uint256"
        },
        {
          "internalType": "uint256",
          "name": "lossCount",
          "type": "uint256"
        }
      ],
      "stateMutability": "view",
      "type": "function"
    },
    {
      "inputs": [
        {
          "internalType": "address",
          "name": "to",
          "type": "address"
        },
        {
          "internalType": "uint256",
          "name": "tokenId",
          "type": "uint256"
        }
      ],
      "name": "approve",
      "outputs": [],
      "stateMutability": "nonpayable",
      "type": "function"
    },
    {
      "inputs": [
        {
          "internalType": "uint256",
          "name": "",
          "type": "uint256"
        }
      ],
      "name": "auctions",
      "outputs": [
        {
          "internalType": "uint256",
          "name": "animalId",
          "type": "uint256"
        },
        {
          "internalType": "uint256",
          "name": "price",
          "type": "uint256"
        },
        {
          "internalType": "bool",
          "name": "validate",
          "type": "bool"
        }
      ],
      "stateMutability": "view",
      "type": "function"
    },
    {
      "inputs": [
        {
          "internalType": "address",
          "name": "owner",
          "type": "address"
        }
      ],
      "name": "balanceOf",
      "outputs": [
        {
          "internalType": "uint256",
          "name": "",
          "type": "uint256"
        }
      ],
      "stateMutability": "view",
      "type": "function"
    },
    {
      "inputs": [
        {
          "internalType": "uint256",
          "name": "",
          "type": "uint256"
        }
      ],
      "name": "bidAnimals",
      "outputs": [
        {
          "components": [
            {
              "internalType": "string",
              "name": "species",
              "type": "string"
            },
            {
              "internalType": "string",
              "name": "name",
              "type": "string"
            },
            {
              "internalType": "uint256",
              "name": "age",
              "type": "uint256"
            },
            {
              "internalType": "uint256",
              "name": "readyTime",
              "type": "uint256"
            },
            {
              "internalType": "string",
              "name": "color",
              "type": "string"
            },
            {
              "internalType": "uint256",
              "name": "winCount",
              "type": "uint256"
            },
            {
              "internalType": "uint256",
              "name": "lossCount",
              "type": "uint256"
            }
          ],
          "internalType": "struct Breeding.Animal",
          "name": "myAnimal",
          "type": "tuple"
        },
        {
          "internalType": "uint256",
          "name": "time",
          "type": "uint256"
        },
        {
          "internalType": "bool",
          "name": "alreadySold",
          "type": "bool"
        }
      ],
      "stateMutability": "view",
      "type": "function"
    },
    {
      "inputs": [
        {
          "internalType": "uint256",
          "name": "_animalId1",
          "type": "uint256"
        },
        {
          "internalType": "uint256",
          "name": "_animalId2",
          "type": "uint256"
        }
      ],
      "name": "breedAnimal",
      "outputs": [],
      "stateMutability": "nonpayable",
      "type": "function"
    },
    {
      "inputs": [
        {
          "internalType": "uint256",
          "name": "",
          "type": "uint256"
        }
      ],
      "name": "colors",
      "outputs": [
        {
          "internalType": "string",
          "name": "",
          "type": "string"
        }
      ],
      "stateMutability": "view",
      "type": "function"
    },
    {
      "inputs": [
        {
          "internalType": "uint256",
          "name": "_animalId",
          "type": "uint256"
        }
      ],
      "name": "deadAnimal",
      "outputs": [],
      "stateMutability": "nonpayable",
      "type": "function"
    },
    {
      "inputs": [
        {
          "internalType": "address",
          "name": "_owner",
          "type": "address"
        },
        {
          "internalType": "string",
          "name": "_species",
          "type": "string"
        },
        {
          "internalType": "uint256",
          "name": "_age",
          "type": "uint256"
        },
        {
          "internalType": "string",
          "name": "_name",
          "type": "string"
        },
        {
          "internalType": "string",
          "name": "_color",
          "type": "string"
        }
      ],
      "name": "declareAnimal",
      "outputs": [],
      "stateMutability": "nonpayable",
      "type": "function"
    },
    {
      "inputs": [
        {
          "internalType": "uint256",
          "name": "tokenId",
          "type": "uint256"
        }
      ],
      "name": "getApproved",
      "outputs": [
        {
          "internalType": "address",
          "name": "",
          "type": "address"
        }
      ],
      "stateMutability": "view",
      "type": "function"
    },
    {
      "inputs": [],
      "name": "getOwner",
      "outputs": [
        {
          "internalType": "address[]",
          "name": "",
          "type": "address[]"
        }
      ],
      "stateMutability": "view",
      "type": "function"
    },
    {
      "inputs": [
        {
          "internalType": "address",
          "name": "owner",
          "type": "address"
        },
        {
          "internalType": "address",
          "name": "operator",
          "type": "address"
        }
      ],
      "name": "isApprovedForAll",
      "outputs": [
        {
          "internalType": "bool",
          "name": "",
          "type": "bool"
        }
      ],
      "stateMutability": "view",
      "type": "function"
    },
    {
      "inputs": [],
      "name": "isOwner",
      "outputs": [
        {
          "internalType": "bool",
          "name": "",
          "type": "bool"
        }
      ],
      "stateMutability": "view",
      "type": "function"
    },
    {
      "inputs": [],
      "name": "owner",
      "outputs": [
        {
          "internalType": "address",
          "name": "",
          "type": "address"
        }
      ],
      "stateMutability": "view",
      "type": "function"
    },
    {
      "inputs": [
        {
          "internalType": "uint256",
          "name": "tokenId",
          "type": "uint256"
        }
      ],
      "name": "ownerOf",
      "outputs": [
        {
          "internalType": "address",
          "name": "",
          "type": "address"
        }
      ],
      "stateMutability": "view",
      "type": "function"
    },
    {
      "inputs": [
        {
          "internalType": "address",
          "name": "_owner",
          "type": "address"
        }
      ],
      "name": "registerOwner",
      "outputs": [],
      "stateMutability": "nonpayable",
      "type": "function"
    },
    {
      "inputs": [],
      "name": "renounceOwnership",
      "outputs": [],
      "stateMutability": "nonpayable",
      "type": "function"
    },
    {
      "inputs": [
        {
          "internalType": "address",
          "name": "from",
          "type": "address"
        },
        {
          "internalType": "address",
          "name": "to",
          "type": "address"
        },
        {
          "internalType": "uint256",
          "name": "tokenId",
          "type": "uint256"
        }
      ],
      "name": "safeTransferFrom",
      "outputs": [],
      "stateMutability": "nonpayable",
      "type": "function"
    },
    {
      "inputs": [
        {
          "internalType": "address",
          "name": "from",
          "type": "address"
        },
        {
          "internalType": "address",
          "name": "to",
          "type": "address"
        },
        {
          "internalType": "uint256",
          "name": "tokenId",
          "type": "uint256"
        },
        {
          "internalType": "bytes",
          "name": "_data",
          "type": "bytes"
        }
      ],
      "name": "safeTransferFrom",
      "outputs": [],
      "stateMutability": "nonpayable",
      "type": "function"
    },
    {
      "inputs": [
        {
          "internalType": "address",
          "name": "to",
          "type": "address"
        },
        {
          "internalType": "bool",
          "name": "approved",
          "type": "bool"
        }
      ],
      "name": "setApprovalForAll",
      "outputs": [],
      "stateMutability": "nonpayable",
      "type": "function"
    },
    {
      "inputs": [
        {
          "internalType": "bytes4",
          "name": "interfaceId",
          "type": "bytes4"
        }
      ],
      "name": "supportsInterface",
      "outputs": [
        {
          "internalType": "bool",
          "name": "",
          "type": "bool"
        }
      ],
      "stateMutability": "view",
      "type": "function"
    },
    {
      "inputs": [
        {
          "internalType": "address",
          "name": "from",
          "type": "address"
        },
        {
          "internalType": "address",
          "name": "to",
          "type": "address"
        },
        {
          "internalType": "uint256",
          "name": "tokenId",
          "type": "uint256"
        }
      ],
      "name": "transferFrom",
      "outputs": [],
      "stateMutability": "nonpayable",
      "type": "function"
    },
    {
      "inputs": [
        {
          "internalType": "address",
          "name": "newOwner",
          "type": "address"
        }
      ],
      "name": "transferOwnership",
      "outputs": [],
      "stateMutability": "nonpayable",
      "type": "function"
    },
    {
      "inputs": [
        {
          "internalType": "uint256",
          "name": "_animalId",
          "type": "uint256"
        }
      ],
      "name": "setAnimalToBid",
      "outputs": [],
      "stateMutability": "nonpayable",
      "type": "function"
    },
    {
      "inputs": [
        {
          "internalType": "uint256",
          "name": "_price",
          "type": "uint256"
        },
        {
          "internalType": "uint256",
          "name": "_animalId",
          "type": "uint256"
        }
      ],
      "name": "declareAuction",
      "outputs": [],
      "stateMutability": "payable",
      "type": "function"
    },
    {
      "inputs": [
        {
          "internalType": "uint256",
          "name": "_price",
          "type": "uint256"
        },
        {
          "internalType": "uint256",
          "name": "_auctionId",
          "type": "uint256"
        }
      ],
      "name": "updateAuction",
      "outputs": [],
      "stateMutability": "payable",
      "type": "function"
    },
    {
      "inputs": [
        {
          "internalType": "uint256",
          "name": "_bidAnimalId",
          "type": "uint256"
        },
        {
          "internalType": "uint256",
          "name": "_auctionId",
          "type": "uint256"
        }
      ],
      "name": "claimAuction",
      "outputs": [],
      "stateMutability": "nonpayable",
      "type": "function"
    }
  ],
  "bytecode": "0x608060405260006007556040518060c001604052806040518060400160405280600481526020017f677265790000000000000000000000000000000000000000000000000000000081525081526020016040518060400160405280600381526020017f726564000000000000000000000000000000000000000000000000000000000081525081526020016040518060400160405280600481526020017f626c75650000000000000000000000000000000000000000000000000000000081525081526020016040518060400160405280600581526020017f776869746500000000000000000000000000000000000000000000000000000081525081526020016040518060400160405280600581526020017f62726f776e00000000000000000000000000000000000000000000000000000081525081526020016040518060400160405280600581526020017f626c61636b0000000000000000000000000000000000000000000000000000008152508152506009906006620001869291906200035a565b506000600a556202a300601055620001ab6301ffc9a760e01b6200027a60201b60201c565b620001c36380ac58cd60e01b6200027a60201b60201c565b6000620001d56200035260201b60201c565b905080600560006101000a81548173ffffffffffffffffffffffffffffffffffffffff021916908373ffffffffffffffffffffffffffffffffffffffff1602179055508073ffffffffffffffffffffffffffffffffffffffff16600073ffffffffffffffffffffffffffffffffffffffff167f8be0079c531659141344cd1fd0a4f28419497f9722a3daafe3b4186f6b6457e060405160405180910390a35062000562565b63ffffffff60e01b817bffffffffffffffffffffffffffffffffffffffffffffffffffffffff19161415620002e6576040517f08c379a0000000000000000000000000000000000000000000000000000000008152600401620002dd906200052f565b60405180910390fd5b6001600080837bffffffffffffffffffffffffffffffffffffffffffffffffffffffff19167bffffffffffffffffffffffffffffffffffffffffffffffffffffffff1916815260200190815260200160002060006101000a81548160ff02191690831515021790555050565b600033905090565b828054828255906000526020600020908101928215620003ae579160200282015b82811115620003ad5782518290805190602001906200039c929190620003c1565b50916020019190600101906200037b565b5b509050620003bd919062000448565b5090565b828054600181600116156101000203166002900490600052602060002090601f016020900481019282601f106200040457805160ff191683800117855562000435565b8280016001018555821562000435579182015b828111156200043457825182559160200191906001019062000417565b5b50905062000444919062000479565b5090565b6200047691905b80821115620004725760008181620004689190620004a1565b506001016200044f565b5090565b90565b6200049e91905b808211156200049a57600081600090555060010162000480565b5090565b90565b50805460018160011615610100020316600290046000825580601f10620004c95750620004ea565b601f016020900490600052602060002090810190620004e9919062000479565b5b50565b6000620004fc601c8362000551565b91507f4552433136353a20696e76616c696420696e74657266616365206964000000006000830152602082019050919050565b600060208201905081810360008301526200054a81620004ed565b9050919050565b600082825260208201905092915050565b614c1780620005726000396000f3fe6080604052600436106101475760003560e01c806301ffc9a71461014c578063081812fc14610189578063095ea7b3146101c65780631220c6ed146101ef57806323b872dd14610218578063400520811461024157806342842e0e1461025d578063571a26a0146102865780635e6bab68146102c55780636352211e146102ee5780636f257d741461032b57806370a0823114610354578063715018a614610391578063893d20e8146103a85780638a1ce908146103d35780638da5cb5b146104105780638f32d59b1461043b578063998dd3ca1461046657806399c32907146104a9578063a10a2d85146104e8578063a22cb46514610511578063b88d4fde1461053a578063bd11f69d14610563578063c46a6d3d146105a0578063e985e9c5146105c9578063ec9b6db914610606578063f22b01691461062f578063f2fde38b1461064b575b600080fd5b34801561015857600080fd5b50610173600480360361016e91908101906137b1565b610674565b60405161018091906143dc565b60405180910390f35b34801561019557600080fd5b506101b060048036036101ab91908101906137da565b6106db565b6040516101bd9190614281565b60405180910390f35b3480156101d257600080fd5b506101ed60048036036101e89190810190613775565b610760565b005b3480156101fb57600080fd5b506102166004803603610211919081019061354b565b61091b565b005b34801561022457600080fd5b5061023f600480360361023a91908101906135b0565b610981565b005b61025b60048036036102569190810190613803565b6109e1565b005b34801561026957600080fd5b50610284600480360361027f91908101906135b0565b610b17565b005b34801561029257600080fd5b506102ad60048036036102a891908101906137da565b610b37565b6040516102bc939291906148e7565b60405180910390f35b3480156102d157600080fd5b506102ec60048036036102e79190810190613803565b610b7b565b005b3480156102fa57600080fd5b50610315600480360361031091908101906137da565b611212565b6040516103229190614281565b60405180910390f35b34801561033757600080fd5b50610352600480360361034d91908101906136b6565b6112c4565b005b34801561036057600080fd5b5061037b6004803603610376919081019061354b565b611576565b604051610388919061477d565b60405180910390f35b34801561039d57600080fd5b506103a6611635565b005b3480156103b457600080fd5b506103bd61173d565b6040516103ca91906143ba565b60405180910390f35b3480156103df57600080fd5b506103fa60048036036103f591908101906137da565b6117cb565b6040516104079190614281565b60405180910390f35b34801561041c57600080fd5b50610425611807565b6040516104329190614281565b60405180910390f35b34801561044757600080fd5b50610450611831565b60405161045d91906143dc565b60405180910390f35b34801561047257600080fd5b5061048d600480360361048891908101906137da565b611890565b6040516104a0979695949392919061443b565b60405180910390f35b3480156104b557600080fd5b506104d060048036036104cb91908101906137da565b611aa7565b6040516104df9392919061473f565b60405180910390f35b3480156104f457600080fd5b5061050f600480360361050a91908101906137da565b611d03565b005b34801561051d57600080fd5b506105386004803603610533919081019061367a565b612254565b005b34801561054657600080fd5b50610561600480360361055c91908101906135ff565b6123d5565b005b34801561056f57600080fd5b5061058a600480360361058591908101906137da565b612437565b60405161059791906143f7565b60405180910390f35b3480156105ac57600080fd5b506105c760048036036105c29190810190613803565b6124f0565b005b3480156105d557600080fd5b506105f060048036036105eb9190810190613574565b612653565b6040516105fd91906143dc565b60405180910390f35b34801561061257600080fd5b5061062d600480360361062891908101906137da565b6126e7565b005b61064960048036036106449190810190613803565b61293b565b005b34801561065757600080fd5b50610672600480360361066d919081019061354b565b612a5e565b005b6000806000837bffffffffffffffffffffffffffffffffffffffffffffffffffffffff19167bffffffffffffffffffffffffffffffffffffffffffffffffffffffff1916815260200190815260200160002060009054906101000a900460ff169050919050565b60006106e682612ab1565b610725576040517f08c379a000000000000000000000000000000000000000000000000000000000815260040161071c9061463f565b60405180910390fd5b6002600083815260200190815260200160002060009054906101000a900473ffffffffffffffffffffffffffffffffffffffff169050919050565b600061076b82611212565b90508073ffffffffffffffffffffffffffffffffffffffff168373ffffffffffffffffffffffffffffffffffffffff1614156107dc576040517f08c379a00000000000000000000000000000000000000000000000000000000081526004016107d3906146bf565b60405180910390fd5b8073ffffffffffffffffffffffffffffffffffffffff166107fb612b23565b73ffffffffffffffffffffffffffffffffffffffff16148061082a575061082981610824612b23565b612653565b5b610869576040517f08c379a0000000000000000000000000000000000000000000000000000000008152600401610860906145bf565b60405180910390fd5b826002600084815260200190815260200160002060006101000a81548173ffffffffffffffffffffffffffffffffffffffff021916908373ffffffffffffffffffffffffffffffffffffffff160217905550818373ffffffffffffffffffffffffffffffffffffffff168273ffffffffffffffffffffffffffffffffffffffff167f8c5be1e5ebec7d5bd14f71427d1e84f3dd0314c0f7b2291e5b200ac8c7c3b92560405160405180910390a4505050565b6008819080600181540180825580915050600190039060005260206000200160009091909190916101000a81548173ffffffffffffffffffffffffffffffffffffffff021916908373ffffffffffffffffffffffffffffffffffffffff16021790555050565b61099261098c612b23565b82612b2b565b6109d1576040517f08c379a00000000000000000000000000000000000000000000000000000000081526004016109c89061471f565b60405180910390fd5b6109dc838383612c09565b505050565b806109eb81612e38565b610a2a576040517f08c379a0000000000000000000000000000000000000000000000000000000008152600401610a21906146df565b60405180910390fd5b610a3261329c565b6040518060600160405280848152602001858152602001600015158152509050600f819080600181540180825580915050600190039060005260206000209060030201600090919091909150600082015181600001556020820151816001015560408201518160020160006101000a81548160ff02191690831515021790555050506000600f805490509050336011600083815260200190815260200160002060006101000a81548173ffffffffffffffffffffffffffffffffffffffff021916908373ffffffffffffffffffffffffffffffffffffffff1602179055505050505050565b610b32838383604051806020016040528060008152506123d5565b505050565b600f8181548110610b4457fe5b90600052602060002090600302016000915090508060000154908060010154908060020160009054906101000a900460ff16905083565b81600260068281548110610b8b57fe5b9060005260206000209060070201600201541015610bde576040517f08c379a0000000000000000000000000000000000000000000000000000000008152600401610bd59061461f565b60405180910390fd5b600160068281548110610bed57fe5b9060005260206000209060070201600301541015610c40576040517f08c379a0000000000000000000000000000000000000000000000000000000008152600401610c37906144bf565b60405180910390fd5b81600260068281548110610c5057fe5b9060005260206000209060070201600201541015610ca3576040517f08c379a0000000000000000000000000000000000000000000000000000000008152600401610c9a9061461f565b60405180910390fd5b600160068281548110610cb257fe5b9060005260206000209060070201600301541015610d05576040517f08c379a0000000000000000000000000000000000000000000000000000000008152600401610cfc906144bf565b60405180910390fd5b83600b600082815260200190815260200160002060009054906101000a900473ffffffffffffffffffffffffffffffffffffffff1673ffffffffffffffffffffffffffffffffffffffff163373ffffffffffffffffffffffffffffffffffffffff1614610da7576040517f08c379a0000000000000000000000000000000000000000000000000000000008152600401610d9e906146ff565b60405180910390fd5b83600b600082815260200190815260200160002060009054906101000a900473ffffffffffffffffffffffffffffffffffffffff1673ffffffffffffffffffffffffffffffffffffffff163373ffffffffffffffffffffffffffffffffffffffff1614610e49576040517f08c379a0000000000000000000000000000000000000000000000000000000008152600401610e40906146ff565b60405180910390fd5b6000610e556002612efe565b905060606001821415610f205760068881548110610e6f57fe5b90600052602060002090600702016004018054600181600116156101000203166002900480601f016020809104026020016040519081016040528092919081815260200182805460018160011615610100020316600290048015610f145780601f10610ee957610100808354040283529160200191610f14565b820191906000526020600020905b815481529060010190602001808311610ef757829003601f168201915b50505050509050610fda565b60068781548110610f2d57fe5b90600052602060002090600702016004018054600181600116156101000203166002900480601f016020809104026020016040519081016040528092919081815260200182805460018160011615610100020316600290048015610fd25780601f10610fa757610100808354040283529160200191610fd2565b820191906000526020600020905b815481529060010190602001808311610fb557829003601f168201915b505050505090505b7f8a6fde0c0f8077884948daef31fc0b7565d15b1944dbd05612fe54e358bb7a16888860405161100b9291906148be565b60405180910390a16111c0600b60008a815260200190815260200160002060009054906101000a900473ffffffffffffffffffffffffffffffffffffffff1660068a8154811061105757fe5b90600052602060002090600702016000018054600181600116156101000203166002900480601f0160208091040260200160405190810160405280929190818152602001828054600181600116156101000203166002900480156110fc5780601f106110d1576101008083540402835291602001916110fc565b820191906000526020600020905b8154815290600101906020018083116110df57829003601f168201915b5050505050600160068c8154811061111057fe5b90600052602060002090600702016001018054600181600116156101000203166002900480601f0160208091040260200160405190810160405280929190818152602001828054600181600116156101000203166002900480156111b55780601f1061118a576101008083540402835291602001916111b5565b820191906000526020600020905b81548152906001019060200180831161119857829003601f168201915b5050505050856112c4565b6001600688815481106111cf57fe5b9060005260206000209060070201600301819055506001600689815481106111f357fe5b9060005260206000209060070201600301819055505050505050505050565b6000806001600084815260200190815260200160002060009054906101000a900473ffffffffffffffffffffffffffffffffffffffff169050600073ffffffffffffffffffffffffffffffffffffffff168173ffffffffffffffffffffffffffffffffffffffff1614156112bb576040517f08c379a00000000000000000000000000000000000000000000000000000000081526004016112b2906145ff565b60405180910390fd5b80915050919050565b8473ffffffffffffffffffffffffffffffffffffffff163373ffffffffffffffffffffffffffffffffffffffff1614611332576040517f08c379a00000000000000000000000000000000000000000000000000000000081526004016113299061467f565b60405180910390fd5b61133a6132bf565b6040518060e001604052808681526020018481526020018581526020016001815260200183815260200160008152602001600081525090506113c56001600c60003373ffffffffffffffffffffffffffffffffffffffff1673ffffffffffffffffffffffffffffffffffffffff16815260200190815260200160002054612f5c90919063ffffffff16565b600c60003373ffffffffffffffffffffffffffffffffffffffff1673ffffffffffffffffffffffffffffffffffffffff16815260200190815260200160002081905550600681908060018154018082558091505060019003906000526020600020906007020160009091909190915060008201518160000190805190602001906114509291906132fc565b50602082015181600101908051906020019061146d9291906132fc565b506040820151816002015560608201518160030155608082015181600401908051906020019061149e9291906132fc565b5060a0820151816005015560c0820151816006015550506114cb6001600754612f5c90919063ffffffff16565b60078190555033600b6000600754815260200190815260200160002060006101000a81548173ffffffffffffffffffffffffffffffffffffffff021916908373ffffffffffffffffffffffffffffffffffffffff1602179055507f2ed0a6a4f66e6a39321eb2bbd734537cacdbc5aec9e3686afdb9a5c1bbdb1b27600754868587600087600080604051611566989796959493929190614798565b60405180910390a1505050505050565b60008073ffffffffffffffffffffffffffffffffffffffff168273ffffffffffffffffffffffffffffffffffffffff1614156115e7576040517f08c379a00000000000000000000000000000000000000000000000000000000081526004016115de906145df565b60405180910390fd5b61162e600360008473ffffffffffffffffffffffffffffffffffffffff1673ffffffffffffffffffffffffffffffffffffffff168152602001908152602001600020612fb1565b9050919050565b61163d611831565b61167c576040517f08c379a00000000000000000000000000000000000000000000000000000000081526004016116739061465f565b60405180910390fd5b600073ffffffffffffffffffffffffffffffffffffffff16600560009054906101000a900473ffffffffffffffffffffffffffffffffffffffff1673ffffffffffffffffffffffffffffffffffffffff167f8be0079c531659141344cd1fd0a4f28419497f9722a3daafe3b4186f6b6457e060405160405180910390a36000600560006101000a81548173ffffffffffffffffffffffffffffffffffffffff021916908373ffffffffffffffffffffffffffffffffffffffff160217905550565b606060088054806020026020016040519081016040528092919081815260200182805480156117c157602002820191906000526020600020905b8160009054906101000a900473ffffffffffffffffffffffffffffffffffffffff1673ffffffffffffffffffffffffffffffffffffffff1681526020019060010190808311611777575b5050505050905090565b600881815481106117d857fe5b906000526020600020016000915054906101000a900473ffffffffffffffffffffffffffffffffffffffff1681565b6000600560009054906101000a900473ffffffffffffffffffffffffffffffffffffffff16905090565b6000600560009054906101000a900473ffffffffffffffffffffffffffffffffffffffff1673ffffffffffffffffffffffffffffffffffffffff16611874612b23565b73ffffffffffffffffffffffffffffffffffffffff1614905090565b6006818154811061189d57fe5b9060005260206000209060070201600091509050806000018054600181600116156101000203166002900480601f0160208091040260200160405190810160405280929190818152602001828054600181600116156101000203166002900480156119495780601f1061191e57610100808354040283529160200191611949565b820191906000526020600020905b81548152906001019060200180831161192c57829003601f168201915b505050505090806001018054600181600116156101000203166002900480601f0160208091040260200160405190810160405280929190818152602001828054600181600116156101000203166002900480156119e75780601f106119bc576101008083540402835291602001916119e7565b820191906000526020600020905b8154815290600101906020018083116119ca57829003601f168201915b505050505090806002015490806003015490806004018054600181600116156101000203166002900480601f016020809104026020016040519081016040528092919081815260200182805460018160011615610100020316600290048015611a915780601f10611a6657610100808354040283529160200191611a91565b820191906000526020600020905b815481529060010190602001808311611a7457829003601f168201915b5050505050908060050154908060060154905087565b600e8181548110611ab457fe5b9060005260206000209060090201600091509050806000016040518060e0016040529081600082018054600181600116156101000203166002900480601f016020809104026020016040519081016040528092919081815260200182805460018160011615610100020316600290048015611b705780601f10611b4557610100808354040283529160200191611b70565b820191906000526020600020905b815481529060010190602001808311611b5357829003601f168201915b50505050508152602001600182018054600181600116156101000203166002900480601f016020809104026020016040519081016040528092919081815260200182805460018160011615610100020316600290048015611c125780601f10611be757610100808354040283529160200191611c12565b820191906000526020600020905b815481529060010190602001808311611bf557829003601f168201915b505050505081526020016002820154815260200160038201548152602001600482018054600181600116156101000203166002900480601f016020809104026020016040519081016040528092919081815260200182805460018160011615610100020316600290048015611cc85780601f10611c9d57610100808354040283529160200191611cc8565b820191906000526020600020905b815481529060010190602001808311611cab57829003601f168201915b5050505050815260200160058201548152602001600682015481525050908060070154908060080160009054906101000a900460ff16905083565b80600b600082815260200190815260200160002060009054906101000a900473ffffffffffffffffffffffffffffffffffffffff1673ffffffffffffffffffffffffffffffffffffffff163373ffffffffffffffffffffffffffffffffffffffff1614611da5576040517f08c379a0000000000000000000000000000000000000000000000000000000008152600401611d9c906146ff565b60405180910390fd5b611dad61337c565b604051806060016040528060068581548110611dc557fe5b90600052602060002090600702016040518060e0016040529081600082018054600181600116156101000203166002900480601f016020809104026020016040519081016040528092919081815260200182805460018160011615610100020316600290048015611e775780601f10611e4c57610100808354040283529160200191611e77565b820191906000526020600020905b815481529060010190602001808311611e5a57829003601f168201915b50505050508152602001600182018054600181600116156101000203166002900480601f016020809104026020016040519081016040528092919081815260200182805460018160011615610100020316600290048015611f195780601f10611eee57610100808354040283529160200191611f19565b820191906000526020600020905b815481529060010190602001808311611efc57829003601f168201915b505050505081526020016002820154815260200160038201548152602001600482018054600181600116156101000203166002900480601f016020809104026020016040519081016040528092919081815260200182805460018160011615610100020316600290048015611fcf5780601f10611fa457610100808354040283529160200191611fcf565b820191906000526020600020905b815481529060010190602001808311611fb257829003601f168201915b5050505050815260200160058201548152602001600682015481525050815260200160018152602001600015158152509050600e81908060018154018082558091505060019003906000526020600020906009020160009091909190915060008201518160000160008201518160000190805190602001906120529291906132fc565b50602082015181600101908051906020019061206f9291906132fc565b50604082015181600201556060820151816003015560808201518160040190805190602001906120a09291906132fc565b5060a0820151816005015560c0820151816006015550506020820151816007015560408201518160080160006101000a81548160ff02191690831515021790555050506000600e8054905090508360136000838152602001908152602001600020819055507f35fd122dfbf8007a96d6033dd1956c772bfc1009f4e22dba88c751beb2c94ebd600b600086815260200190815260200160002060009054906101000a900473ffffffffffffffffffffffffffffffffffffffff16856006878154811061216857fe5b90600052602060002090600702016000016006888154811061218657fe5b9060005260206000209060070201600101600689815481106121a457fe5b90600052602060002090600702016002015460068a815481106121c357fe5b90600052602060002090600702016003015460068b815481106121e257fe5b906000526020600020906007020160040160068c8154811061220057fe5b90600052602060002090600702016005015460068d8154811061221f57fe5b90600052602060002090600702016006015460405161224699989796959493929190614318565b60405180910390a150505050565b61225c612b23565b73ffffffffffffffffffffffffffffffffffffffff168273ffffffffffffffffffffffffffffffffffffffff1614156122ca576040517f08c379a00000000000000000000000000000000000000000000000000000000081526004016122c19061455f565b60405180910390fd5b80600460006122d7612b23565b73ffffffffffffffffffffffffffffffffffffffff1673ffffffffffffffffffffffffffffffffffffffff16815260200190815260200160002060008473ffffffffffffffffffffffffffffffffffffffff1673ffffffffffffffffffffffffffffffffffffffff16815260200190815260200160002060006101000a81548160ff0219169083151502179055508173ffffffffffffffffffffffffffffffffffffffff16612384612b23565b73ffffffffffffffffffffffffffffffffffffffff167f17307eab39ab6107e8899845ad3d59bd9653f200f220920489ca2b5937696c31836040516123c991906143dc565b60405180910390a35050565b6123e66123e0612b23565b83612b2b565b612425576040517f08c379a000000000000000000000000000000000000000000000000000000000815260040161241c9061471f565b60405180910390fd5b61243184848484612fbf565b50505050565b6009818154811061244457fe5b906000526020600020016000915090508054600181600116156101000203166002900480601f0160208091040260200160405190810160405280929190818152602001828054600181600116156101000203166002900480156124e85780601f106124bd576101008083540402835291602001916124e8565b820191906000526020600020905b8154815290600101906020018083116124cb57829003601f168201915b505050505081565b80600f81815481106124fe57fe5b906000526020600020906003020160020160009054906101000a900460ff1661255c576040517f08c379a00000000000000000000000000000000000000000000000000000000081526004016125539061457f565b60405180910390fd5b6125ad6012600085815260200190815260200160002060009054906101000a900473ffffffffffffffffffffffffffffffffffffffff16336013600087815260200190815260200160002054612c09565b7f336caae23f7c926c563a756c493d2e4186fe8ea365ea75f8813cb36882a2c0886012600085815260200190815260200160002060009054906101000a900473ffffffffffffffffffffffffffffffffffffffff16336013600087815260200190815260200160002054600f868154811061262457fe5b90600052602060002090600302016001015460405161264694939291906142d3565b60405180910390a1505050565b6000600460008473ffffffffffffffffffffffffffffffffffffffff1673ffffffffffffffffffffffffffffffffffffffff16815260200190815260200160002060008373ffffffffffffffffffffffffffffffffffffffff1673ffffffffffffffffffffffffffffffffffffffff16815260200190815260200160002060009054906101000a900460ff16905092915050565b6000600b600083815260200190815260200160002060009054906101000a900473ffffffffffffffffffffffffffffffffffffffff1690506127726001600c60008473ffffffffffffffffffffffffffffffffffffffff1673ffffffffffffffffffffffffffffffffffffffff16815260200190815260200160002054612fd090919063ffffffff16565b600c60008373ffffffffffffffffffffffffffffffffffffffff1673ffffffffffffffffffffffffffffffffffffffff16815260200190815260200160002081905550600682815481106127c257fe5b9060005260206000209060070201600080820160006127e191906133a5565b6001820160006127f191906133a5565b6002820160009055600382016000905560048201600061281191906133a5565b6005820160009055600682016000905550507ff341316c37c0df80453d7a29598468138ffcfe7c833ec00e80ccc5772369905b826006848154811061285257fe5b90600052602060002090600702016000016006858154811061287057fe5b90600052602060002090600702016001016006868154811061288e57fe5b906000526020600020906007020160020154600687815481106128ad57fe5b906000526020600020906007020160030154600688815481106128cc57fe5b9060005260206000209060070201600401600689815481106128ea57fe5b90600052602060002090600702016005015460068a8154811061290957fe5b90600052602060002090600702016006015460405161292f98979695949392919061482b565b60405180910390a15050565b803373ffffffffffffffffffffffffffffffffffffffff166011600083815260200190815260200160002060009054906101000a900473ffffffffffffffffffffffffffffffffffffffff1673ffffffffffffffffffffffffffffffffffffffff16146129dd576040517f08c379a00000000000000000000000000000000000000000000000000000000081526004016129d4906144ff565b60405180910390fd5b82600f83815481106129eb57fe5b9060005260206000209060030201600101819055507fc33aa4393fdbbf1d92280c505235f4a5f7ad1524676d96bb2376428fe731d43433600f8481548110612a2f57fe5b90600052602060002090600302016000015485604051612a519392919061429c565b60405180910390a1505050565b612a66611831565b612aa5576040517f08c379a0000000000000000000000000000000000000000000000000000000008152600401612a9c9061465f565b60405180910390fd5b612aae8161301a565b50565b6000806001600084815260200190815260200160002060009054906101000a900473ffffffffffffffffffffffffffffffffffffffff169050600073ffffffffffffffffffffffffffffffffffffffff168173ffffffffffffffffffffffffffffffffffffffff161415915050919050565b600033905090565b6000612b3682612ab1565b612b75576040517f08c379a0000000000000000000000000000000000000000000000000000000008152600401612b6c9061459f565b60405180910390fd5b6000612b8083611212565b90508073ffffffffffffffffffffffffffffffffffffffff168473ffffffffffffffffffffffffffffffffffffffff161480612bef57508373ffffffffffffffffffffffffffffffffffffffff16612bd7846106db565b73ffffffffffffffffffffffffffffffffffffffff16145b80612c005750612bff8185612653565b5b91505092915050565b8273ffffffffffffffffffffffffffffffffffffffff16612c2982611212565b73ffffffffffffffffffffffffffffffffffffffff1614612c7f576040517f08c379a0000000000000000000000000000000000000000000000000000000008152600401612c769061469f565b60405180910390fd5b600073ffffffffffffffffffffffffffffffffffffffff168273ffffffffffffffffffffffffffffffffffffffff161415612cef576040517f08c379a0000000000000000000000000000000000000000000000000000000008152600401612ce69061453f565b60405180910390fd5b612cf88161314a565b612d3f600360008573ffffffffffffffffffffffffffffffffffffffff1673ffffffffffffffffffffffffffffffffffffffff168152602001908152602001600020613208565b612d86600360008473ffffffffffffffffffffffffffffffffffffffff1673ffffffffffffffffffffffffffffffffffffffff16815260200190815260200160002061322b565b816001600083815260200190815260200160002060006101000a81548173ffffffffffffffffffffffffffffffffffffffff021916908373ffffffffffffffffffffffffffffffffffffffff160217905550808273ffffffffffffffffffffffffffffffffffffffff168473ffffffffffffffffffffffffffffffffffffffff167fddf252ad1be2c89b69c2b068fc378daa952ba7f163c4a11628f55a4df523b3ef60405160405180910390a4505050565b6000806001905060008090505b600f80549050811015612ef4573373ffffffffffffffffffffffffffffffffffffffff166011600083815260200190815260200160002060009054906101000a900473ffffffffffffffffffffffffffffffffffffffff1673ffffffffffffffffffffffffffffffffffffffff16148015612edd575083600f8281548110612ec957fe5b906000526020600020906003020160000154145b15612ee757600091505b8080600101915050612e45565b5080915050919050565b6000612f166001600a54612f5c90919063ffffffff16565b600a81905550814233600a54604051602001612f3493929190614244565b6040516020818303038152906040528051906020012060001c81612f5457fe5b069050919050565b600080828401905083811015612fa7576040517f08c379a0000000000000000000000000000000000000000000000000000000008152600401612f9e9061451f565b60405180910390fd5b8091505092915050565b600081600001549050919050565b612fca848484612c09565b50505050565b600061301283836040518060400160405280601e81526020017f536166654d6174683a207375627472616374696f6e206f766572666c6f770000815250613241565b905092915050565b600073ffffffffffffffffffffffffffffffffffffffff168173ffffffffffffffffffffffffffffffffffffffff16141561308a576040517f08c379a0000000000000000000000000000000000000000000000000000000008152600401613081906144df565b60405180910390fd5b8073ffffffffffffffffffffffffffffffffffffffff16600560009054906101000a900473ffffffffffffffffffffffffffffffffffffffff1673ffffffffffffffffffffffffffffffffffffffff167f8be0079c531659141344cd1fd0a4f28419497f9722a3daafe3b4186f6b6457e060405160405180910390a380600560006101000a81548173ffffffffffffffffffffffffffffffffffffffff021916908373ffffffffffffffffffffffffffffffffffffffff16021790555050565b600073ffffffffffffffffffffffffffffffffffffffff166002600083815260200190815260200160002060009054906101000a900473ffffffffffffffffffffffffffffffffffffffff1673ffffffffffffffffffffffffffffffffffffffff16146132055760006002600083815260200190815260200160002060006101000a81548173ffffffffffffffffffffffffffffffffffffffff021916908373ffffffffffffffffffffffffffffffffffffffff1602179055505b50565b61322060018260000154612fd090919063ffffffff16565b816000018190555050565b6001816000016000828254019250508190555050565b6000838311158290613289576040517f08c379a00000000000000000000000000000000000000000000000000000000081526004016132809190614419565b60405180910390fd5b5060008385039050809150509392505050565b604051806060016040528060008152602001600081526020016000151581525090565b6040518060e00160405280606081526020016060815260200160008152602001600081526020016060815260200160008152602001600081525090565b828054600181600116156101000203166002900490600052602060002090601f016020900481019282601f1061333d57805160ff191683800117855561336b565b8280016001018555821561336b579182015b8281111561336a57825182559160200191906001019061334f565b5b50905061337891906133ed565b5090565b604051806060016040528061338f613412565b8152602001600081526020016000151581525090565b50805460018160011615610100020316600290046000825580601f106133cb57506133ea565b601f0160209004906000526020600020908101906133e991906133ed565b5b50565b61340f91905b8082111561340b5760008160009055506001016133f3565b5090565b90565b6040518060e00160405280606081526020016060815260200160008152602001600081526020016060815260200160008152602001600081525090565b60008135905061345e81614b85565b92915050565b60008135905061347381614b9c565b92915050565b60008135905061348881614bb3565b92915050565b600082601f83011261349f57600080fd5b81356134b26134ad8261494b565b61491e565b915080825260208301602083018583830111156134ce57600080fd5b6134d9838284614af7565b50505092915050565b600082601f8301126134f357600080fd5b813561350661350182614977565b61491e565b9150808252602083016020830185838301111561352257600080fd5b61352d838284614af7565b50505092915050565b60008135905061354581614bca565b92915050565b60006020828403121561355d57600080fd5b600061356b8482850161344f565b91505092915050565b6000806040838503121561358757600080fd5b60006135958582860161344f565b92505060206135a68582860161344f565b9150509250929050565b6000806000606084860312156135c557600080fd5b60006135d38682870161344f565b93505060206135e48682870161344f565b92505060406135f586828701613536565b9150509250925092565b6000806000806080858703121561361557600080fd5b60006136238782880161344f565b94505060206136348782880161344f565b935050604061364587828801613536565b925050606085013567ffffffffffffffff81111561366257600080fd5b61366e8782880161348e565b91505092959194509250565b6000806040838503121561368d57600080fd5b600061369b8582860161344f565b92505060206136ac85828601613464565b9150509250929050565b600080600080600060a086880312156136ce57600080fd5b60006136dc8882890161344f565b955050602086013567ffffffffffffffff8111156136f957600080fd5b613705888289016134e2565b945050604061371688828901613536565b935050606086013567ffffffffffffffff81111561373357600080fd5b61373f888289016134e2565b925050608086013567ffffffffffffffff81111561375c57600080fd5b613768888289016134e2565b9150509295509295909350565b6000806040838503121561378857600080fd5b60006137968582860161344f565b92505060206137a785828601613536565b9150509250929050565b6000602082840312156137c357600080fd5b60006137d184828501613479565b91505092915050565b6000602082840312156137ec57600080fd5b60006137fa84828501613536565b91505092915050565b6000806040838503121561381657600080fd5b600061382485828601613536565b925050602061383585828601613536565b9150509250929050565b600061384b838361387d565b60208301905092915050565b61386081614aaf565b82525050565b61387761387282614a3b565b614b39565b82525050565b61388681614a29565b82525050565b61389581614a29565b82525050565b60006138a6826149c8565b6138b081856149f6565b93506138bb836149a3565b8060005b838110156138ec5781516138d3888261383f565b97506138de836149e9565b9250506001810190506138bf565b5085935050505092915050565b61390281614a4d565b82525050565b61391181614ac1565b82525050565b6000613922826149de565b61392c8185614a18565b935061393c818560208601614b06565b61394581614b67565b840191505092915050565b600061395b826149d3565b6139658185614a07565b9350613975818560208601614b06565b61397e81614b67565b840191505092915050565b6000613994826149d3565b61399e8185614a18565b93506139ae818560208601614b06565b6139b781614b67565b840191505092915050565b6000815460018116600081146139df5760018114613a0557613a49565b607f60028304166139f08187614a18565b955060ff198316865260208601935050613a49565b60028204613a138187614a18565b9550613a1e856149b3565b60005b82811015613a4057815481890152600182019150602081019050613a21565b80880195505050505b505092915050565b6000613a5e602f83614a18565b91507f416e696d616c20616c726561647920636f75706c656420696e2074686520707260008301527f6576696f75732036206d6f6e74687300000000000000000000000000000000006020830152604082019050919050565b6000613ac4602683614a18565b91507f4f776e61626c653a206e6577206f776e657220697320746865207a65726f206160008301527f64647265737300000000000000000000000000000000000000000000000000006020830152604082019050919050565b6000613b2a603883614a18565b91507f20596f752063616e2774206368616e676520746869732061756374696f6e2c2060008301527f6974206973206e6f7420796f75722061756374696f6e202100000000000000006020830152604082019050919050565b6000613b90601b83614a18565b91507f536166654d6174683a206164646974696f6e206f766572666c6f7700000000006000830152602082019050919050565b6000613bd0602483614a18565b91507f4552433732313a207472616e7366657220746f20746865207a65726f2061646460008301527f72657373000000000000000000000000000000000000000000000000000000006020830152604082019050919050565b6000613c36601983614a18565b91507f4552433732313a20617070726f766520746f2063616c6c6572000000000000006000830152602082019050919050565b6000613c76602c83614a18565b91507f41756374696f6e206e6f742076616c6964617465642c206974206973206e6f7460008301527f20796f757220416e696d616c00000000000000000000000000000000000000006020830152604082019050919050565b6000613cdc602c83614a18565b91507f4552433732313a206f70657261746f7220717565727920666f72206e6f6e657860008301527f697374656e7420746f6b656e00000000000000000000000000000000000000006020830152604082019050919050565b6000613d42603883614a18565b91507f4552433732313a20617070726f76652063616c6c6572206973206e6f74206f7760008301527f6e6572206e6f7220617070726f76656420666f7220616c6c00000000000000006020830152604082019050919050565b6000613da8602a83614a18565b91507f4552433732313a2062616c616e636520717565727920666f7220746865207a6560008301527f726f2061646472657373000000000000000000000000000000000000000000006020830152604082019050919050565b6000613e0e602983614a18565b91507f4552433732313a206f776e657220717565727920666f72206e6f6e657869737460008301527f656e7420746f6b656e00000000000000000000000000000000000000000000006020830152604082019050919050565b6000613e74601a83614a18565b91507f416e696d616c20746f6f20796f756e6720746f20636f75706c650000000000006000830152602082019050919050565b6000613eb4602c83614a18565b91507f4552433732313a20617070726f76656420717565727920666f72206e6f6e657860008301527f697374656e7420746f6b656e00000000000000000000000000000000000000006020830152604082019050919050565b6000613f1a602083614a18565b91507f4f776e61626c653a2063616c6c6572206973206e6f7420746865206f776e65726000830152602082019050919050565b6000613f5a602183614a18565b91507f596f7520617265206e6f74206465636c6172696e6720796f757220616e696d6160008301527f6c000000000000000000000000000000000000000000000000000000000000006020830152604082019050919050565b6000613fc0602983614a18565b91507f4552433732313a207472616e73666572206f6620746f6b656e2074686174206960008301527f73206e6f74206f776e00000000000000000000000000000000000000000000006020830152604082019050919050565b6000614026602183614a18565b91507f4552433732313a20617070726f76616c20746f2063757272656e74206f776e6560008301527f72000000000000000000000000000000000000000000000000000000000000006020830152604082019050919050565b600061408c602683614a18565b91507f596f7520616c7265616479206861766520616e2061756374696f6e2c2075706460008301527f61746520697400000000000000000000000000000000000000000000000000006020830152604082019050919050565b60006140f2600083614a18565b9150600082019050919050565b600061410c603183614a18565b91507f4552433732313a207472616e736665722063616c6c6572206973206e6f74206f60008301527f776e6572206e6f7220617070726f7665640000000000000000000000000000006020830152604082019050919050565b600060e08301600083015184820360008601526141828282613950565b9150506020830151848203602086015261419c8282613950565b91505060408301516141b1604086018261420f565b5060608301516141c4606086018261420f565b50608083015184820360808601526141dc8282613950565b91505060a08301516141f160a086018261420f565b5060c083015161420460c086018261420f565b508091505092915050565b61421881614aa5565b82525050565b61422781614aa5565b82525050565b61423e61423982614aa5565b614b5d565b82525050565b6000614250828661422d565b6020820191506142608285613866565b601482019150614270828461422d565b602082019150819050949350505050565b6000602082019050614296600083018461388c565b92915050565b60006060820190506142b16000830186613857565b6142be602083018561421e565b6142cb604083018461421e565b949350505050565b60006080820190506142e8600083018761388c565b6142f56020830186613857565b614302604083018561421e565b61430f606083018461421e565b95945050505050565b60006101208201905061432e600083018c61388c565b61433b602083018b61421e565b818103604083015261434d818a6139c2565b9050818103606083015261436181896139c2565b9050614370608083018861421e565b61437d60a083018761421e565b81810360c083015261438f81866139c2565b905061439e60e083018561421e565b6143ac61010083018461421e565b9a9950505050505050505050565b600060208201905081810360008301526143d4818461389b565b905092915050565b60006020820190506143f160008301846138f9565b92915050565b600060208201905081810360008301526144118184613989565b905092915050565b600060208201905081810360008301526144338184613917565b905092915050565b600060e0820190508181036000830152614455818a613989565b905081810360208301526144698189613989565b9050614478604083018861421e565b614485606083018761421e565b81810360808301526144978186613989565b90506144a660a083018561421e565b6144b360c083018461421e565b98975050505050505050565b600060208201905081810360008301526144d881613a51565b9050919050565b600060208201905081810360008301526144f881613ab7565b9050919050565b6000602082019050818103600083015261451881613b1d565b9050919050565b6000602082019050818103600083015261453881613b83565b9050919050565b6000602082019050818103600083015261455881613bc3565b9050919050565b6000602082019050818103600083015261457881613c29565b9050919050565b6000602082019050818103600083015261459881613c69565b9050919050565b600060208201905081810360008301526145b881613ccf565b9050919050565b600060208201905081810360008301526145d881613d35565b9050919050565b600060208201905081810360008301526145f881613d9b565b9050919050565b6000602082019050818103600083015261461881613e01565b9050919050565b6000602082019050818103600083015261463881613e67565b9050919050565b6000602082019050818103600083015261465881613ea7565b9050919050565b6000602082019050818103600083015261467881613f0d565b9050919050565b6000602082019050818103600083015261469881613f4d565b9050919050565b600060208201905081810360008301526146b881613fb3565b9050919050565b600060208201905081810360008301526146d881614019565b9050919050565b600060208201905081810360008301526146f88161407f565b9050919050565b60006020820190508181036000830152614718816140e5565b9050919050565b60006020820190508181036000830152614738816140ff565b9050919050565b600060608201905081810360008301526147598186614165565b9050614768602083018561421e565b61477560408301846138f9565b949350505050565b6000602082019050614792600083018461421e565b92915050565b6000610100820190506147ae600083018b61421e565b81810360208301526147c0818a613917565b905081810360408301526147d48189613917565b90506147e3606083018861421e565b6147f06080830187613908565b81810360a08301526148028186613917565b905061481160c0830185613908565b61481e60e0830184613908565b9998505050505050505050565b600061010082019050614841600083018b61421e565b8181036020830152614853818a6139c2565b9050818103604083015261486781896139c2565b9050614876606083018861421e565b614883608083018761421e565b81810360a083015261489581866139c2565b90506148a460c083018561421e565b6148b160e083018461421e565b9998505050505050505050565b60006040820190506148d3600083018561421e565b6148e0602083018461421e565b9392505050565b60006060820190506148fc600083018661421e565b614909602083018561421e565b61491660408301846138f9565b949350505050565b6000604051905081810181811067ffffffffffffffff8211171561494157600080fd5b8060405250919050565b600067ffffffffffffffff82111561496257600080fd5b601f19601f8301169050602081019050919050565b600067ffffffffffffffff82111561498e57600080fd5b601f19601f8301169050602081019050919050565b6000819050602082019050919050565b60008190508160005260206000209050919050565b600081519050919050565b600081519050919050565b600081519050919050565b6000602082019050919050565b600082825260208201905092915050565b600082825260208201905092915050565b600082825260208201905092915050565b6000614a3482614a85565b9050919050565b6000614a4682614a85565b9050919050565b60008115159050919050565b60007fffffffff0000000000000000000000000000000000000000000000000000000082169050919050565b600073ffffffffffffffffffffffffffffffffffffffff82169050919050565b6000819050919050565b6000614aba82614ad3565b9050919050565b6000614acc82614aa5565b9050919050565b6000614ade82614ae5565b9050919050565b6000614af082614a85565b9050919050565b82818337600083830152505050565b60005b83811015614b24578082015181840152602081019050614b09565b83811115614b33576000848401525b50505050565b6000614b4482614b4b565b9050919050565b6000614b5682614b78565b9050919050565b6000819050919050565b6000601f19601f8301169050919050565b60008160601b9050919050565b614b8e81614a29565b8114614b9957600080fd5b50565b614ba581614a4d565b8114614bb057600080fd5b50565b614bbc81614a59565b8114614bc757600080fd5b50565b614bd381614aa5565b8114614bde57600080fd5b5056fea26469706673582212206ba357b974f8a79bc48faf6fc33d47b9f78f285ab40543f10f2c77a0f22cd84b64736f6c63430006000033",
  "source": "pragma solidity >= 0.5.0;\npragma experimental ABIEncoderV2;\n\nimport \"./Breeding.sol\";\n\n\ncontract BidAuction is Breeding {\n\nBidAnimal[] public bidAnimals;\nAuction[] public auctions;\n\nstruct Auction{\n    uint animalId;\n    uint price;\n    bool validate;\n}\n\nstruct BidAnimal {\n    Animal myAnimal;\n    uint time;\n    bool alreadySold;\n}\n\nuint auctionTime = 2 days;\n\nmapping(uint => address) auctionToOwner;\nmapping(uint => address) bidAnimalToOwner;\nmapping (uint => uint) bidAnimalIdToAnimalId;\n\nevent AnimalSoldAuction(address from, address to, uint animalId, uint price);\nevent AnimalToBid(address owner, uint animalId, string species, string name, uint age,\nuint readyTime, string color, uint winCount, uint lossCount);\nevent UpdatedAuction(address _owner, uint _bidAnimalId, uint price);\n\nfunction setAnimalToBid(uint _animalId) public OwnerOf(_animalId) {\n    BidAnimal memory bid = BidAnimal(animals[_animalId], 1 seconds, false);\n    bidAnimals.push(bid);\n    uint id = bidAnimals.length;\n    bidAnimalIdToAnimalId[id] = _animalId;\n\n    emit AnimalToBid(animalToOwner[_animalId], _animalId, animals[_animalId].species, animals[_animalId].name,\n    animals[_animalId].age, animals[_animalId].readyTime, animals[_animalId].color, animals[_animalId].winCount, animals[_animalId].lossCount);\n}\n\nfunction declareAuction(uint _price, uint _animalId) public payable firstAuction(_animalId) {\n    Auction memory A = Auction(_animalId, _price, false);\n    auctions.push(A);\n    uint id = auctions.length;\n    auctionToOwner[id] = msg.sender;\n\n}\n\nfunction updateAuction(uint _price, uint _auctionId) public payable OnlyAuctionner(_auctionId) {\n    auctions[_auctionId].price = _price;\n    emit UpdatedAuction(msg.sender, auctions[_auctionId].animalId, _price);\n}\n\nfunction HasNoAuction(uint _animalId) internal view returns(bool) {\n    bool verif = true;\n    for(uint i = 0; i < auctions.length; i++){\n        if(auctionToOwner[i] == msg.sender && auctions[i].animalId == _animalId){\n            verif = false;\n        }\n    }\n    return verif;\n}\n\nmodifier firstAuction(uint _animalId) {\n    require(HasNoAuction(_animalId),\"You already have an auction, update it\");\n    _;\n}\n\nfunction claimAuction(uint _bidAnimalId, uint _auctionId) public ValidatedAuction(_auctionId) {\n\n    _transferFrom(bidAnimalToOwner[_bidAnimalId], msg.sender, bidAnimalIdToAnimalId[_bidAnimalId]);\n    emit AnimalSoldAuction(bidAnimalToOwner[_bidAnimalId], msg.sender, bidAnimalIdToAnimalId[_bidAnimalId], auctions[_auctionId].price);\n}\n\nmodifier ValidatedAuction(uint _auctionId) {\n    require(auctions[_auctionId].validate,\"Auction not validated, it is not your Animal\");\n    _;\n}\n\nmodifier OnlyAuctionner(uint _auctionId) {\n    require(auctionToOwner[_auctionId] == msg.sender, \" You can't change this auction, it is not your auction !\");\n    _;\n}\n/*modifier CheckedAuction(Auction storage A) {\n    require(A.time <= auctionTime,\"Expired Auction\");\n    _;\n}*/\n}",
  "sourcePath": "C:\\Users\\torta\\OneDrive\\Documents\\ESILV\\Semestre 2\\Blockchain Programming\\OPEN ZEPPELIN\\node_modules\\@openzeppelin\\TD6-ERC721\\contracts\\BidAuction.sol",
  "compiler": {
    "name": "solc",
    "version": "0.6.0+commit.26b70077.Emscripten.clang"
  },
  "schemaVersion": "3.0.23",
  "updatedAt": "2020-03-11T15:20:56.321Z",
  "devdoc": {
    "methods": {
      "approve(address,uint256)": {
        "details": "Approves another address to transfer the given token ID The zero address indicates there is no approved address. There can only be one approved address per token at a given time. Can only be called by the token owner or an approved operator.",
        "params": {
          "to": "address to be approved for the given token ID",
          "tokenId": "uint256 ID of the token to be approved"
        }
      },
      "balanceOf(address)": {
        "details": "Gets the balance of the specified address.",
        "params": {
          "owner": "address to query the balance of"
        },
        "returns": {
          "_0": "uint256 representing the amount owned by the passed address"
        }
      },
      "getApproved(uint256)": {
        "details": "Gets the approved address for a token ID, or zero if no address set Reverts if the token ID does not exist.",
        "params": {
          "tokenId": "uint256 ID of the token to query the approval of"
        },
        "returns": {
          "_0": "address currently approved for the given token ID"
        }
      },
      "isApprovedForAll(address,address)": {
        "details": "Tells whether an operator is approved by a given owner.",
        "params": {
          "operator": "operator address which you want to query the approval of",
          "owner": "owner address which you want to query the approval of"
        },
        "returns": {
          "_0": "bool whether the given operator is approved by the given owner"
        }
      },
      "isOwner()": {
        "details": "Returns true if the caller is the current owner."
      },
      "owner()": {
        "details": "Returns the address of the current owner."
      },
      "ownerOf(uint256)": {
        "details": "Gets the owner of the specified token ID.",
        "params": {
          "tokenId": "uint256 ID of the token to query the owner of"
        },
        "returns": {
          "_0": "address currently marked as the owner of the given token ID"
        }
      },
      "renounceOwnership()": {
        "details": "Leaves the contract without owner. It will not be possible to call `onlyOwner` functions anymore. Can only be called by the current owner.     * NOTE: Renouncing ownership will leave the contract without an owner, thereby removing any functionality that is only available to the owner."
      },
      "safeTransferFrom(address,address,uint256)": {
        "details": "Safely transfers the ownership of a given token ID to another address If the target address is a contract, it must implement {IERC721Receiver-onERC721Received}, which is called upon a safe transfer, and return the magic value `bytes4(keccak256(\"onERC721Received(address,address,uint256,bytes)\"))`; otherwise, the transfer is reverted. Requires the msg.sender to be the owner, approved, or operator",
        "params": {
          "from": "current owner of the token",
          "to": "address to receive the ownership of the given token ID",
          "tokenId": "uint256 ID of the token to be transferred"
        }
      },
      "safeTransferFrom(address,address,uint256,bytes)": {
        "details": "Safely transfers the ownership of a given token ID to another address If the target address is a contract, it must implement {IERC721Receiver-onERC721Received}, which is called upon a safe transfer, and return the magic value `bytes4(keccak256(\"onERC721Received(address,address,uint256,bytes)\"))`; otherwise, the transfer is reverted. Requires the _msgSender() to be the owner, approved, or operator",
        "params": {
          "_data": "bytes data to send along with a safe transfer check",
          "from": "current owner of the token",
          "to": "address to receive the ownership of the given token ID",
          "tokenId": "uint256 ID of the token to be transferred"
        }
      },
      "setApprovalForAll(address,bool)": {
        "details": "Sets or unsets the approval of a given operator An operator is allowed to transfer all tokens of the sender on their behalf.",
        "params": {
          "approved": "representing the status of the approval to be set",
          "to": "operator address to set the approval"
        }
      },
      "supportsInterface(bytes4)": {
        "details": "See {IERC165-supportsInterface}.     * Time complexity O(1), guaranteed to always use less than 30 000 gas."
      },
      "transferFrom(address,address,uint256)": {
        "details": "Transfers the ownership of a given token ID to another address. Usage of this method is discouraged, use {safeTransferFrom} whenever possible. Requires the msg.sender to be the owner, approved, or operator.",
        "params": {
          "from": "current owner of the token",
          "to": "address to receive the ownership of the given token ID",
          "tokenId": "uint256 ID of the token to be transferred"
        }
      },
      "transferOwnership(address)": {
        "details": "Transfers ownership of the contract to a new account (`newOwner`). Can only be called by the current owner."
      }
    }
  },
  "userdoc": {
    "methods": {}
  }
}