{
  "contractName": "BidAuction",
  "abi": [
    {
      "anonymous": false,
      "inputs": [
        {
          "indexed": false,
          "internalType": "address",
          "name": "from",
          "type": "address"
        },
        {
          "indexed": false,
          "internalType": "address",
          "name": "to",
          "type": "address"
        },
        {
          "indexed": false,
          "internalType": "uint256",
          "name": "animalId",
          "type": "uint256"
        },
        {
          "indexed": false,
          "internalType": "uint256",
          "name": "price",
          "type": "uint256"
        }
      ],
      "name": "AnimalSoldAuction",
      "type": "event"
    },
    {
      "anonymous": false,
      "inputs": [
        {
          "indexed": false,
          "internalType": "address",
          "name": "owner",
          "type": "address"
        },
        {
          "indexed": false,
          "internalType": "uint256",
          "name": "animalId",
          "type": "uint256"
        },
        {
          "indexed": false,
          "internalType": "string",
          "name": "species",
          "type": "string"
        },
        {
          "indexed": false,
          "internalType": "string",
          "name": "name",
          "type": "string"
        },
        {
          "indexed": false,
          "internalType": "uint256",
          "name": "age",
          "type": "uint256"
        },
        {
          "indexed": false,
          "internalType": "uint256",
          "name": "readyTime",
          "type": "uint256"
        },
        {
          "indexed": false,
          "internalType": "string",
          "name": "color",
          "type": "string"
        },
        {
          "indexed": false,
          "internalType": "uint256",
          "name": "winCount",
          "type": "uint256"
        },
        {
          "indexed": false,
          "internalType": "uint256",
          "name": "lossCount",
          "type": "uint256"
        }
      ],
      "name": "AnimalToBid",
      "type": "event"
    },
    {
      "anonymous": false,
      "inputs": [
        {
          "indexed": true,
          "internalType": "address",
          "name": "owner",
          "type": "address"
        },
        {
          "indexed": true,
          "internalType": "address",
          "name": "approved",
          "type": "address"
        },
        {
          "indexed": true,
          "internalType": "uint256",
          "name": "tokenId",
          "type": "uint256"
        }
      ],
      "name": "Approval",
      "type": "event"
    },
    {
      "anonymous": false,
      "inputs": [
        {
          "indexed": true,
          "internalType": "address",
          "name": "owner",
          "type": "address"
        },
        {
          "indexed": true,
          "internalType": "address",
          "name": "operator",
          "type": "address"
        },
        {
          "indexed": false,
          "internalType": "bool",
          "name": "approved",
          "type": "bool"
        }
      ],
      "name": "ApprovalForAll",
      "type": "event"
    },
    {
      "anonymous": false,
      "inputs": [
        {
          "indexed": false,
          "internalType": "uint256",
          "name": "Id1",
          "type": "uint256"
        },
        {
          "indexed": false,
          "internalType": "uint256",
          "name": "Id2",
          "type": "uint256"
        }
      ],
      "name": "BreedAnimal",
      "type": "event"
    },
    {
      "anonymous": false,
      "inputs": [
        {
          "indexed": false,
          "internalType": "uint256",
          "name": "Id",
          "type": "uint256"
        },
        {
          "indexed": false,
          "internalType": "string",
          "name": "_species",
          "type": "string"
        },
        {
          "indexed": false,
          "internalType": "string",
          "name": "_name",
          "type": "string"
        },
        {
          "indexed": false,
          "internalType": "uint256",
          "name": "age",
          "type": "uint256"
        },
        {
          "indexed": false,
          "internalType": "uint256",
          "name": "_readyTime",
          "type": "uint256"
        },
        {
          "indexed": false,
          "internalType": "string",
          "name": "_color",
          "type": "string"
        },
        {
          "indexed": false,
          "internalType": "uint256",
          "name": "winCount",
          "type": "uint256"
        },
        {
          "indexed": false,
          "internalType": "uint256",
          "name": "lossCount",
          "type": "uint256"
        }
      ],
      "name": "DeadAnimal",
      "type": "event"
    },
    {
      "anonymous": false,
      "inputs": [
        {
          "indexed": false,
          "internalType": "uint256",
          "name": "Id",
          "type": "uint256"
        },
        {
          "indexed": false,
          "internalType": "string",
          "name": "_species",
          "type": "string"
        },
        {
          "indexed": false,
          "internalType": "string",
          "name": "_name",
          "type": "string"
        },
        {
          "indexed": false,
          "internalType": "uint256",
          "name": "age",
          "type": "uint256"
        },
        {
          "indexed": false,
          "internalType": "uint256",
          "name": "_readyTime",
          "type": "uint256"
        },
        {
          "indexed": false,
          "internalType": "string",
          "name": "_color",
          "type": "string"
        },
        {
          "indexed": false,
          "internalType": "uint256",
          "name": "winCount",
          "type": "uint256"
        },
        {
          "indexed": false,
          "internalType": "uint256",
          "name": "lossCount",
          "type": "uint256"
        }
      ],
      "name": "NewAnimal",
      "type": "event"
    },
    {
      "anonymous": false,
      "inputs": [
        {
          "indexed": true,
          "internalType": "address",
          "name": "previousOwner",
          "type": "address"
        },
        {
          "indexed": true,
          "internalType": "address",
          "name": "newOwner",
          "type": "address"
        }
      ],
      "name": "OwnershipTransferred",
      "type": "event"
    },
    {
      "anonymous": false,
      "inputs": [
        {
          "indexed": true,
          "internalType": "address",
          "name": "from",
          "type": "address"
        },
        {
          "indexed": true,
          "internalType": "address",
          "name": "to",
          "type": "address"
        },
        {
          "indexed": true,
          "internalType": "uint256",
          "name": "tokenId",
          "type": "uint256"
        }
      ],
      "name": "Transfer",
      "type": "event"
    },
    {
      "inputs": [
        {
          "internalType": "uint256",
          "name": "",
          "type": "uint256"
        }
      ],
      "name": "Owners",
      "outputs": [
        {
          "internalType": "address",
          "name": "",
          "type": "address"
        }
      ],
      "stateMutability": "view",
      "type": "function"
    },
    {
      "inputs": [
        {
          "internalType": "uint256",
          "name": "",
          "type": "uint256"
        }
      ],
      "name": "animals",
      "outputs": [
        {
          "internalType": "string",
          "name": "species",
          "type": "string"
        },
        {
          "internalType": "string",
          "name": "name",
          "type": "string"
        },
        {
          "internalType": "uint256",
          "name": "age",
          "type": "uint256"
        },
        {
          "internalType": "uint256",
          "name": "readyTime",
          "type": "uint256"
        },
        {
          "internalType": "string",
          "name": "color",
          "type": "string"
        },
        {
          "internalType": "uint256",
          "name": "winCount",
          "type": "uint256"
        },
        {
          "internalType": "uint256",
          "name": "lossCount",
          "type": "uint256"
        }
      ],
      "stateMutability": "view",
      "type": "function"
    },
    {
      "inputs": [
        {
          "internalType": "address",
          "name": "to",
          "type": "address"
        },
        {
          "internalType": "uint256",
          "name": "tokenId",
          "type": "uint256"
        }
      ],
      "name": "approve",
      "outputs": [],
      "stateMutability": "nonpayable",
      "type": "function"
    },
    {
      "inputs": [
        {
          "internalType": "uint256",
          "name": "",
          "type": "uint256"
        }
      ],
      "name": "auctions",
      "outputs": [
        {
          "internalType": "uint256",
          "name": "animalId",
          "type": "uint256"
        },
        {
          "internalType": "uint256",
          "name": "price",
          "type": "uint256"
        },
        {
          "internalType": "bool",
          "name": "validate",
          "type": "bool"
        }
      ],
      "stateMutability": "view",
      "type": "function"
    },
    {
      "inputs": [
        {
          "internalType": "address",
          "name": "owner",
          "type": "address"
        }
      ],
      "name": "balanceOf",
      "outputs": [
        {
          "internalType": "uint256",
          "name": "",
          "type": "uint256"
        }
      ],
      "stateMutability": "view",
      "type": "function"
    },
    {
      "inputs": [
        {
          "internalType": "uint256",
          "name": "",
          "type": "uint256"
        }
      ],
      "name": "bidAnimals",
      "outputs": [
        {
          "components": [
            {
              "internalType": "string",
              "name": "species",
              "type": "string"
            },
            {
              "internalType": "string",
              "name": "name",
              "type": "string"
            },
            {
              "internalType": "uint256",
              "name": "age",
              "type": "uint256"
            },
            {
              "internalType": "uint256",
              "name": "readyTime",
              "type": "uint256"
            },
            {
              "internalType": "string",
              "name": "color",
              "type": "string"
            },
            {
              "internalType": "uint256",
              "name": "winCount",
              "type": "uint256"
            },
            {
              "internalType": "uint256",
              "name": "lossCount",
              "type": "uint256"
            }
          ],
          "internalType": "struct Breeding.Animal",
          "name": "myAnimal",
          "type": "tuple"
        },
        {
          "internalType": "uint256",
          "name": "time",
          "type": "uint256"
        },
        {
          "internalType": "bool",
          "name": "alreadySold",
          "type": "bool"
        }
      ],
      "stateMutability": "view",
      "type": "function"
    },
    {
      "inputs": [
        {
          "internalType": "uint256",
          "name": "_animalId1",
          "type": "uint256"
        },
        {
          "internalType": "uint256",
          "name": "_animalId2",
          "type": "uint256"
        }
      ],
      "name": "breedAnimal",
      "outputs": [],
      "stateMutability": "nonpayable",
      "type": "function"
    },
    {
      "inputs": [
        {
          "internalType": "uint256",
          "name": "",
          "type": "uint256"
        }
      ],
      "name": "colors",
      "outputs": [
        {
          "internalType": "string",
          "name": "",
          "type": "string"
        }
      ],
      "stateMutability": "view",
      "type": "function"
    },
    {
      "inputs": [
        {
          "internalType": "uint256",
          "name": "_animalId",
          "type": "uint256"
        }
      ],
      "name": "deadAnimal",
      "outputs": [],
      "stateMutability": "nonpayable",
      "type": "function"
    },
    {
      "inputs": [
        {
          "internalType": "address",
          "name": "_owner",
          "type": "address"
        },
        {
          "internalType": "string",
          "name": "_species",
          "type": "string"
        },
        {
          "internalType": "uint256",
          "name": "_age",
          "type": "uint256"
        },
        {
          "internalType": "string",
          "name": "_name",
          "type": "string"
        },
        {
          "internalType": "string",
          "name": "_color",
          "type": "string"
        }
      ],
      "name": "declareAnimal",
      "outputs": [],
      "stateMutability": "nonpayable",
      "type": "function"
    },
    {
      "inputs": [
        {
          "internalType": "uint256",
          "name": "tokenId",
          "type": "uint256"
        }
      ],
      "name": "getApproved",
      "outputs": [
        {
          "internalType": "address",
          "name": "",
          "type": "address"
        }
      ],
      "stateMutability": "view",
      "type": "function"
    },
    {
      "inputs": [],
      "name": "getOwner",
      "outputs": [
        {
          "internalType": "address[]",
          "name": "",
          "type": "address[]"
        }
      ],
      "stateMutability": "view",
      "type": "function"
    },
    {
      "inputs": [
        {
          "internalType": "address",
          "name": "owner",
          "type": "address"
        },
        {
          "internalType": "address",
          "name": "operator",
          "type": "address"
        }
      ],
      "name": "isApprovedForAll",
      "outputs": [
        {
          "internalType": "bool",
          "name": "",
          "type": "bool"
        }
      ],
      "stateMutability": "view",
      "type": "function"
    },
    {
      "inputs": [],
      "name": "isOwner",
      "outputs": [
        {
          "internalType": "bool",
          "name": "",
          "type": "bool"
        }
      ],
      "stateMutability": "view",
      "type": "function"
    },
    {
      "inputs": [],
      "name": "owner",
      "outputs": [
        {
          "internalType": "address",
          "name": "",
          "type": "address"
        }
      ],
      "stateMutability": "view",
      "type": "function"
    },
    {
      "inputs": [
        {
          "internalType": "uint256",
          "name": "tokenId",
          "type": "uint256"
        }
      ],
      "name": "ownerOf",
      "outputs": [
        {
          "internalType": "address",
          "name": "",
          "type": "address"
        }
      ],
      "stateMutability": "view",
      "type": "function"
    },
    {
      "inputs": [
        {
          "internalType": "address",
          "name": "_owner",
          "type": "address"
        }
      ],
      "name": "registerOwner",
      "outputs": [],
      "stateMutability": "nonpayable",
      "type": "function"
    },
    {
      "inputs": [],
      "name": "renounceOwnership",
      "outputs": [],
      "stateMutability": "nonpayable",
      "type": "function"
    },
    {
      "inputs": [
        {
          "internalType": "address",
          "name": "from",
          "type": "address"
        },
        {
          "internalType": "address",
          "name": "to",
          "type": "address"
        },
        {
          "internalType": "uint256",
          "name": "tokenId",
          "type": "uint256"
        }
      ],
      "name": "safeTransferFrom",
      "outputs": [],
      "stateMutability": "nonpayable",
      "type": "function"
    },
    {
      "inputs": [
        {
          "internalType": "address",
          "name": "from",
          "type": "address"
        },
        {
          "internalType": "address",
          "name": "to",
          "type": "address"
        },
        {
          "internalType": "uint256",
          "name": "tokenId",
          "type": "uint256"
        },
        {
          "internalType": "bytes",
          "name": "_data",
          "type": "bytes"
        }
      ],
      "name": "safeTransferFrom",
      "outputs": [],
      "stateMutability": "nonpayable",
      "type": "function"
    },
    {
      "inputs": [
        {
          "internalType": "address",
          "name": "to",
          "type": "address"
        },
        {
          "internalType": "bool",
          "name": "approved",
          "type": "bool"
        }
      ],
      "name": "setApprovalForAll",
      "outputs": [],
      "stateMutability": "nonpayable",
      "type": "function"
    },
    {
      "inputs": [
        {
          "internalType": "bytes4",
          "name": "interfaceId",
          "type": "bytes4"
        }
      ],
      "name": "supportsInterface",
      "outputs": [
        {
          "internalType": "bool",
          "name": "",
          "type": "bool"
        }
      ],
      "stateMutability": "view",
      "type": "function"
    },
    {
      "inputs": [
        {
          "internalType": "address",
          "name": "from",
          "type": "address"
        },
        {
          "internalType": "address",
          "name": "to",
          "type": "address"
        },
        {
          "internalType": "uint256",
          "name": "tokenId",
          "type": "uint256"
        }
      ],
      "name": "transferFrom",
      "outputs": [],
      "stateMutability": "nonpayable",
      "type": "function"
    },
    {
      "inputs": [
        {
          "internalType": "address",
          "name": "newOwner",
          "type": "address"
        }
      ],
      "name": "transferOwnership",
      "outputs": [],
      "stateMutability": "nonpayable",
      "type": "function"
    },
    {
      "inputs": [
        {
          "internalType": "uint256",
          "name": "_animalId",
          "type": "uint256"
        }
      ],
      "name": "setAnimalToBid",
      "outputs": [],
      "stateMutability": "nonpayable",
      "type": "function"
    },
    {
      "inputs": [
        {
          "internalType": "uint256",
          "name": "_price",
          "type": "uint256"
        },
        {
          "internalType": "uint256",
          "name": "_animalId",
          "type": "uint256"
        }
      ],
      "name": "declareAuction",
      "outputs": [],
      "stateMutability": "payable",
      "type": "function"
    },
    {
      "inputs": [
        {
          "internalType": "uint256",
          "name": "_bidAnimalId",
          "type": "uint256"
        },
        {
          "internalType": "uint256",
          "name": "_auctionId",
          "type": "uint256"
        }
      ],
      "name": "claimAuction",
      "outputs": [],
      "stateMutability": "nonpayable",
      "type": "function"
    }
  ],
  "bytecode": "0x608060405260006007556040518060c001604052806040518060400160405280600481526020017f677265790000000000000000000000000000000000000000000000000000000081525081526020016040518060400160405280600381526020017f726564000000000000000000000000000000000000000000000000000000000081525081526020016040518060400160405280600481526020017f626c75650000000000000000000000000000000000000000000000000000000081525081526020016040518060400160405280600581526020017f776869746500000000000000000000000000000000000000000000000000000081525081526020016040518060400160405280600581526020017f62726f776e00000000000000000000000000000000000000000000000000000081525081526020016040518060400160405280600581526020017f626c61636b0000000000000000000000000000000000000000000000000000008152508152506009906006620001869291906200035a565b506000600a556202a300601055620001ab6301ffc9a760e01b6200027a60201b60201c565b620001c36380ac58cd60e01b6200027a60201b60201c565b6000620001d56200035260201b60201c565b905080600560006101000a81548173ffffffffffffffffffffffffffffffffffffffff021916908373ffffffffffffffffffffffffffffffffffffffff1602179055508073ffffffffffffffffffffffffffffffffffffffff16600073ffffffffffffffffffffffffffffffffffffffff167f8be0079c531659141344cd1fd0a4f28419497f9722a3daafe3b4186f6b6457e060405160405180910390a35062000562565b63ffffffff60e01b817bffffffffffffffffffffffffffffffffffffffffffffffffffffffff19161415620002e6576040517f08c379a0000000000000000000000000000000000000000000000000000000008152600401620002dd906200052f565b60405180910390fd5b6001600080837bffffffffffffffffffffffffffffffffffffffffffffffffffffffff19167bffffffffffffffffffffffffffffffffffffffffffffffffffffffff1916815260200190815260200160002060006101000a81548160ff02191690831515021790555050565b600033905090565b828054828255906000526020600020908101928215620003ae579160200282015b82811115620003ad5782518290805190602001906200039c929190620003c1565b50916020019190600101906200037b565b5b509050620003bd919062000448565b5090565b828054600181600116156101000203166002900490600052602060002090601f016020900481019282601f106200040457805160ff191683800117855562000435565b8280016001018555821562000435579182015b828111156200043457825182559160200191906001019062000417565b5b50905062000444919062000479565b5090565b6200047691905b80821115620004725760008181620004689190620004a1565b506001016200044f565b5090565b90565b6200049e91905b808211156200049a57600081600090555060010162000480565b5090565b90565b50805460018160011615610100020316600290046000825580601f10620004c95750620004ea565b601f016020900490600052602060002090810190620004e9919062000479565b5b50565b6000620004fc601c8362000551565b91507f4552433136353a20696e76616c696420696e74657266616365206964000000006000830152602082019050919050565b600060208201905081810360008301526200054a81620004ed565b9050919050565b600082825260208201905092915050565b61490580620005726000396000f3fe60806040526004361061013c5760003560e01c806301ffc9a714610141578063081812fc1461017e578063095ea7b3146101bb5780631220c6ed146101e457806323b872dd1461020d578063400520811461023657806342842e0e14610252578063571a26a01461027b5780635e6bab68146102ba5780636352211e146102e35780636f257d741461032057806370a0823114610349578063715018a614610386578063893d20e81461039d5780638a1ce908146103c85780638da5cb5b146104055780638f32d59b14610430578063998dd3ca1461045b57806399c329071461049e578063a10a2d85146104dd578063a22cb46514610506578063b88d4fde1461052f578063bd11f69d14610558578063c46a6d3d14610595578063e985e9c5146105be578063ec9b6db9146105fb578063f2fde38b14610624575b600080fd5b34801561014d57600080fd5b506101686004803603610163919081019061355c565b61064d565b60405161017591906140ea565b60405180910390f35b34801561018a57600080fd5b506101a560048036036101a09190810190613585565b6106b4565b6040516101b29190613fc6565b60405180910390f35b3480156101c757600080fd5b506101e260048036036101dd9190810190613520565b610739565b005b3480156101f057600080fd5b5061020b600480360361020691908101906132f6565b6108f4565b005b34801561021957600080fd5b50610234600480360361022f919081019061335b565b61095a565b005b610250600480360361024b91908101906135ae565b6109ba565b005b34801561025e57600080fd5b506102796004803603610274919081019061335b565b610a08565b005b34801561028757600080fd5b506102a2600480360361029d9190810190613585565b610a28565b6040516102b1939291906145d5565b60405180910390f35b3480156102c657600080fd5b506102e160048036036102dc91908101906135ae565b610a6c565b005b3480156102ef57600080fd5b5061030a60048036036103059190810190613585565b611103565b6040516103179190613fc6565b60405180910390f35b34801561032c57600080fd5b5061034760048036036103429190810190613461565b6111b5565b005b34801561035557600080fd5b50610370600480360361036b91908101906132f6565b611467565b60405161037d919061446b565b60405180910390f35b34801561039257600080fd5b5061039b611526565b005b3480156103a957600080fd5b506103b261162e565b6040516103bf91906140c8565b60405180910390f35b3480156103d457600080fd5b506103ef60048036036103ea9190810190613585565b6116bc565b6040516103fc9190613fc6565b60405180910390f35b34801561041157600080fd5b5061041a6116f8565b6040516104279190613fc6565b60405180910390f35b34801561043c57600080fd5b50610445611722565b60405161045291906140ea565b60405180910390f35b34801561046757600080fd5b50610482600480360361047d9190810190613585565b611781565b6040516104959796959493929190614149565b60405180910390f35b3480156104aa57600080fd5b506104c560048036036104c09190810190613585565b611998565b6040516104d49392919061442d565b60405180910390f35b3480156104e957600080fd5b5061050460048036036104ff9190810190613585565b611bf4565b005b34801561051257600080fd5b5061052d60048036036105289190810190613425565b612145565b005b34801561053b57600080fd5b50610556600480360361055191908101906133aa565b6122c6565b005b34801561056457600080fd5b5061057f600480360361057a9190810190613585565b612328565b60405161058c9190614105565b60405180910390f35b3480156105a157600080fd5b506105bc60048036036105b791908101906135ae565b6123e1565b005b3480156105ca57600080fd5b506105e560048036036105e0919081019061331f565b612544565b6040516105f291906140ea565b60405180910390f35b34801561060757600080fd5b50610622600480360361061d9190810190613585565b6125d8565b005b34801561063057600080fd5b5061064b600480360361064691908101906132f6565b61282c565b005b6000806000837bffffffffffffffffffffffffffffffffffffffffffffffffffffffff19167bffffffffffffffffffffffffffffffffffffffffffffffffffffffff1916815260200190815260200160002060009054906101000a900460ff169050919050565b60006106bf8261287f565b6106fe576040517f08c379a00000000000000000000000000000000000000000000000000000000081526004016106f59061432d565b60405180910390fd5b6002600083815260200190815260200160002060009054906101000a900473ffffffffffffffffffffffffffffffffffffffff169050919050565b600061074482611103565b90508073ffffffffffffffffffffffffffffffffffffffff168373ffffffffffffffffffffffffffffffffffffffff1614156107b5576040517f08c379a00000000000000000000000000000000000000000000000000000000081526004016107ac906143ad565b60405180910390fd5b8073ffffffffffffffffffffffffffffffffffffffff166107d46128f1565b73ffffffffffffffffffffffffffffffffffffffff1614806108035750610802816107fd6128f1565b612544565b5b610842576040517f08c379a0000000000000000000000000000000000000000000000000000000008152600401610839906142ad565b60405180910390fd5b826002600084815260200190815260200160002060006101000a81548173ffffffffffffffffffffffffffffffffffffffff021916908373ffffffffffffffffffffffffffffffffffffffff160217905550818373ffffffffffffffffffffffffffffffffffffffff168273ffffffffffffffffffffffffffffffffffffffff167f8c5be1e5ebec7d5bd14f71427d1e84f3dd0314c0f7b2291e5b200ac8c7c3b92560405160405180910390a4505050565b6008819080600181540180825580915050600190039060005260206000200160009091909190916101000a81548173ffffffffffffffffffffffffffffffffffffffff021916908373ffffffffffffffffffffffffffffffffffffffff16021790555050565b61096b6109656128f1565b826128f9565b6109aa576040517f08c379a00000000000000000000000000000000000000000000000000000000081526004016109a19061440d565b60405180910390fd5b6109b58383836129d7565b505050565b806109c481612c06565b610a03576040517f08c379a00000000000000000000000000000000000000000000000000000000081526004016109fa906143cd565b60405180910390fd5b505050565b610a23838383604051806020016040528060008152506122c6565b505050565b600f8181548110610a3557fe5b90600052602060002090600302016000915090508060000154908060010154908060020160009054906101000a900460ff16905083565b81600260068281548110610a7c57fe5b9060005260206000209060070201600201541015610acf576040517f08c379a0000000000000000000000000000000000000000000000000000000008152600401610ac69061430d565b60405180910390fd5b600160068281548110610ade57fe5b9060005260206000209060070201600301541015610b31576040517f08c379a0000000000000000000000000000000000000000000000000000000008152600401610b28906141cd565b60405180910390fd5b81600260068281548110610b4157fe5b9060005260206000209060070201600201541015610b94576040517f08c379a0000000000000000000000000000000000000000000000000000000008152600401610b8b9061430d565b60405180910390fd5b600160068281548110610ba357fe5b9060005260206000209060070201600301541015610bf6576040517f08c379a0000000000000000000000000000000000000000000000000000000008152600401610bed906141cd565b60405180910390fd5b83600b600082815260200190815260200160002060009054906101000a900473ffffffffffffffffffffffffffffffffffffffff1673ffffffffffffffffffffffffffffffffffffffff163373ffffffffffffffffffffffffffffffffffffffff1614610c98576040517f08c379a0000000000000000000000000000000000000000000000000000000008152600401610c8f906143ed565b60405180910390fd5b83600b600082815260200190815260200160002060009054906101000a900473ffffffffffffffffffffffffffffffffffffffff1673ffffffffffffffffffffffffffffffffffffffff163373ffffffffffffffffffffffffffffffffffffffff1614610d3a576040517f08c379a0000000000000000000000000000000000000000000000000000000008152600401610d31906143ed565b60405180910390fd5b6000610d466002612ccc565b905060606001821415610e115760068881548110610d6057fe5b90600052602060002090600702016004018054600181600116156101000203166002900480601f016020809104026020016040519081016040528092919081815260200182805460018160011615610100020316600290048015610e055780601f10610dda57610100808354040283529160200191610e05565b820191906000526020600020905b815481529060010190602001808311610de857829003601f168201915b50505050509050610ecb565b60068781548110610e1e57fe5b90600052602060002090600702016004018054600181600116156101000203166002900480601f016020809104026020016040519081016040528092919081815260200182805460018160011615610100020316600290048015610ec35780601f10610e9857610100808354040283529160200191610ec3565b820191906000526020600020905b815481529060010190602001808311610ea657829003601f168201915b505050505090505b7f8a6fde0c0f8077884948daef31fc0b7565d15b1944dbd05612fe54e358bb7a168888604051610efc9291906145ac565b60405180910390a16110b1600b60008a815260200190815260200160002060009054906101000a900473ffffffffffffffffffffffffffffffffffffffff1660068a81548110610f4857fe5b90600052602060002090600702016000018054600181600116156101000203166002900480601f016020809104026020016040519081016040528092919081815260200182805460018160011615610100020316600290048015610fed5780601f10610fc257610100808354040283529160200191610fed565b820191906000526020600020905b815481529060010190602001808311610fd057829003601f168201915b5050505050600160068c8154811061100157fe5b90600052602060002090600702016001018054600181600116156101000203166002900480601f0160208091040260200160405190810160405280929190818152602001828054600181600116156101000203166002900480156110a65780601f1061107b576101008083540402835291602001916110a6565b820191906000526020600020905b81548152906001019060200180831161108957829003601f168201915b5050505050856111b5565b6001600688815481106110c057fe5b9060005260206000209060070201600301819055506001600689815481106110e457fe5b9060005260206000209060070201600301819055505050505050505050565b6000806001600084815260200190815260200160002060009054906101000a900473ffffffffffffffffffffffffffffffffffffffff169050600073ffffffffffffffffffffffffffffffffffffffff168173ffffffffffffffffffffffffffffffffffffffff1614156111ac576040517f08c379a00000000000000000000000000000000000000000000000000000000081526004016111a3906142ed565b60405180910390fd5b80915050919050565b8473ffffffffffffffffffffffffffffffffffffffff163373ffffffffffffffffffffffffffffffffffffffff1614611223576040517f08c379a000000000000000000000000000000000000000000000000000000000815260040161121a9061436d565b60405180910390fd5b61122b61306a565b6040518060e001604052808681526020018481526020018581526020016001815260200183815260200160008152602001600081525090506112b66001600c60003373ffffffffffffffffffffffffffffffffffffffff1673ffffffffffffffffffffffffffffffffffffffff16815260200190815260200160002054612d2a90919063ffffffff16565b600c60003373ffffffffffffffffffffffffffffffffffffffff1673ffffffffffffffffffffffffffffffffffffffff16815260200190815260200160002081905550600681908060018154018082558091505060019003906000526020600020906007020160009091909190915060008201518160000190805190602001906113419291906130a7565b50602082015181600101908051906020019061135e9291906130a7565b506040820151816002015560608201518160030155608082015181600401908051906020019061138f9291906130a7565b5060a0820151816005015560c0820151816006015550506113bc6001600754612d2a90919063ffffffff16565b60078190555033600b6000600754815260200190815260200160002060006101000a81548173ffffffffffffffffffffffffffffffffffffffff021916908373ffffffffffffffffffffffffffffffffffffffff1602179055507f2ed0a6a4f66e6a39321eb2bbd734537cacdbc5aec9e3686afdb9a5c1bbdb1b27600754868587600087600080604051611457989796959493929190614486565b60405180910390a1505050505050565b60008073ffffffffffffffffffffffffffffffffffffffff168273ffffffffffffffffffffffffffffffffffffffff1614156114d8576040517f08c379a00000000000000000000000000000000000000000000000000000000081526004016114cf906142cd565b60405180910390fd5b61151f600360008473ffffffffffffffffffffffffffffffffffffffff1673ffffffffffffffffffffffffffffffffffffffff168152602001908152602001600020612d7f565b9050919050565b61152e611722565b61156d576040517f08c379a00000000000000000000000000000000000000000000000000000000081526004016115649061434d565b60405180910390fd5b600073ffffffffffffffffffffffffffffffffffffffff16600560009054906101000a900473ffffffffffffffffffffffffffffffffffffffff1673ffffffffffffffffffffffffffffffffffffffff167f8be0079c531659141344cd1fd0a4f28419497f9722a3daafe3b4186f6b6457e060405160405180910390a36000600560006101000a81548173ffffffffffffffffffffffffffffffffffffffff021916908373ffffffffffffffffffffffffffffffffffffffff160217905550565b606060088054806020026020016040519081016040528092919081815260200182805480156116b257602002820191906000526020600020905b8160009054906101000a900473ffffffffffffffffffffffffffffffffffffffff1673ffffffffffffffffffffffffffffffffffffffff1681526020019060010190808311611668575b5050505050905090565b600881815481106116c957fe5b906000526020600020016000915054906101000a900473ffffffffffffffffffffffffffffffffffffffff1681565b6000600560009054906101000a900473ffffffffffffffffffffffffffffffffffffffff16905090565b6000600560009054906101000a900473ffffffffffffffffffffffffffffffffffffffff1673ffffffffffffffffffffffffffffffffffffffff166117656128f1565b73ffffffffffffffffffffffffffffffffffffffff1614905090565b6006818154811061178e57fe5b9060005260206000209060070201600091509050806000018054600181600116156101000203166002900480601f01602080910402602001604051908101604052809291908181526020018280546001816001161561010002031660029004801561183a5780601f1061180f5761010080835404028352916020019161183a565b820191906000526020600020905b81548152906001019060200180831161181d57829003601f168201915b505050505090806001018054600181600116156101000203166002900480601f0160208091040260200160405190810160405280929190818152602001828054600181600116156101000203166002900480156118d85780601f106118ad576101008083540402835291602001916118d8565b820191906000526020600020905b8154815290600101906020018083116118bb57829003601f168201915b505050505090806002015490806003015490806004018054600181600116156101000203166002900480601f0160208091040260200160405190810160405280929190818152602001828054600181600116156101000203166002900480156119825780601f1061195757610100808354040283529160200191611982565b820191906000526020600020905b81548152906001019060200180831161196557829003601f168201915b5050505050908060050154908060060154905087565b600e81815481106119a557fe5b9060005260206000209060090201600091509050806000016040518060e0016040529081600082018054600181600116156101000203166002900480601f016020809104026020016040519081016040528092919081815260200182805460018160011615610100020316600290048015611a615780601f10611a3657610100808354040283529160200191611a61565b820191906000526020600020905b815481529060010190602001808311611a4457829003601f168201915b50505050508152602001600182018054600181600116156101000203166002900480601f016020809104026020016040519081016040528092919081815260200182805460018160011615610100020316600290048015611b035780601f10611ad857610100808354040283529160200191611b03565b820191906000526020600020905b815481529060010190602001808311611ae657829003601f168201915b505050505081526020016002820154815260200160038201548152602001600482018054600181600116156101000203166002900480601f016020809104026020016040519081016040528092919081815260200182805460018160011615610100020316600290048015611bb95780601f10611b8e57610100808354040283529160200191611bb9565b820191906000526020600020905b815481529060010190602001808311611b9c57829003601f168201915b5050505050815260200160058201548152602001600682015481525050908060070154908060080160009054906101000a900460ff16905083565b80600b600082815260200190815260200160002060009054906101000a900473ffffffffffffffffffffffffffffffffffffffff1673ffffffffffffffffffffffffffffffffffffffff163373ffffffffffffffffffffffffffffffffffffffff1614611c96576040517f08c379a0000000000000000000000000000000000000000000000000000000008152600401611c8d906143ed565b60405180910390fd5b611c9e613127565b604051806060016040528060068581548110611cb657fe5b90600052602060002090600702016040518060e0016040529081600082018054600181600116156101000203166002900480601f016020809104026020016040519081016040528092919081815260200182805460018160011615610100020316600290048015611d685780601f10611d3d57610100808354040283529160200191611d68565b820191906000526020600020905b815481529060010190602001808311611d4b57829003601f168201915b50505050508152602001600182018054600181600116156101000203166002900480601f016020809104026020016040519081016040528092919081815260200182805460018160011615610100020316600290048015611e0a5780601f10611ddf57610100808354040283529160200191611e0a565b820191906000526020600020905b815481529060010190602001808311611ded57829003601f168201915b505050505081526020016002820154815260200160038201548152602001600482018054600181600116156101000203166002900480601f016020809104026020016040519081016040528092919081815260200182805460018160011615610100020316600290048015611ec05780601f10611e9557610100808354040283529160200191611ec0565b820191906000526020600020905b815481529060010190602001808311611ea357829003601f168201915b5050505050815260200160058201548152602001600682015481525050815260200160018152602001600015158152509050600e8190806001815401808255809150506001900390600052602060002090600902016000909190919091506000820151816000016000820151816000019080519060200190611f439291906130a7565b506020820151816001019080519060200190611f609291906130a7565b5060408201518160020155606082015181600301556080820151816004019080519060200190611f919291906130a7565b5060a0820151816005015560c0820151816006015550506020820151816007015560408201518160080160006101000a81548160ff02191690831515021790555050506000600e8054905090508360136000838152602001908152602001600020819055507f35fd122dfbf8007a96d6033dd1956c772bfc1009f4e22dba88c751beb2c94ebd600b600086815260200190815260200160002060009054906101000a900473ffffffffffffffffffffffffffffffffffffffff16856006878154811061205957fe5b90600052602060002090600702016000016006888154811061207757fe5b90600052602060002090600702016001016006898154811061209557fe5b90600052602060002090600702016002015460068a815481106120b457fe5b90600052602060002090600702016003015460068b815481106120d357fe5b906000526020600020906007020160040160068c815481106120f157fe5b90600052602060002090600702016005015460068d8154811061211057fe5b90600052602060002090600702016006015460405161213799989796959493929190614026565b60405180910390a150505050565b61214d6128f1565b73ffffffffffffffffffffffffffffffffffffffff168273ffffffffffffffffffffffffffffffffffffffff1614156121bb576040517f08c379a00000000000000000000000000000000000000000000000000000000081526004016121b29061424d565b60405180910390fd5b80600460006121c86128f1565b73ffffffffffffffffffffffffffffffffffffffff1673ffffffffffffffffffffffffffffffffffffffff16815260200190815260200160002060008473ffffffffffffffffffffffffffffffffffffffff1673ffffffffffffffffffffffffffffffffffffffff16815260200190815260200160002060006101000a81548160ff0219169083151502179055508173ffffffffffffffffffffffffffffffffffffffff166122756128f1565b73ffffffffffffffffffffffffffffffffffffffff167f17307eab39ab6107e8899845ad3d59bd9653f200f220920489ca2b5937696c31836040516122ba91906140ea565b60405180910390a35050565b6122d76122d16128f1565b836128f9565b612316576040517f08c379a000000000000000000000000000000000000000000000000000000000815260040161230d9061440d565b60405180910390fd5b61232284848484612d8d565b50505050565b6009818154811061233557fe5b906000526020600020016000915090508054600181600116156101000203166002900480601f0160208091040260200160405190810160405280929190818152602001828054600181600116156101000203166002900480156123d95780601f106123ae576101008083540402835291602001916123d9565b820191906000526020600020905b8154815290600101906020018083116123bc57829003601f168201915b505050505081565b80600f81815481106123ef57fe5b906000526020600020906003020160020160009054906101000a900460ff1661244d576040517f08c379a00000000000000000000000000000000000000000000000000000000081526004016124449061426d565b60405180910390fd5b61249e6012600085815260200190815260200160002060009054906101000a900473ffffffffffffffffffffffffffffffffffffffff163360136000878152602001908152602001600020546129d7565b7f336caae23f7c926c563a756c493d2e4186fe8ea365ea75f8813cb36882a2c0886012600085815260200190815260200160002060009054906101000a900473ffffffffffffffffffffffffffffffffffffffff16336013600087815260200190815260200160002054600f868154811061251557fe5b9060005260206000209060030201600101546040516125379493929190613fe1565b60405180910390a1505050565b6000600460008473ffffffffffffffffffffffffffffffffffffffff1673ffffffffffffffffffffffffffffffffffffffff16815260200190815260200160002060008373ffffffffffffffffffffffffffffffffffffffff1673ffffffffffffffffffffffffffffffffffffffff16815260200190815260200160002060009054906101000a900460ff16905092915050565b6000600b600083815260200190815260200160002060009054906101000a900473ffffffffffffffffffffffffffffffffffffffff1690506126636001600c60008473ffffffffffffffffffffffffffffffffffffffff1673ffffffffffffffffffffffffffffffffffffffff16815260200190815260200160002054612d9e90919063ffffffff16565b600c60008373ffffffffffffffffffffffffffffffffffffffff1673ffffffffffffffffffffffffffffffffffffffff16815260200190815260200160002081905550600682815481106126b357fe5b9060005260206000209060070201600080820160006126d29190613150565b6001820160006126e29190613150565b600282016000905560038201600090556004820160006127029190613150565b6005820160009055600682016000905550507ff341316c37c0df80453d7a29598468138ffcfe7c833ec00e80ccc5772369905b826006848154811061274357fe5b90600052602060002090600702016000016006858154811061276157fe5b90600052602060002090600702016001016006868154811061277f57fe5b9060005260206000209060070201600201546006878154811061279e57fe5b906000526020600020906007020160030154600688815481106127bd57fe5b9060005260206000209060070201600401600689815481106127db57fe5b90600052602060002090600702016005015460068a815481106127fa57fe5b906000526020600020906007020160060154604051612820989796959493929190614519565b60405180910390a15050565b612834611722565b612873576040517f08c379a000000000000000000000000000000000000000000000000000000000815260040161286a9061434d565b60405180910390fd5b61287c81612de8565b50565b6000806001600084815260200190815260200160002060009054906101000a900473ffffffffffffffffffffffffffffffffffffffff169050600073ffffffffffffffffffffffffffffffffffffffff168173ffffffffffffffffffffffffffffffffffffffff161415915050919050565b600033905090565b60006129048261287f565b612943576040517f08c379a000000000000000000000000000000000000000000000000000000000815260040161293a9061428d565b60405180910390fd5b600061294e83611103565b90508073ffffffffffffffffffffffffffffffffffffffff168473ffffffffffffffffffffffffffffffffffffffff1614806129bd57508373ffffffffffffffffffffffffffffffffffffffff166129a5846106b4565b73ffffffffffffffffffffffffffffffffffffffff16145b806129ce57506129cd8185612544565b5b91505092915050565b8273ffffffffffffffffffffffffffffffffffffffff166129f782611103565b73ffffffffffffffffffffffffffffffffffffffff1614612a4d576040517f08c379a0000000000000000000000000000000000000000000000000000000008152600401612a449061438d565b60405180910390fd5b600073ffffffffffffffffffffffffffffffffffffffff168273ffffffffffffffffffffffffffffffffffffffff161415612abd576040517f08c379a0000000000000000000000000000000000000000000000000000000008152600401612ab49061422d565b60405180910390fd5b612ac681612f18565b612b0d600360008573ffffffffffffffffffffffffffffffffffffffff1673ffffffffffffffffffffffffffffffffffffffff168152602001908152602001600020612fd6565b612b54600360008473ffffffffffffffffffffffffffffffffffffffff1673ffffffffffffffffffffffffffffffffffffffff168152602001908152602001600020612ff9565b816001600083815260200190815260200160002060006101000a81548173ffffffffffffffffffffffffffffffffffffffff021916908373ffffffffffffffffffffffffffffffffffffffff160217905550808273ffffffffffffffffffffffffffffffffffffffff168473ffffffffffffffffffffffffffffffffffffffff167fddf252ad1be2c89b69c2b068fc378daa952ba7f163c4a11628f55a4df523b3ef60405160405180910390a4505050565b6000806001905060008090505b600f80549050811015612cc2573373ffffffffffffffffffffffffffffffffffffffff166011600083815260200190815260200160002060009054906101000a900473ffffffffffffffffffffffffffffffffffffffff1673ffffffffffffffffffffffffffffffffffffffff16148015612cab575083600f8281548110612c9757fe5b906000526020600020906003020160000154145b15612cb557600091505b8080600101915050612c13565b5080915050919050565b6000612ce46001600a54612d2a90919063ffffffff16565b600a81905550814233600a54604051602001612d0293929190613f89565b6040516020818303038152906040528051906020012060001c81612d2257fe5b069050919050565b600080828401905083811015612d75576040517f08c379a0000000000000000000000000000000000000000000000000000000008152600401612d6c9061420d565b60405180910390fd5b8091505092915050565b600081600001549050919050565b612d988484846129d7565b50505050565b6000612de083836040518060400160405280601e81526020017f536166654d6174683a207375627472616374696f6e206f766572666c6f77000081525061300f565b905092915050565b600073ffffffffffffffffffffffffffffffffffffffff168173ffffffffffffffffffffffffffffffffffffffff161415612e58576040517f08c379a0000000000000000000000000000000000000000000000000000000008152600401612e4f906141ed565b60405180910390fd5b8073ffffffffffffffffffffffffffffffffffffffff16600560009054906101000a900473ffffffffffffffffffffffffffffffffffffffff1673ffffffffffffffffffffffffffffffffffffffff167f8be0079c531659141344cd1fd0a4f28419497f9722a3daafe3b4186f6b6457e060405160405180910390a380600560006101000a81548173ffffffffffffffffffffffffffffffffffffffff021916908373ffffffffffffffffffffffffffffffffffffffff16021790555050565b600073ffffffffffffffffffffffffffffffffffffffff166002600083815260200190815260200160002060009054906101000a900473ffffffffffffffffffffffffffffffffffffffff1673ffffffffffffffffffffffffffffffffffffffff1614612fd35760006002600083815260200190815260200160002060006101000a81548173ffffffffffffffffffffffffffffffffffffffff021916908373ffffffffffffffffffffffffffffffffffffffff1602179055505b50565b612fee60018260000154612d9e90919063ffffffff16565b816000018190555050565b6001816000016000828254019250508190555050565b6000838311158290613057576040517f08c379a000000000000000000000000000000000000000000000000000000000815260040161304e9190614127565b60405180910390fd5b5060008385039050809150509392505050565b6040518060e00160405280606081526020016060815260200160008152602001600081526020016060815260200160008152602001600081525090565b828054600181600116156101000203166002900490600052602060002090601f016020900481019282601f106130e857805160ff1916838001178555613116565b82800160010185558215613116579182015b828111156131155782518255916020019190600101906130fa565b5b5090506131239190613198565b5090565b604051806060016040528061313a6131bd565b8152602001600081526020016000151581525090565b50805460018160011615610100020316600290046000825580601f106131765750613195565b601f0160209004906000526020600020908101906131949190613198565b5b50565b6131ba91905b808211156131b657600081600090555060010161319e565b5090565b90565b6040518060e00160405280606081526020016060815260200160008152602001600081526020016060815260200160008152602001600081525090565b60008135905061320981614873565b92915050565b60008135905061321e8161488a565b92915050565b600081359050613233816148a1565b92915050565b600082601f83011261324a57600080fd5b813561325d61325882614639565b61460c565b9150808252602083016020830185838301111561327957600080fd5b6132848382846147e5565b50505092915050565b600082601f83011261329e57600080fd5b81356132b16132ac82614665565b61460c565b915080825260208301602083018583830111156132cd57600080fd5b6132d88382846147e5565b50505092915050565b6000813590506132f0816148b8565b92915050565b60006020828403121561330857600080fd5b6000613316848285016131fa565b91505092915050565b6000806040838503121561333257600080fd5b6000613340858286016131fa565b9250506020613351858286016131fa565b9150509250929050565b60008060006060848603121561337057600080fd5b600061337e868287016131fa565b935050602061338f868287016131fa565b92505060406133a0868287016132e1565b9150509250925092565b600080600080608085870312156133c057600080fd5b60006133ce878288016131fa565b94505060206133df878288016131fa565b93505060406133f0878288016132e1565b925050606085013567ffffffffffffffff81111561340d57600080fd5b61341987828801613239565b91505092959194509250565b6000806040838503121561343857600080fd5b6000613446858286016131fa565b92505060206134578582860161320f565b9150509250929050565b600080600080600060a0868803121561347957600080fd5b6000613487888289016131fa565b955050602086013567ffffffffffffffff8111156134a457600080fd5b6134b08882890161328d565b94505060406134c1888289016132e1565b935050606086013567ffffffffffffffff8111156134de57600080fd5b6134ea8882890161328d565b925050608086013567ffffffffffffffff81111561350757600080fd5b6135138882890161328d565b9150509295509295909350565b6000806040838503121561353357600080fd5b6000613541858286016131fa565b9250506020613552858286016132e1565b9150509250929050565b60006020828403121561356e57600080fd5b600061357c84828501613224565b91505092915050565b60006020828403121561359757600080fd5b60006135a5848285016132e1565b91505092915050565b600080604083850312156135c157600080fd5b60006135cf858286016132e1565b92505060206135e0858286016132e1565b9150509250929050565b60006135f68383613628565b60208301905092915050565b61360b8161479d565b82525050565b61362261361d82614729565b614827565b82525050565b61363181614717565b82525050565b61364081614717565b82525050565b6000613651826146b6565b61365b81856146e4565b935061366683614691565b8060005b8381101561369757815161367e88826135ea565b9750613689836146d7565b92505060018101905061366a565b5085935050505092915050565b6136ad8161473b565b82525050565b6136bc816147af565b82525050565b60006136cd826146cc565b6136d78185614706565b93506136e78185602086016147f4565b6136f081614855565b840191505092915050565b6000613706826146c1565b61371081856146f5565b93506137208185602086016147f4565b61372981614855565b840191505092915050565b600061373f826146c1565b6137498185614706565b93506137598185602086016147f4565b61376281614855565b840191505092915050565b60008154600181166000811461378a57600181146137b0576137f4565b607f600283041661379b8187614706565b955060ff1983168652602086019350506137f4565b600282046137be8187614706565b95506137c9856146a1565b60005b828110156137eb578154818901526001820191506020810190506137cc565b80880195505050505b505092915050565b6000613809602f83614706565b91507f416e696d616c20616c726561647920636f75706c656420696e2074686520707260008301527f6576696f75732036206d6f6e74687300000000000000000000000000000000006020830152604082019050919050565b600061386f602683614706565b91507f4f776e61626c653a206e6577206f776e657220697320746865207a65726f206160008301527f64647265737300000000000000000000000000000000000000000000000000006020830152604082019050919050565b60006138d5601b83614706565b91507f536166654d6174683a206164646974696f6e206f766572666c6f7700000000006000830152602082019050919050565b6000613915602483614706565b91507f4552433732313a207472616e7366657220746f20746865207a65726f2061646460008301527f72657373000000000000000000000000000000000000000000000000000000006020830152604082019050919050565b600061397b601983614706565b91507f4552433732313a20617070726f766520746f2063616c6c6572000000000000006000830152602082019050919050565b60006139bb602c83614706565b91507f41756374696f6e206e6f742076616c6964617465642c206974206973206e6f7460008301527f20796f757220416e696d616c00000000000000000000000000000000000000006020830152604082019050919050565b6000613a21602c83614706565b91507f4552433732313a206f70657261746f7220717565727920666f72206e6f6e657860008301527f697374656e7420746f6b656e00000000000000000000000000000000000000006020830152604082019050919050565b6000613a87603883614706565b91507f4552433732313a20617070726f76652063616c6c6572206973206e6f74206f7760008301527f6e6572206e6f7220617070726f76656420666f7220616c6c00000000000000006020830152604082019050919050565b6000613aed602a83614706565b91507f4552433732313a2062616c616e636520717565727920666f7220746865207a6560008301527f726f2061646472657373000000000000000000000000000000000000000000006020830152604082019050919050565b6000613b53602983614706565b91507f4552433732313a206f776e657220717565727920666f72206e6f6e657869737460008301527f656e7420746f6b656e00000000000000000000000000000000000000000000006020830152604082019050919050565b6000613bb9601a83614706565b91507f416e696d616c20746f6f20796f756e6720746f20636f75706c650000000000006000830152602082019050919050565b6000613bf9602c83614706565b91507f4552433732313a20617070726f76656420717565727920666f72206e6f6e657860008301527f697374656e7420746f6b656e00000000000000000000000000000000000000006020830152604082019050919050565b6000613c5f602083614706565b91507f4f776e61626c653a2063616c6c6572206973206e6f7420746865206f776e65726000830152602082019050919050565b6000613c9f602183614706565b91507f596f7520617265206e6f74206465636c6172696e6720796f757220616e696d6160008301527f6c000000000000000000000000000000000000000000000000000000000000006020830152604082019050919050565b6000613d05602983614706565b91507f4552433732313a207472616e73666572206f6620746f6b656e2074686174206960008301527f73206e6f74206f776e00000000000000000000000000000000000000000000006020830152604082019050919050565b6000613d6b602183614706565b91507f4552433732313a20617070726f76616c20746f2063757272656e74206f776e6560008301527f72000000000000000000000000000000000000000000000000000000000000006020830152604082019050919050565b6000613dd1602683614706565b91507f596f7520616c7265616479206861766520616e2061756374696f6e2c2075706460008301527f61746520697400000000000000000000000000000000000000000000000000006020830152604082019050919050565b6000613e37600083614706565b9150600082019050919050565b6000613e51603183614706565b91507f4552433732313a207472616e736665722063616c6c6572206973206e6f74206f60008301527f776e6572206e6f7220617070726f7665640000000000000000000000000000006020830152604082019050919050565b600060e0830160008301518482036000860152613ec782826136fb565b91505060208301518482036020860152613ee182826136fb565b9150506040830151613ef66040860182613f54565b506060830151613f096060860182613f54565b5060808301518482036080860152613f2182826136fb565b91505060a0830151613f3660a0860182613f54565b5060c0830151613f4960c0860182613f54565b508091505092915050565b613f5d81614793565b82525050565b613f6c81614793565b82525050565b613f83613f7e82614793565b61484b565b82525050565b6000613f958286613f72565b602082019150613fa58285613611565b601482019150613fb58284613f72565b602082019150819050949350505050565b6000602082019050613fdb6000830184613637565b92915050565b6000608082019050613ff66000830187613637565b6140036020830186613602565b6140106040830185613f63565b61401d6060830184613f63565b95945050505050565b60006101208201905061403c600083018c613637565b614049602083018b613f63565b818103604083015261405b818a61376d565b9050818103606083015261406f818961376d565b905061407e6080830188613f63565b61408b60a0830187613f63565b81810360c083015261409d818661376d565b90506140ac60e0830185613f63565b6140ba610100830184613f63565b9a9950505050505050505050565b600060208201905081810360008301526140e28184613646565b905092915050565b60006020820190506140ff60008301846136a4565b92915050565b6000602082019050818103600083015261411f8184613734565b905092915050565b6000602082019050818103600083015261414181846136c2565b905092915050565b600060e0820190508181036000830152614163818a613734565b905081810360208301526141778189613734565b90506141866040830188613f63565b6141936060830187613f63565b81810360808301526141a58186613734565b90506141b460a0830185613f63565b6141c160c0830184613f63565b98975050505050505050565b600060208201905081810360008301526141e6816137fc565b9050919050565b6000602082019050818103600083015261420681613862565b9050919050565b60006020820190508181036000830152614226816138c8565b9050919050565b6000602082019050818103600083015261424681613908565b9050919050565b600060208201905081810360008301526142668161396e565b9050919050565b60006020820190508181036000830152614286816139ae565b9050919050565b600060208201905081810360008301526142a681613a14565b9050919050565b600060208201905081810360008301526142c681613a7a565b9050919050565b600060208201905081810360008301526142e681613ae0565b9050919050565b6000602082019050818103600083015261430681613b46565b9050919050565b6000602082019050818103600083015261432681613bac565b9050919050565b6000602082019050818103600083015261434681613bec565b9050919050565b6000602082019050818103600083015261436681613c52565b9050919050565b6000602082019050818103600083015261438681613c92565b9050919050565b600060208201905081810360008301526143a681613cf8565b9050919050565b600060208201905081810360008301526143c681613d5e565b9050919050565b600060208201905081810360008301526143e681613dc4565b9050919050565b6000602082019050818103600083015261440681613e2a565b9050919050565b6000602082019050818103600083015261442681613e44565b9050919050565b600060608201905081810360008301526144478186613eaa565b90506144566020830185613f63565b61446360408301846136a4565b949350505050565b60006020820190506144806000830184613f63565b92915050565b60006101008201905061449c600083018b613f63565b81810360208301526144ae818a6136c2565b905081810360408301526144c281896136c2565b90506144d16060830188613f63565b6144de60808301876136b3565b81810360a08301526144f081866136c2565b90506144ff60c08301856136b3565b61450c60e08301846136b3565b9998505050505050505050565b60006101008201905061452f600083018b613f63565b8181036020830152614541818a61376d565b90508181036040830152614555818961376d565b90506145646060830188613f63565b6145716080830187613f63565b81810360a0830152614583818661376d565b905061459260c0830185613f63565b61459f60e0830184613f63565b9998505050505050505050565b60006040820190506145c16000830185613f63565b6145ce6020830184613f63565b9392505050565b60006060820190506145ea6000830186613f63565b6145f76020830185613f63565b61460460408301846136a4565b949350505050565b6000604051905081810181811067ffffffffffffffff8211171561462f57600080fd5b8060405250919050565b600067ffffffffffffffff82111561465057600080fd5b601f19601f8301169050602081019050919050565b600067ffffffffffffffff82111561467c57600080fd5b601f19601f8301169050602081019050919050565b6000819050602082019050919050565b60008190508160005260206000209050919050565b600081519050919050565b600081519050919050565b600081519050919050565b6000602082019050919050565b600082825260208201905092915050565b600082825260208201905092915050565b600082825260208201905092915050565b600061472282614773565b9050919050565b600061473482614773565b9050919050565b60008115159050919050565b60007fffffffff0000000000000000000000000000000000000000000000000000000082169050919050565b600073ffffffffffffffffffffffffffffffffffffffff82169050919050565b6000819050919050565b60006147a8826147c1565b9050919050565b60006147ba82614793565b9050919050565b60006147cc826147d3565b9050919050565b60006147de82614773565b9050919050565b82818337600083830152505050565b60005b838110156148125780820151818401526020810190506147f7565b83811115614821576000848401525b50505050565b600061483282614839565b9050919050565b600061484482614866565b9050919050565b6000819050919050565b6000601f19601f8301169050919050565b60008160601b9050919050565b61487c81614717565b811461488757600080fd5b50565b6148938161473b565b811461489e57600080fd5b50565b6148aa81614747565b81146148b557600080fd5b50565b6148c181614793565b81146148cc57600080fd5b5056fea26469706673582212202222be5261526257293af0f0783d5e01fea6c816833c61434509b6b23edb8a8664736f6c63430006000033",
  "source": "pragma solidity >= 0.5.0;\npragma experimental ABIEncoderV2;\n\nimport \"./Breeding.sol\";\n\n\ncontract BidAuction is Breeding {\n\nBidAnimal[] public bidAnimals;\nAuction[] public auctions;\n\nstruct Auction{\n    uint animalId;\n    uint price;\n    bool validate;\n}\n\nstruct BidAnimal {\n    Animal myAnimal;\n    uint time;\n    bool alreadySold;\n}\n\nuint auctionTime = 2 days;\n\nmapping(uint => address) auctionToOwner;\nmapping(uint => address) bidAnimalToOwner;\nmapping (uint => uint) bidAnimalIdToAnimalId;\nevent AnimalSoldAuction(address from, address to, uint animalId, uint price);\nevent AnimalToBid(address owner, uint animalId, string species, string name, uint age,\nuint readyTime, string color, uint winCount, uint lossCount);\n\nfunction setAnimalToBid(uint _animalId) public OwnerOf(_animalId) {\n    BidAnimal memory bid = BidAnimal(animals[_animalId], 1 seconds, false);\n    bidAnimals.push(bid);\n    uint id = bidAnimals.length;\n    bidAnimalIdToAnimalId[id] = _animalId;\n\n    emit AnimalToBid(animalToOwner[_animalId], _animalId, animals[_animalId].species, animals[_animalId].name,\n    animals[_animalId].age, animals[_animalId].readyTime, animals[_animalId].color, animals[_animalId].winCount, animals[_animalId].lossCount);\n}\n\nfunction declareAuction(uint _price, uint _animalId) public payable firstAuction(_animalId) {\n\n\n}\n\n/*function updateAuction(uint _price, uint _auctionId) public payable {\n\n}*/\n\nfunction HasNoAuction(uint _animalId) internal view returns(bool) {\n    bool verif = true;\n    for(uint i = 0; i < auctions.length; i++){\n        if(auctionToOwner[i] == msg.sender && auctions[i].animalId == _animalId){\n            verif = false;\n        }\n    }\n    return verif;\n}\n\nmodifier firstAuction(uint _animalId) {\n    require(HasNoAuction(_animalId),\"You already have an auction, update it\");\n    _;\n}\n\nfunction claimAuction(uint _bidAnimalId, uint _auctionId) public ValidatedAuction(_auctionId) {\n\n    _transferFrom(bidAnimalToOwner[_bidAnimalId], msg.sender, bidAnimalIdToAnimalId[_bidAnimalId]);\n    emit AnimalSoldAuction(bidAnimalToOwner[_bidAnimalId], msg.sender, bidAnimalIdToAnimalId[_bidAnimalId], auctions[_auctionId].price);\n}\n\nmodifier ValidatedAuction(uint _auctionId) {\n    require(auctions[_auctionId].validate,\"Auction not validated, it is not your Animal\");\n    _;\n}\n\n/*modifier CheckedAuction(Auction storage A) {\n    require(A.time <= auctionTime,\"Expired Auction\");\n    _;\n}*/\n}",
  "sourcePath": "C:\\Users\\torta\\OneDrive\\Documents\\ESILV\\Semestre 2\\Blockchain Programming\\OPEN ZEPPELIN\\node_modules\\@openzeppelin\\TD6-ERC721\\contracts\\BidAuction.sol",
  "compiler": {
    "name": "solc",
    "version": "0.6.0+commit.26b70077.Emscripten.clang"
  },
  "schemaVersion": "3.0.23",
  "updatedAt": "2020-03-10T15:37:52.798Z",
  "devdoc": {
    "methods": {
      "approve(address,uint256)": {
        "details": "Approves another address to transfer the given token ID The zero address indicates there is no approved address. There can only be one approved address per token at a given time. Can only be called by the token owner or an approved operator.",
        "params": {
          "to": "address to be approved for the given token ID",
          "tokenId": "uint256 ID of the token to be approved"
        }
      },
      "balanceOf(address)": {
        "details": "Gets the balance of the specified address.",
        "params": {
          "owner": "address to query the balance of"
        },
        "returns": {
          "_0": "uint256 representing the amount owned by the passed address"
        }
      },
      "getApproved(uint256)": {
        "details": "Gets the approved address for a token ID, or zero if no address set Reverts if the token ID does not exist.",
        "params": {
          "tokenId": "uint256 ID of the token to query the approval of"
        },
        "returns": {
          "_0": "address currently approved for the given token ID"
        }
      },
      "isApprovedForAll(address,address)": {
        "details": "Tells whether an operator is approved by a given owner.",
        "params": {
          "operator": "operator address which you want to query the approval of",
          "owner": "owner address which you want to query the approval of"
        },
        "returns": {
          "_0": "bool whether the given operator is approved by the given owner"
        }
      },
      "isOwner()": {
        "details": "Returns true if the caller is the current owner."
      },
      "owner()": {
        "details": "Returns the address of the current owner."
      },
      "ownerOf(uint256)": {
        "details": "Gets the owner of the specified token ID.",
        "params": {
          "tokenId": "uint256 ID of the token to query the owner of"
        },
        "returns": {
          "_0": "address currently marked as the owner of the given token ID"
        }
      },
      "renounceOwnership()": {
        "details": "Leaves the contract without owner. It will not be possible to call `onlyOwner` functions anymore. Can only be called by the current owner.     * NOTE: Renouncing ownership will leave the contract without an owner, thereby removing any functionality that is only available to the owner."
      },
      "safeTransferFrom(address,address,uint256)": {
        "details": "Safely transfers the ownership of a given token ID to another address If the target address is a contract, it must implement {IERC721Receiver-onERC721Received}, which is called upon a safe transfer, and return the magic value `bytes4(keccak256(\"onERC721Received(address,address,uint256,bytes)\"))`; otherwise, the transfer is reverted. Requires the msg.sender to be the owner, approved, or operator",
        "params": {
          "from": "current owner of the token",
          "to": "address to receive the ownership of the given token ID",
          "tokenId": "uint256 ID of the token to be transferred"
        }
      },
      "safeTransferFrom(address,address,uint256,bytes)": {
        "details": "Safely transfers the ownership of a given token ID to another address If the target address is a contract, it must implement {IERC721Receiver-onERC721Received}, which is called upon a safe transfer, and return the magic value `bytes4(keccak256(\"onERC721Received(address,address,uint256,bytes)\"))`; otherwise, the transfer is reverted. Requires the _msgSender() to be the owner, approved, or operator",
        "params": {
          "_data": "bytes data to send along with a safe transfer check",
          "from": "current owner of the token",
          "to": "address to receive the ownership of the given token ID",
          "tokenId": "uint256 ID of the token to be transferred"
        }
      },
      "setApprovalForAll(address,bool)": {
        "details": "Sets or unsets the approval of a given operator An operator is allowed to transfer all tokens of the sender on their behalf.",
        "params": {
          "approved": "representing the status of the approval to be set",
          "to": "operator address to set the approval"
        }
      },
      "supportsInterface(bytes4)": {
        "details": "See {IERC165-supportsInterface}.     * Time complexity O(1), guaranteed to always use less than 30 000 gas."
      },
      "transferFrom(address,address,uint256)": {
        "details": "Transfers the ownership of a given token ID to another address. Usage of this method is discouraged, use {safeTransferFrom} whenever possible. Requires the msg.sender to be the owner, approved, or operator.",
        "params": {
          "from": "current owner of the token",
          "to": "address to receive the ownership of the given token ID",
          "tokenId": "uint256 ID of the token to be transferred"
        }
      },
      "transferOwnership(address)": {
        "details": "Transfers ownership of the contract to a new account (`newOwner`). Can only be called by the current owner."
      }
    }
  },
  "userdoc": {
    "methods": {}
  }
}