{
  "contractName": "Breeding",
  "abi": [
    {
      "anonymous": false,
      "inputs": [
        {
          "indexed": true,
          "internalType": "address",
          "name": "owner",
          "type": "address"
        },
        {
          "indexed": true,
          "internalType": "address",
          "name": "approved",
          "type": "address"
        },
        {
          "indexed": true,
          "internalType": "uint256",
          "name": "tokenId",
          "type": "uint256"
        }
      ],
      "name": "Approval",
      "type": "event"
    },
    {
      "anonymous": false,
      "inputs": [
        {
          "indexed": true,
          "internalType": "address",
          "name": "owner",
          "type": "address"
        },
        {
          "indexed": true,
          "internalType": "address",
          "name": "operator",
          "type": "address"
        },
        {
          "indexed": false,
          "internalType": "bool",
          "name": "approved",
          "type": "bool"
        }
      ],
      "name": "ApprovalForAll",
      "type": "event"
    },
    {
      "anonymous": false,
      "inputs": [
        {
          "indexed": false,
          "internalType": "uint256",
          "name": "Id1",
          "type": "uint256"
        },
        {
          "indexed": false,
          "internalType": "uint256",
          "name": "Id2",
          "type": "uint256"
        }
      ],
      "name": "BreedAnimal",
      "type": "event"
    },
    {
      "anonymous": false,
      "inputs": [
        {
          "indexed": false,
          "internalType": "uint256",
          "name": "Id",
          "type": "uint256"
        },
        {
          "indexed": false,
          "internalType": "string",
          "name": "_species",
          "type": "string"
        },
        {
          "indexed": false,
          "internalType": "string",
          "name": "_name",
          "type": "string"
        },
        {
          "indexed": false,
          "internalType": "uint256",
          "name": "age",
          "type": "uint256"
        },
        {
          "indexed": false,
          "internalType": "uint256",
          "name": "_readyTime",
          "type": "uint256"
        },
        {
          "indexed": false,
          "internalType": "string",
          "name": "_color",
          "type": "string"
        },
        {
          "indexed": false,
          "internalType": "uint256",
          "name": "winCount",
          "type": "uint256"
        },
        {
          "indexed": false,
          "internalType": "uint256",
          "name": "lossCount",
          "type": "uint256"
        }
      ],
      "name": "DeadAnimal",
      "type": "event"
    },
    {
      "anonymous": false,
      "inputs": [
        {
          "indexed": false,
          "internalType": "uint256",
          "name": "Id",
          "type": "uint256"
        },
        {
          "indexed": false,
          "internalType": "string",
          "name": "_species",
          "type": "string"
        },
        {
          "indexed": false,
          "internalType": "string",
          "name": "_name",
          "type": "string"
        },
        {
          "indexed": false,
          "internalType": "uint256",
          "name": "age",
          "type": "uint256"
        },
        {
          "indexed": false,
          "internalType": "uint256",
          "name": "_readyTime",
          "type": "uint256"
        },
        {
          "indexed": false,
          "internalType": "string",
          "name": "_color",
          "type": "string"
        },
        {
          "indexed": false,
          "internalType": "uint256",
          "name": "winCount",
          "type": "uint256"
        },
        {
          "indexed": false,
          "internalType": "uint256",
          "name": "lossCount",
          "type": "uint256"
        }
      ],
      "name": "NewAnimal",
      "type": "event"
    },
    {
      "anonymous": false,
      "inputs": [
        {
          "indexed": true,
          "internalType": "address",
          "name": "previousOwner",
          "type": "address"
        },
        {
          "indexed": true,
          "internalType": "address",
          "name": "newOwner",
          "type": "address"
        }
      ],
      "name": "OwnershipTransferred",
      "type": "event"
    },
    {
      "anonymous": false,
      "inputs": [
        {
          "indexed": true,
          "internalType": "address",
          "name": "from",
          "type": "address"
        },
        {
          "indexed": true,
          "internalType": "address",
          "name": "to",
          "type": "address"
        },
        {
          "indexed": true,
          "internalType": "uint256",
          "name": "tokenId",
          "type": "uint256"
        }
      ],
      "name": "Transfer",
      "type": "event"
    },
    {
      "inputs": [
        {
          "internalType": "uint256",
          "name": "",
          "type": "uint256"
        }
      ],
      "name": "Owners",
      "outputs": [
        {
          "internalType": "address",
          "name": "",
          "type": "address"
        }
      ],
      "stateMutability": "view",
      "type": "function"
    },
    {
      "inputs": [
        {
          "internalType": "uint256",
          "name": "",
          "type": "uint256"
        }
      ],
      "name": "animals",
      "outputs": [
        {
          "internalType": "string",
          "name": "species",
          "type": "string"
        },
        {
          "internalType": "string",
          "name": "name",
          "type": "string"
        },
        {
          "internalType": "uint256",
          "name": "age",
          "type": "uint256"
        },
        {
          "internalType": "uint256",
          "name": "readyTime",
          "type": "uint256"
        },
        {
          "internalType": "string",
          "name": "color",
          "type": "string"
        },
        {
          "internalType": "uint256",
          "name": "winCount",
          "type": "uint256"
        },
        {
          "internalType": "uint256",
          "name": "lossCount",
          "type": "uint256"
        }
      ],
      "stateMutability": "view",
      "type": "function"
    },
    {
      "inputs": [
        {
          "internalType": "address",
          "name": "to",
          "type": "address"
        },
        {
          "internalType": "uint256",
          "name": "tokenId",
          "type": "uint256"
        }
      ],
      "name": "approve",
      "outputs": [],
      "stateMutability": "nonpayable",
      "type": "function"
    },
    {
      "inputs": [
        {
          "internalType": "address",
          "name": "owner",
          "type": "address"
        }
      ],
      "name": "balanceOf",
      "outputs": [
        {
          "internalType": "uint256",
          "name": "",
          "type": "uint256"
        }
      ],
      "stateMutability": "view",
      "type": "function"
    },
    {
      "inputs": [
        {
          "internalType": "uint256",
          "name": "",
          "type": "uint256"
        }
      ],
      "name": "colors",
      "outputs": [
        {
          "internalType": "string",
          "name": "",
          "type": "string"
        }
      ],
      "stateMutability": "view",
      "type": "function"
    },
    {
      "inputs": [
        {
          "internalType": "uint256",
          "name": "tokenId",
          "type": "uint256"
        }
      ],
      "name": "getApproved",
      "outputs": [
        {
          "internalType": "address",
          "name": "",
          "type": "address"
        }
      ],
      "stateMutability": "view",
      "type": "function"
    },
    {
      "inputs": [
        {
          "internalType": "address",
          "name": "owner",
          "type": "address"
        },
        {
          "internalType": "address",
          "name": "operator",
          "type": "address"
        }
      ],
      "name": "isApprovedForAll",
      "outputs": [
        {
          "internalType": "bool",
          "name": "",
          "type": "bool"
        }
      ],
      "stateMutability": "view",
      "type": "function"
    },
    {
      "inputs": [],
      "name": "isOwner",
      "outputs": [
        {
          "internalType": "bool",
          "name": "",
          "type": "bool"
        }
      ],
      "stateMutability": "view",
      "type": "function"
    },
    {
      "inputs": [],
      "name": "owner",
      "outputs": [
        {
          "internalType": "address",
          "name": "",
          "type": "address"
        }
      ],
      "stateMutability": "view",
      "type": "function"
    },
    {
      "inputs": [
        {
          "internalType": "uint256",
          "name": "tokenId",
          "type": "uint256"
        }
      ],
      "name": "ownerOf",
      "outputs": [
        {
          "internalType": "address",
          "name": "",
          "type": "address"
        }
      ],
      "stateMutability": "view",
      "type": "function"
    },
    {
      "inputs": [],
      "name": "renounceOwnership",
      "outputs": [],
      "stateMutability": "nonpayable",
      "type": "function"
    },
    {
      "inputs": [
        {
          "internalType": "address",
          "name": "from",
          "type": "address"
        },
        {
          "internalType": "address",
          "name": "to",
          "type": "address"
        },
        {
          "internalType": "uint256",
          "name": "tokenId",
          "type": "uint256"
        }
      ],
      "name": "safeTransferFrom",
      "outputs": [],
      "stateMutability": "nonpayable",
      "type": "function"
    },
    {
      "inputs": [
        {
          "internalType": "address",
          "name": "from",
          "type": "address"
        },
        {
          "internalType": "address",
          "name": "to",
          "type": "address"
        },
        {
          "internalType": "uint256",
          "name": "tokenId",
          "type": "uint256"
        },
        {
          "internalType": "bytes",
          "name": "_data",
          "type": "bytes"
        }
      ],
      "name": "safeTransferFrom",
      "outputs": [],
      "stateMutability": "nonpayable",
      "type": "function"
    },
    {
      "inputs": [
        {
          "internalType": "address",
          "name": "to",
          "type": "address"
        },
        {
          "internalType": "bool",
          "name": "approved",
          "type": "bool"
        }
      ],
      "name": "setApprovalForAll",
      "outputs": [],
      "stateMutability": "nonpayable",
      "type": "function"
    },
    {
      "inputs": [
        {
          "internalType": "bytes4",
          "name": "interfaceId",
          "type": "bytes4"
        }
      ],
      "name": "supportsInterface",
      "outputs": [
        {
          "internalType": "bool",
          "name": "",
          "type": "bool"
        }
      ],
      "stateMutability": "view",
      "type": "function"
    },
    {
      "inputs": [
        {
          "internalType": "address",
          "name": "from",
          "type": "address"
        },
        {
          "internalType": "address",
          "name": "to",
          "type": "address"
        },
        {
          "internalType": "uint256",
          "name": "tokenId",
          "type": "uint256"
        }
      ],
      "name": "transferFrom",
      "outputs": [],
      "stateMutability": "nonpayable",
      "type": "function"
    },
    {
      "inputs": [
        {
          "internalType": "address",
          "name": "newOwner",
          "type": "address"
        }
      ],
      "name": "transferOwnership",
      "outputs": [],
      "stateMutability": "nonpayable",
      "type": "function"
    },
    {
      "inputs": [
        {
          "internalType": "address",
          "name": "_owner",
          "type": "address"
        },
        {
          "internalType": "string",
          "name": "_species",
          "type": "string"
        },
        {
          "internalType": "uint256",
          "name": "_age",
          "type": "uint256"
        },
        {
          "internalType": "string",
          "name": "_name",
          "type": "string"
        },
        {
          "internalType": "string",
          "name": "_color",
          "type": "string"
        }
      ],
      "name": "declareAnimal",
      "outputs": [],
      "stateMutability": "nonpayable",
      "type": "function"
    },
    {
      "inputs": [
        {
          "internalType": "uint256",
          "name": "_animalId",
          "type": "uint256"
        }
      ],
      "name": "deadAnimal",
      "outputs": [],
      "stateMutability": "nonpayable",
      "type": "function"
    },
    {
      "inputs": [
        {
          "internalType": "uint256",
          "name": "_animalId1",
          "type": "uint256"
        },
        {
          "internalType": "uint256",
          "name": "_animalId2",
          "type": "uint256"
        }
      ],
      "name": "breedAnimal",
      "outputs": [],
      "stateMutability": "nonpayable",
      "type": "function"
    },
    {
      "inputs": [
        {
          "internalType": "address",
          "name": "_owner",
          "type": "address"
        }
      ],
      "name": "registerOwner",
      "outputs": [],
      "stateMutability": "nonpayable",
      "type": "function"
    },
    {
      "inputs": [],
      "name": "getOwner",
      "outputs": [
        {
          "internalType": "address[]",
          "name": "",
          "type": "address[]"
        }
      ],
      "stateMutability": "view",
      "type": "function"
    }
  ],
  "bytecode": "0x608060405260006007556040518060c001604052806040518060400160405280600481526020017f677265790000000000000000000000000000000000000000000000000000000081525081526020016040518060400160405280600381526020017f726564000000000000000000000000000000000000000000000000000000000081525081526020016040518060400160405280600481526020017f626c75650000000000000000000000000000000000000000000000000000000081525081526020016040518060400160405280600581526020017f776869746500000000000000000000000000000000000000000000000000000081525081526020016040518060400160405280600581526020017f62726f776e00000000000000000000000000000000000000000000000000000081525081526020016040518060400160405280600581526020017f626c61636b00000000000000000000000000000000000000000000000000000081525081525060099060066200018692919062000353565b506000600a55620001a46301ffc9a760e01b6200027360201b60201c565b620001bc6380ac58cd60e01b6200027360201b60201c565b6000620001ce6200034b60201b60201c565b905080600560006101000a81548173ffffffffffffffffffffffffffffffffffffffff021916908373ffffffffffffffffffffffffffffffffffffffff1602179055508073ffffffffffffffffffffffffffffffffffffffff16600073ffffffffffffffffffffffffffffffffffffffff167f8be0079c531659141344cd1fd0a4f28419497f9722a3daafe3b4186f6b6457e060405160405180910390a3506200055b565b63ffffffff60e01b817bffffffffffffffffffffffffffffffffffffffffffffffffffffffff19161415620002df576040517f08c379a0000000000000000000000000000000000000000000000000000000008152600401620002d69062000528565b60405180910390fd5b6001600080837bffffffffffffffffffffffffffffffffffffffffffffffffffffffff19167bffffffffffffffffffffffffffffffffffffffffffffffffffffffff1916815260200190815260200160002060006101000a81548160ff02191690831515021790555050565b600033905090565b828054828255906000526020600020908101928215620003a7579160200282015b82811115620003a657825182908051906020019062000395929190620003ba565b509160200191906001019062000374565b5b509050620003b6919062000441565b5090565b828054600181600116156101000203166002900490600052602060002090601f016020900481019282601f10620003fd57805160ff19168380011785556200042e565b828001600101855582156200042e579182015b828111156200042d57825182559160200191906001019062000410565b5b5090506200043d919062000472565b5090565b6200046f91905b808211156200046b57600081816200046191906200049a565b5060010162000448565b5090565b90565b6200049791905b808211156200049357600081600090555060010162000479565b5090565b90565b50805460018160011615610100020316600290046000825580601f10620004c25750620004e3565b601f016020900490600052602060002090810190620004e2919062000472565b5b50565b6000620004f5601c836200054a565b91507f4552433136353a20696e76616c696420696e74657266616365206964000000006000830152602082019050919050565b600060208201905081810360008301526200054381620004e6565b9050919050565b600082825260208201905092915050565b613853806200056b6000396000f3fe608060405234801561001057600080fd5b50600436106101125760003560e01c806301ffc9a714610117578063081812fc14610147578063095ea7b3146101775780631220c6ed1461019357806323b872dd146101af57806342842e0e146101cb5780635e6bab68146101e75780636352211e146102035780636f257d741461023357806370a082311461024f578063715018a61461027f578063893d20e8146102895780638a1ce908146102a75780638da5cb5b146102d75780638f32d59b146102f5578063998dd3ca14610313578063a22cb46514610349578063b88d4fde14610365578063bd11f69d14610381578063e985e9c5146103b1578063ec9b6db9146103e1578063f2fde38b146103fd575b600080fd5b610131600480360361012c919081019061285a565b610419565b60405161013e9190613134565b60405180910390f35b610161600480360361015c9190810190612883565b610480565b60405161016e91906130f7565b60405180910390f35b610191600480360361018c919081019061281e565b610505565b005b6101ad60048036036101a891908101906125f4565b6106c0565b005b6101c960048036036101c49190810190612659565b610726565b005b6101e560048036036101e09190810190612659565b610786565b005b61020160048036036101fc91908101906128ac565b6107a6565b005b61021d60048036036102189190810190612883565b610e3d565b60405161022a91906130f7565b60405180910390f35b61024d6004803603610248919081019061275f565b610eef565b005b610269600480360361026491908101906125f4565b6111a1565b6040516102769190613437565b60405180910390f35b610287611260565b005b610291611368565b60405161029e9190613112565b60405180910390f35b6102c160048036036102bc9190810190612883565b6113f6565b6040516102ce91906130f7565b60405180910390f35b6102df611432565b6040516102ec91906130f7565b60405180910390f35b6102fd61145c565b60405161030a9190613134565b60405180910390f35b61032d60048036036103289190810190612883565b6114bb565b6040516103409796959493929190613193565b60405180910390f35b610363600480360361035e9190810190612723565b6116d2565b005b61037f600480360361037a91908101906126a8565b611853565b005b61039b60048036036103969190810190612883565b6118b5565b6040516103a8919061314f565b60405180910390f35b6103cb60048036036103c6919081019061261d565b61196e565b6040516103d89190613134565b60405180910390f35b6103fb60048036036103f69190810190612883565b611a02565b005b610417600480360361041291908101906125f4565b611c56565b005b6000806000837bffffffffffffffffffffffffffffffffffffffffffffffffffffffff19167bffffffffffffffffffffffffffffffffffffffffffffffffffffffff1916815260200190815260200160002060009054906101000a900460ff169050919050565b600061048b82611ca9565b6104ca576040517f08c379a00000000000000000000000000000000000000000000000000000000081526004016104c190613357565b60405180910390fd5b6002600083815260200190815260200160002060009054906101000a900473ffffffffffffffffffffffffffffffffffffffff169050919050565b600061051082610e3d565b90508073ffffffffffffffffffffffffffffffffffffffff168373ffffffffffffffffffffffffffffffffffffffff161415610581576040517f08c379a0000000000000000000000000000000000000000000000000000000008152600401610578906133d7565b60405180910390fd5b8073ffffffffffffffffffffffffffffffffffffffff166105a0611d1b565b73ffffffffffffffffffffffffffffffffffffffff1614806105cf57506105ce816105c9611d1b565b61196e565b5b61060e576040517f08c379a0000000000000000000000000000000000000000000000000000000008152600401610605906132d7565b60405180910390fd5b826002600084815260200190815260200160002060006101000a81548173ffffffffffffffffffffffffffffffffffffffff021916908373ffffffffffffffffffffffffffffffffffffffff160217905550818373ffffffffffffffffffffffffffffffffffffffff168273ffffffffffffffffffffffffffffffffffffffff167f8c5be1e5ebec7d5bd14f71427d1e84f3dd0314c0f7b2291e5b200ac8c7c3b92560405160405180910390a4505050565b6008819080600181540180825580915050600190039060005260206000200160009091909190916101000a81548173ffffffffffffffffffffffffffffffffffffffff021916908373ffffffffffffffffffffffffffffffffffffffff16021790555050565b610737610731611d1b565b82611d23565b610776576040517f08c379a000000000000000000000000000000000000000000000000000000000815260040161076d90613417565b60405180910390fd5b610781838383611e01565b505050565b6107a183838360405180602001604052806000815250611853565b505050565b816002600682815481106107b657fe5b9060005260206000209060070201600201541015610809576040517f08c379a000000000000000000000000000000000000000000000000000000000815260040161080090613337565b60405180910390fd5b60016006828154811061081857fe5b906000526020600020906007020160030154101561086b576040517f08c379a000000000000000000000000000000000000000000000000000000000815260040161086290613217565b60405180910390fd5b8160026006828154811061087b57fe5b90600052602060002090600702016002015410156108ce576040517f08c379a00000000000000000000000000000000000000000000000000000000081526004016108c590613337565b60405180910390fd5b6001600682815481106108dd57fe5b9060005260206000209060070201600301541015610930576040517f08c379a000000000000000000000000000000000000000000000000000000000815260040161092790613217565b60405180910390fd5b83600b600082815260200190815260200160002060009054906101000a900473ffffffffffffffffffffffffffffffffffffffff1673ffffffffffffffffffffffffffffffffffffffff163373ffffffffffffffffffffffffffffffffffffffff16146109d2576040517f08c379a00000000000000000000000000000000000000000000000000000000081526004016109c9906133f7565b60405180910390fd5b83600b600082815260200190815260200160002060009054906101000a900473ffffffffffffffffffffffffffffffffffffffff1673ffffffffffffffffffffffffffffffffffffffff163373ffffffffffffffffffffffffffffffffffffffff1614610a74576040517f08c379a0000000000000000000000000000000000000000000000000000000008152600401610a6b906133f7565b60405180910390fd5b6000610a806002612030565b905060606001821415610b4b5760068881548110610a9a57fe5b90600052602060002090600702016004018054600181600116156101000203166002900480601f016020809104026020016040519081016040528092919081815260200182805460018160011615610100020316600290048015610b3f5780601f10610b1457610100808354040283529160200191610b3f565b820191906000526020600020905b815481529060010190602001808311610b2257829003601f168201915b50505050509050610c05565b60068781548110610b5857fe5b90600052602060002090600702016004018054600181600116156101000203166002900480601f016020809104026020016040519081016040528092919081815260200182805460018160011615610100020316600290048015610bfd5780601f10610bd257610100808354040283529160200191610bfd565b820191906000526020600020905b815481529060010190602001808311610be057829003601f168201915b505050505090505b7f8a6fde0c0f8077884948daef31fc0b7565d15b1944dbd05612fe54e358bb7a168888604051610c36929190613578565b60405180910390a1610deb600b60008a815260200190815260200160002060009054906101000a900473ffffffffffffffffffffffffffffffffffffffff1660068a81548110610c8257fe5b90600052602060002090600702016000018054600181600116156101000203166002900480601f016020809104026020016040519081016040528092919081815260200182805460018160011615610100020316600290048015610d275780601f10610cfc57610100808354040283529160200191610d27565b820191906000526020600020905b815481529060010190602001808311610d0a57829003601f168201915b5050505050600160068c81548110610d3b57fe5b90600052602060002090600702016001018054600181600116156101000203166002900480601f016020809104026020016040519081016040528092919081815260200182805460018160011615610100020316600290048015610de05780601f10610db557610100808354040283529160200191610de0565b820191906000526020600020905b815481529060010190602001808311610dc357829003601f168201915b505050505085610eef565b600160068881548110610dfa57fe5b906000526020600020906007020160030181905550600160068981548110610e1e57fe5b9060005260206000209060070201600301819055505050505050505050565b6000806001600084815260200190815260200160002060009054906101000a900473ffffffffffffffffffffffffffffffffffffffff169050600073ffffffffffffffffffffffffffffffffffffffff168173ffffffffffffffffffffffffffffffffffffffff161415610ee6576040517f08c379a0000000000000000000000000000000000000000000000000000000008152600401610edd90613317565b60405180910390fd5b80915050919050565b8473ffffffffffffffffffffffffffffffffffffffff163373ffffffffffffffffffffffffffffffffffffffff1614610f5d576040517f08c379a0000000000000000000000000000000000000000000000000000000008152600401610f5490613397565b60405180910390fd5b610f656123ce565b6040518060e00160405280868152602001848152602001858152602001600181526020018381526020016000815260200160008152509050610ff06001600c60003373ffffffffffffffffffffffffffffffffffffffff1673ffffffffffffffffffffffffffffffffffffffff1681526020019081526020016000205461208e90919063ffffffff16565b600c60003373ffffffffffffffffffffffffffffffffffffffff1673ffffffffffffffffffffffffffffffffffffffff168152602001908152602001600020819055506006819080600181540180825580915050600190039060005260206000209060070201600090919091909150600082015181600001908051906020019061107b92919061240b565b50602082015181600101908051906020019061109892919061240b565b50604082015181600201556060820151816003015560808201518160040190805190602001906110c992919061240b565b5060a0820151816005015560c0820151816006015550506110f6600160075461208e90919063ffffffff16565b60078190555033600b6000600754815260200190815260200160002060006101000a81548173ffffffffffffffffffffffffffffffffffffffff021916908373ffffffffffffffffffffffffffffffffffffffff1602179055507f2ed0a6a4f66e6a39321eb2bbd734537cacdbc5aec9e3686afdb9a5c1bbdb1b27600754868587600087600080604051611191989796959493929190613452565b60405180910390a1505050505050565b60008073ffffffffffffffffffffffffffffffffffffffff168273ffffffffffffffffffffffffffffffffffffffff161415611212576040517f08c379a0000000000000000000000000000000000000000000000000000000008152600401611209906132f7565b60405180910390fd5b611259600360008473ffffffffffffffffffffffffffffffffffffffff1673ffffffffffffffffffffffffffffffffffffffff1681526020019081526020016000206120e3565b9050919050565b61126861145c565b6112a7576040517f08c379a000000000000000000000000000000000000000000000000000000000815260040161129e90613377565b60405180910390fd5b600073ffffffffffffffffffffffffffffffffffffffff16600560009054906101000a900473ffffffffffffffffffffffffffffffffffffffff1673ffffffffffffffffffffffffffffffffffffffff167f8be0079c531659141344cd1fd0a4f28419497f9722a3daafe3b4186f6b6457e060405160405180910390a36000600560006101000a81548173ffffffffffffffffffffffffffffffffffffffff021916908373ffffffffffffffffffffffffffffffffffffffff160217905550565b606060088054806020026020016040519081016040528092919081815260200182805480156113ec57602002820191906000526020600020905b8160009054906101000a900473ffffffffffffffffffffffffffffffffffffffff1673ffffffffffffffffffffffffffffffffffffffff16815260200190600101908083116113a2575b5050505050905090565b6008818154811061140357fe5b906000526020600020016000915054906101000a900473ffffffffffffffffffffffffffffffffffffffff1681565b6000600560009054906101000a900473ffffffffffffffffffffffffffffffffffffffff16905090565b6000600560009054906101000a900473ffffffffffffffffffffffffffffffffffffffff1673ffffffffffffffffffffffffffffffffffffffff1661149f611d1b565b73ffffffffffffffffffffffffffffffffffffffff1614905090565b600681815481106114c857fe5b9060005260206000209060070201600091509050806000018054600181600116156101000203166002900480601f0160208091040260200160405190810160405280929190818152602001828054600181600116156101000203166002900480156115745780601f1061154957610100808354040283529160200191611574565b820191906000526020600020905b81548152906001019060200180831161155757829003601f168201915b505050505090806001018054600181600116156101000203166002900480601f0160208091040260200160405190810160405280929190818152602001828054600181600116156101000203166002900480156116125780601f106115e757610100808354040283529160200191611612565b820191906000526020600020905b8154815290600101906020018083116115f557829003601f168201915b505050505090806002015490806003015490806004018054600181600116156101000203166002900480601f0160208091040260200160405190810160405280929190818152602001828054600181600116156101000203166002900480156116bc5780601f10611691576101008083540402835291602001916116bc565b820191906000526020600020905b81548152906001019060200180831161169f57829003601f168201915b5050505050908060050154908060060154905087565b6116da611d1b565b73ffffffffffffffffffffffffffffffffffffffff168273ffffffffffffffffffffffffffffffffffffffff161415611748576040517f08c379a000000000000000000000000000000000000000000000000000000000815260040161173f90613297565b60405180910390fd5b8060046000611755611d1b565b73ffffffffffffffffffffffffffffffffffffffff1673ffffffffffffffffffffffffffffffffffffffff16815260200190815260200160002060008473ffffffffffffffffffffffffffffffffffffffff1673ffffffffffffffffffffffffffffffffffffffff16815260200190815260200160002060006101000a81548160ff0219169083151502179055508173ffffffffffffffffffffffffffffffffffffffff16611802611d1b565b73ffffffffffffffffffffffffffffffffffffffff167f17307eab39ab6107e8899845ad3d59bd9653f200f220920489ca2b5937696c31836040516118479190613134565b60405180910390a35050565b61186461185e611d1b565b83611d23565b6118a3576040517f08c379a000000000000000000000000000000000000000000000000000000000815260040161189a90613417565b60405180910390fd5b6118af848484846120f1565b50505050565b600981815481106118c257fe5b906000526020600020016000915090508054600181600116156101000203166002900480601f0160208091040260200160405190810160405280929190818152602001828054600181600116156101000203166002900480156119665780601f1061193b57610100808354040283529160200191611966565b820191906000526020600020905b81548152906001019060200180831161194957829003601f168201915b505050505081565b6000600460008473ffffffffffffffffffffffffffffffffffffffff1673ffffffffffffffffffffffffffffffffffffffff16815260200190815260200160002060008373ffffffffffffffffffffffffffffffffffffffff1673ffffffffffffffffffffffffffffffffffffffff16815260200190815260200160002060009054906101000a900460ff16905092915050565b6000600b600083815260200190815260200160002060009054906101000a900473ffffffffffffffffffffffffffffffffffffffff169050611a8d6001600c60008473ffffffffffffffffffffffffffffffffffffffff1673ffffffffffffffffffffffffffffffffffffffff1681526020019081526020016000205461210290919063ffffffff16565b600c60008373ffffffffffffffffffffffffffffffffffffffff1673ffffffffffffffffffffffffffffffffffffffff1681526020019081526020016000208190555060068281548110611add57fe5b906000526020600020906007020160008082016000611afc919061248b565b600182016000611b0c919061248b565b60028201600090556003820160009055600482016000611b2c919061248b565b6005820160009055600682016000905550507ff341316c37c0df80453d7a29598468138ffcfe7c833ec00e80ccc5772369905b8260068481548110611b6d57fe5b906000526020600020906007020160000160068581548110611b8b57fe5b906000526020600020906007020160010160068681548110611ba957fe5b90600052602060002090600702016002015460068781548110611bc857fe5b90600052602060002090600702016003015460068881548110611be757fe5b906000526020600020906007020160040160068981548110611c0557fe5b90600052602060002090600702016005015460068a81548110611c2457fe5b906000526020600020906007020160060154604051611c4a9897969594939291906134e5565b60405180910390a15050565b611c5e61145c565b611c9d576040517f08c379a0000000000000000000000000000000000000000000000000000000008152600401611c9490613377565b60405180910390fd5b611ca68161214c565b50565b6000806001600084815260200190815260200160002060009054906101000a900473ffffffffffffffffffffffffffffffffffffffff169050600073ffffffffffffffffffffffffffffffffffffffff168173ffffffffffffffffffffffffffffffffffffffff161415915050919050565b600033905090565b6000611d2e82611ca9565b611d6d576040517f08c379a0000000000000000000000000000000000000000000000000000000008152600401611d64906132b7565b60405180910390fd5b6000611d7883610e3d565b90508073ffffffffffffffffffffffffffffffffffffffff168473ffffffffffffffffffffffffffffffffffffffff161480611de757508373ffffffffffffffffffffffffffffffffffffffff16611dcf84610480565b73ffffffffffffffffffffffffffffffffffffffff16145b80611df85750611df7818561196e565b5b91505092915050565b8273ffffffffffffffffffffffffffffffffffffffff16611e2182610e3d565b73ffffffffffffffffffffffffffffffffffffffff1614611e77576040517f08c379a0000000000000000000000000000000000000000000000000000000008152600401611e6e906133b7565b60405180910390fd5b600073ffffffffffffffffffffffffffffffffffffffff168273ffffffffffffffffffffffffffffffffffffffff161415611ee7576040517f08c379a0000000000000000000000000000000000000000000000000000000008152600401611ede90613277565b60405180910390fd5b611ef08161227c565b611f37600360008573ffffffffffffffffffffffffffffffffffffffff1673ffffffffffffffffffffffffffffffffffffffff16815260200190815260200160002061233a565b611f7e600360008473ffffffffffffffffffffffffffffffffffffffff1673ffffffffffffffffffffffffffffffffffffffff16815260200190815260200160002061235d565b816001600083815260200190815260200160002060006101000a81548173ffffffffffffffffffffffffffffffffffffffff021916908373ffffffffffffffffffffffffffffffffffffffff160217905550808273ffffffffffffffffffffffffffffffffffffffff168473ffffffffffffffffffffffffffffffffffffffff167fddf252ad1be2c89b69c2b068fc378daa952ba7f163c4a11628f55a4df523b3ef60405160405180910390a4505050565b60006120486001600a5461208e90919063ffffffff16565b600a81905550814233600a54604051602001612066939291906130ba565b6040516020818303038152906040528051906020012060001c8161208657fe5b069050919050565b6000808284019050838110156120d9576040517f08c379a00000000000000000000000000000000000000000000000000000000081526004016120d090613257565b60405180910390fd5b8091505092915050565b600081600001549050919050565b6120fc848484611e01565b50505050565b600061214483836040518060400160405280601e81526020017f536166654d6174683a207375627472616374696f6e206f766572666c6f770000815250612373565b905092915050565b600073ffffffffffffffffffffffffffffffffffffffff168173ffffffffffffffffffffffffffffffffffffffff1614156121bc576040517f08c379a00000000000000000000000000000000000000000000000000000000081526004016121b390613237565b60405180910390fd5b8073ffffffffffffffffffffffffffffffffffffffff16600560009054906101000a900473ffffffffffffffffffffffffffffffffffffffff1673ffffffffffffffffffffffffffffffffffffffff167f8be0079c531659141344cd1fd0a4f28419497f9722a3daafe3b4186f6b6457e060405160405180910390a380600560006101000a81548173ffffffffffffffffffffffffffffffffffffffff021916908373ffffffffffffffffffffffffffffffffffffffff16021790555050565b600073ffffffffffffffffffffffffffffffffffffffff166002600083815260200190815260200160002060009054906101000a900473ffffffffffffffffffffffffffffffffffffffff1673ffffffffffffffffffffffffffffffffffffffff16146123375760006002600083815260200190815260200160002060006101000a81548173ffffffffffffffffffffffffffffffffffffffff021916908373ffffffffffffffffffffffffffffffffffffffff1602179055505b50565b6123526001826000015461210290919063ffffffff16565b816000018190555050565b6001816000016000828254019250508190555050565b60008383111582906123bb576040517f08c379a00000000000000000000000000000000000000000000000000000000081526004016123b29190613171565b60405180910390fd5b5060008385039050809150509392505050565b6040518060e00160405280606081526020016060815260200160008152602001600081526020016060815260200160008152602001600081525090565b828054600181600116156101000203166002900490600052602060002090601f016020900481019282601f1061244c57805160ff191683800117855561247a565b8280016001018555821561247a579182015b8281111561247957825182559160200191906001019061245e565b5b50905061248791906124d3565b5090565b50805460018160011615610100020316600290046000825580601f106124b157506124d0565b601f0160209004906000526020600020908101906124cf91906124d3565b5b50565b6124f591905b808211156124f15760008160009055506001016124d9565b5090565b90565b600081359050612507816137c1565b92915050565b60008135905061251c816137d8565b92915050565b600081359050612531816137ef565b92915050565b600082601f83011261254857600080fd5b813561255b612556826135ce565b6135a1565b9150808252602083016020830185838301111561257757600080fd5b612582838284613733565b50505092915050565b600082601f83011261259c57600080fd5b81356125af6125aa826135fa565b6135a1565b915080825260208301602083018583830111156125cb57600080fd5b6125d6838284613733565b50505092915050565b6000813590506125ee81613806565b92915050565b60006020828403121561260657600080fd5b6000612614848285016124f8565b91505092915050565b6000806040838503121561263057600080fd5b600061263e858286016124f8565b925050602061264f858286016124f8565b9150509250929050565b60008060006060848603121561266e57600080fd5b600061267c868287016124f8565b935050602061268d868287016124f8565b925050604061269e868287016125df565b9150509250925092565b600080600080608085870312156126be57600080fd5b60006126cc878288016124f8565b94505060206126dd878288016124f8565b93505060406126ee878288016125df565b925050606085013567ffffffffffffffff81111561270b57600080fd5b61271787828801612537565b91505092959194509250565b6000806040838503121561273657600080fd5b6000612744858286016124f8565b92505060206127558582860161250d565b9150509250929050565b600080600080600060a0868803121561277757600080fd5b6000612785888289016124f8565b955050602086013567ffffffffffffffff8111156127a257600080fd5b6127ae8882890161258b565b94505060406127bf888289016125df565b935050606086013567ffffffffffffffff8111156127dc57600080fd5b6127e88882890161258b565b925050608086013567ffffffffffffffff81111561280557600080fd5b6128118882890161258b565b9150509295509295909350565b6000806040838503121561283157600080fd5b600061283f858286016124f8565b9250506020612850858286016125df565b9150509250929050565b60006020828403121561286c57600080fd5b600061287a84828501612522565b91505092915050565b60006020828403121561289557600080fd5b60006128a3848285016125df565b91505092915050565b600080604083850312156128bf57600080fd5b60006128cd858286016125df565b92505060206128de858286016125df565b9150509250929050565b60006128f48383612917565b60208301905092915050565b61291161290c826136ad565b613775565b82525050565b6129208161369b565b82525050565b61292f8161369b565b82525050565b60006129408261364b565b61294a8185613679565b935061295583613626565b8060005b8381101561298657815161296d88826128e8565b97506129788361366c565b925050600181019050612959565b5085935050505092915050565b61299c816136bf565b82525050565b6129ab81613721565b82525050565b60006129bc82613661565b6129c6818561368a565b93506129d6818560208601613742565b6129df816137a3565b840191505092915050565b60006129f582613656565b6129ff818561368a565b9350612a0f818560208601613742565b612a18816137a3565b840191505092915050565b600081546001811660008114612a405760018114612a6657612aaa565b607f6002830416612a51818761368a565b955060ff198316865260208601935050612aaa565b60028204612a74818761368a565b9550612a7f85613636565b60005b82811015612aa157815481890152600182019150602081019050612a82565b80880195505050505b505092915050565b6000612abf602f8361368a565b91507f416e696d616c20616c726561647920636f75706c656420696e2074686520707260008301527f6576696f75732036206d6f6e74687300000000000000000000000000000000006020830152604082019050919050565b6000612b2560268361368a565b91507f4f776e61626c653a206e6577206f776e657220697320746865207a65726f206160008301527f64647265737300000000000000000000000000000000000000000000000000006020830152604082019050919050565b6000612b8b601b8361368a565b91507f536166654d6174683a206164646974696f6e206f766572666c6f7700000000006000830152602082019050919050565b6000612bcb60248361368a565b91507f4552433732313a207472616e7366657220746f20746865207a65726f2061646460008301527f72657373000000000000000000000000000000000000000000000000000000006020830152604082019050919050565b6000612c3160198361368a565b91507f4552433732313a20617070726f766520746f2063616c6c6572000000000000006000830152602082019050919050565b6000612c71602c8361368a565b91507f4552433732313a206f70657261746f7220717565727920666f72206e6f6e657860008301527f697374656e7420746f6b656e00000000000000000000000000000000000000006020830152604082019050919050565b6000612cd760388361368a565b91507f4552433732313a20617070726f76652063616c6c6572206973206e6f74206f7760008301527f6e6572206e6f7220617070726f76656420666f7220616c6c00000000000000006020830152604082019050919050565b6000612d3d602a8361368a565b91507f4552433732313a2062616c616e636520717565727920666f7220746865207a6560008301527f726f2061646472657373000000000000000000000000000000000000000000006020830152604082019050919050565b6000612da360298361368a565b91507f4552433732313a206f776e657220717565727920666f72206e6f6e657869737460008301527f656e7420746f6b656e00000000000000000000000000000000000000000000006020830152604082019050919050565b6000612e09601a8361368a565b91507f416e696d616c20746f6f20796f756e6720746f20636f75706c650000000000006000830152602082019050919050565b6000612e49602c8361368a565b91507f4552433732313a20617070726f76656420717565727920666f72206e6f6e657860008301527f697374656e7420746f6b656e00000000000000000000000000000000000000006020830152604082019050919050565b6000612eaf60208361368a565b91507f4f776e61626c653a2063616c6c6572206973206e6f7420746865206f776e65726000830152602082019050919050565b6000612eef60218361368a565b91507f596f7520617265206e6f74206465636c6172696e6720796f757220616e696d6160008301527f6c000000000000000000000000000000000000000000000000000000000000006020830152604082019050919050565b6000612f5560298361368a565b91507f4552433732313a207472616e73666572206f6620746f6b656e2074686174206960008301527f73206e6f74206f776e00000000000000000000000000000000000000000000006020830152604082019050919050565b6000612fbb60218361368a565b91507f4552433732313a20617070726f76616c20746f2063757272656e74206f776e6560008301527f72000000000000000000000000000000000000000000000000000000000000006020830152604082019050919050565b600061302160008361368a565b9150600082019050919050565b600061303b60318361368a565b91507f4552433732313a207472616e736665722063616c6c6572206973206e6f74206f60008301527f776e6572206e6f7220617070726f7665640000000000000000000000000000006020830152604082019050919050565b61309d81613717565b82525050565b6130b46130af82613717565b613799565b82525050565b60006130c682866130a3565b6020820191506130d68285612900565b6014820191506130e682846130a3565b602082019150819050949350505050565b600060208201905061310c6000830184612926565b92915050565b6000602082019050818103600083015261312c8184612935565b905092915050565b60006020820190506131496000830184612993565b92915050565b6000602082019050818103600083015261316981846129ea565b905092915050565b6000602082019050818103600083015261318b81846129b1565b905092915050565b600060e08201905081810360008301526131ad818a6129ea565b905081810360208301526131c181896129ea565b90506131d06040830188613094565b6131dd6060830187613094565b81810360808301526131ef81866129ea565b90506131fe60a0830185613094565b61320b60c0830184613094565b98975050505050505050565b6000602082019050818103600083015261323081612ab2565b9050919050565b6000602082019050818103600083015261325081612b18565b9050919050565b6000602082019050818103600083015261327081612b7e565b9050919050565b6000602082019050818103600083015261329081612bbe565b9050919050565b600060208201905081810360008301526132b081612c24565b9050919050565b600060208201905081810360008301526132d081612c64565b9050919050565b600060208201905081810360008301526132f081612cca565b9050919050565b6000602082019050818103600083015261331081612d30565b9050919050565b6000602082019050818103600083015261333081612d96565b9050919050565b6000602082019050818103600083015261335081612dfc565b9050919050565b6000602082019050818103600083015261337081612e3c565b9050919050565b6000602082019050818103600083015261339081612ea2565b9050919050565b600060208201905081810360008301526133b081612ee2565b9050919050565b600060208201905081810360008301526133d081612f48565b9050919050565b600060208201905081810360008301526133f081612fae565b9050919050565b6000602082019050818103600083015261341081613014565b9050919050565b600060208201905081810360008301526134308161302e565b9050919050565b600060208201905061344c6000830184613094565b92915050565b600061010082019050613468600083018b613094565b818103602083015261347a818a6129b1565b9050818103604083015261348e81896129b1565b905061349d6060830188613094565b6134aa60808301876129a2565b81810360a08301526134bc81866129b1565b90506134cb60c08301856129a2565b6134d860e08301846129a2565b9998505050505050505050565b6000610100820190506134fb600083018b613094565b818103602083015261350d818a612a23565b905081810360408301526135218189612a23565b90506135306060830188613094565b61353d6080830187613094565b81810360a083015261354f8186612a23565b905061355e60c0830185613094565b61356b60e0830184613094565b9998505050505050505050565b600060408201905061358d6000830185613094565b61359a6020830184613094565b9392505050565b6000604051905081810181811067ffffffffffffffff821117156135c457600080fd5b8060405250919050565b600067ffffffffffffffff8211156135e557600080fd5b601f19601f8301169050602081019050919050565b600067ffffffffffffffff82111561361157600080fd5b601f19601f8301169050602081019050919050565b6000819050602082019050919050565b60008190508160005260206000209050919050565b600081519050919050565b600081519050919050565b600081519050919050565b6000602082019050919050565b600082825260208201905092915050565b600082825260208201905092915050565b60006136a6826136f7565b9050919050565b60006136b8826136f7565b9050919050565b60008115159050919050565b60007fffffffff0000000000000000000000000000000000000000000000000000000082169050919050565b600073ffffffffffffffffffffffffffffffffffffffff82169050919050565b6000819050919050565b600061372c82613717565b9050919050565b82818337600083830152505050565b60005b83811015613760578082015181840152602081019050613745565b8381111561376f576000848401525b50505050565b600061378082613787565b9050919050565b6000613792826137b4565b9050919050565b6000819050919050565b6000601f19601f8301169050919050565b60008160601b9050919050565b6137ca8161369b565b81146137d557600080fd5b50565b6137e1816136bf565b81146137ec57600080fd5b50565b6137f8816136cb565b811461380357600080fd5b50565b61380f81613717565b811461381a57600080fd5b5056fea2646970667358221220d0371cf3962e649ff4536e9f00919d19a8a775696e20f534efa5fe6647ec946564736f6c63430006000033",
  "source": "pragma solidity >= 0.5.0;\npragma experimental ABIEncoderV2;\n\nimport \"./ERC721.sol\";\nimport \"./Ownable.sol\";\n\ncontract Breeding is ERC721, Ownable {\n\nstruct Animal{\n    string species;\n    string name;\n    uint age;\n    uint readyTime;\n    string color;\n    uint winCount;\n    uint lossCount;\n}\n\nAnimal[] public animals;\nuint id = 0;\naddress[] public Owners;\nstring[] public colors = [\"grey\",\"red\",\"blue\",\"white\",\"brown\",\"black\"];\nuint randNonce = 0;\nmapping(uint => address) animalToOwner;\nmapping(address => uint) ownerAnimalCount;\nmapping(string => uint) ColorToId;\n\nevent NewAnimal(uint Id, string _species, string _name, uint age, uint _readyTime, string _color,uint winCount, uint lossCount);\nevent DeadAnimal(uint Id, string _species, string _name, uint age, uint _readyTime, string _color,uint winCount, uint lossCount);\nevent BreedAnimal(uint Id1, uint Id2);\n\n/*function AnimalsByOwner(address _owner) public view returns(Animal[] memory) {\n    Animal memory cat = Animal(\"cat\", \"felix\", 2, 2, \"red\", 0, 0);\n    Animal[] memory Breeds;\n    Breeds.push(cat);\n    for (uint32 i = 1; i < animals.length; i++) {\n        if (animalToOwner[i] == _owner) {\n            Breeds.push(animals[i]);\n            return Breeds;\n        }\n    }\n\n}*/\n\nfunction declareAnimal(address _owner, string memory _species, uint _age, string memory _name, string memory _color) public {\n    require(msg.sender == _owner, \"You are not declaring your animal\");\n    Animal memory newAnimal = Animal(_species, _name, _age, 1 seconds, _color, 0, 0);\n    ownerAnimalCount[msg.sender] = ownerAnimalCount[msg.sender].add(1);\n    animals.push(newAnimal);\n    id = id.add(1);\n    animalToOwner[id] = msg.sender;\n    emit NewAnimal(id, _species, _name, _age, 0, _color, 0, 0);\n}\n\nfunction deadAnimal(uint _animalId) public {\n    address _owner = animalToOwner[_animalId];\n    ownerAnimalCount[_owner] = ownerAnimalCount[_owner].sub(1);\n    delete(animals[_animalId]);\n    emit DeadAnimal(_animalId, animals[_animalId].species, animals[_animalId].name, animals[_animalId].age,\n    animals[_animalId].readyTime, animals[_animalId].color, animals[_animalId].winCount, animals[_animalId].lossCount);\n}\n\nfunction randMod(uint _modulus) internal returns(uint) {\n    randNonce = randNonce.add(1);\n    return uint(keccak256(abi.encodePacked(block.timestamp, msg.sender, randNonce))) % _modulus;\n  }\n\nfunction breedAnimal(uint _animalId1, uint _animalId2) public\nReadyToBreed(_animalId1) ReadyToBreed(_animalId2) OwnerOf(_animalId1) OwnerOf(_animalId2){\n    uint rand = randMod(2);\n    string memory _color;\n    if (rand == 1){\n        _color = animals[_animalId1].color;\n    }\n    else {\n        _color = animals[_animalId2].color;\n    }\n    emit BreedAnimal(_animalId1, _animalId2);\n    declareAnimal(animalToOwner[_animalId1], animals[_animalId1].species,1 seconds, animals[_animalId1].name, _color);\n    animals[_animalId2].readyTime = 1 seconds;\n    animals[_animalId1].readyTime = 1 seconds;\n\n\n}\n\nmodifier ReadyToBreed(uint _animalId) {\n    require(animals[_animalId].age >= 2, \"Animal too young to couple\");\n    require(animals[_animalId].readyTime >= 1, \"Animal already coupled in the previous 6 months\");\n    _;\n}\n\nfunction registerOwner( address _owner ) public {\n    Owners.push(_owner);\n}\n\nmodifier onlyRegistered() {\n    require(isOwner(),\"You are not an owner\");\n    _;\n}\n\nmodifier OwnerOf(uint _animalId) {\n    require(msg.sender == animalToOwner[_animalId],\"\");\n    _;\n  }\n\nfunction getOwner() public view returns(address[] memory){\n    return Owners;\n}\n\n\n\n}",
  "sourcePath": "C:\\Users\\torta\\OneDrive\\Documents\\ESILV\\Semestre 2\\Blockchain Programming\\OPEN ZEPPELIN\\node_modules\\@openzeppelin\\TD6-ERC721\\contracts\\Breeding.sol",
  "compiler": {
    "name": "solc",
    "version": "0.6.0+commit.26b70077.Emscripten.clang"
  },
  "schemaVersion": "3.0.23",
  "updatedAt": "2020-03-11T14:16:39.923Z",
  "devdoc": {
    "methods": {
      "approve(address,uint256)": {
        "details": "Approves another address to transfer the given token ID The zero address indicates there is no approved address. There can only be one approved address per token at a given time. Can only be called by the token owner or an approved operator.",
        "params": {
          "to": "address to be approved for the given token ID",
          "tokenId": "uint256 ID of the token to be approved"
        }
      },
      "balanceOf(address)": {
        "details": "Gets the balance of the specified address.",
        "params": {
          "owner": "address to query the balance of"
        },
        "returns": {
          "_0": "uint256 representing the amount owned by the passed address"
        }
      },
      "getApproved(uint256)": {
        "details": "Gets the approved address for a token ID, or zero if no address set Reverts if the token ID does not exist.",
        "params": {
          "tokenId": "uint256 ID of the token to query the approval of"
        },
        "returns": {
          "_0": "address currently approved for the given token ID"
        }
      },
      "isApprovedForAll(address,address)": {
        "details": "Tells whether an operator is approved by a given owner.",
        "params": {
          "operator": "operator address which you want to query the approval of",
          "owner": "owner address which you want to query the approval of"
        },
        "returns": {
          "_0": "bool whether the given operator is approved by the given owner"
        }
      },
      "isOwner()": {
        "details": "Returns true if the caller is the current owner."
      },
      "owner()": {
        "details": "Returns the address of the current owner."
      },
      "ownerOf(uint256)": {
        "details": "Gets the owner of the specified token ID.",
        "params": {
          "tokenId": "uint256 ID of the token to query the owner of"
        },
        "returns": {
          "_0": "address currently marked as the owner of the given token ID"
        }
      },
      "renounceOwnership()": {
        "details": "Leaves the contract without owner. It will not be possible to call `onlyOwner` functions anymore. Can only be called by the current owner.     * NOTE: Renouncing ownership will leave the contract without an owner, thereby removing any functionality that is only available to the owner."
      },
      "safeTransferFrom(address,address,uint256)": {
        "details": "Safely transfers the ownership of a given token ID to another address If the target address is a contract, it must implement {IERC721Receiver-onERC721Received}, which is called upon a safe transfer, and return the magic value `bytes4(keccak256(\"onERC721Received(address,address,uint256,bytes)\"))`; otherwise, the transfer is reverted. Requires the msg.sender to be the owner, approved, or operator",
        "params": {
          "from": "current owner of the token",
          "to": "address to receive the ownership of the given token ID",
          "tokenId": "uint256 ID of the token to be transferred"
        }
      },
      "safeTransferFrom(address,address,uint256,bytes)": {
        "details": "Safely transfers the ownership of a given token ID to another address If the target address is a contract, it must implement {IERC721Receiver-onERC721Received}, which is called upon a safe transfer, and return the magic value `bytes4(keccak256(\"onERC721Received(address,address,uint256,bytes)\"))`; otherwise, the transfer is reverted. Requires the _msgSender() to be the owner, approved, or operator",
        "params": {
          "_data": "bytes data to send along with a safe transfer check",
          "from": "current owner of the token",
          "to": "address to receive the ownership of the given token ID",
          "tokenId": "uint256 ID of the token to be transferred"
        }
      },
      "setApprovalForAll(address,bool)": {
        "details": "Sets or unsets the approval of a given operator An operator is allowed to transfer all tokens of the sender on their behalf.",
        "params": {
          "approved": "representing the status of the approval to be set",
          "to": "operator address to set the approval"
        }
      },
      "supportsInterface(bytes4)": {
        "details": "See {IERC165-supportsInterface}.     * Time complexity O(1), guaranteed to always use less than 30 000 gas."
      },
      "transferFrom(address,address,uint256)": {
        "details": "Transfers the ownership of a given token ID to another address. Usage of this method is discouraged, use {safeTransferFrom} whenever possible. Requires the msg.sender to be the owner, approved, or operator.",
        "params": {
          "from": "current owner of the token",
          "to": "address to receive the ownership of the given token ID",
          "tokenId": "uint256 ID of the token to be transferred"
        }
      },
      "transferOwnership(address)": {
        "details": "Transfers ownership of the contract to a new account (`newOwner`). Can only be called by the current owner."
      }
    }
  },
  "userdoc": {
    "methods": {}
  }
}