{
  "contractName": "Breeding",
  "abi": [
    {
      "anonymous": false,
      "inputs": [
        {
          "indexed": true,
          "internalType": "address",
          "name": "owner",
          "type": "address"
        },
        {
          "indexed": true,
          "internalType": "address",
          "name": "approved",
          "type": "address"
        },
        {
          "indexed": true,
          "internalType": "uint256",
          "name": "tokenId",
          "type": "uint256"
        }
      ],
      "name": "Approval",
      "type": "event"
    },
    {
      "anonymous": false,
      "inputs": [
        {
          "indexed": true,
          "internalType": "address",
          "name": "owner",
          "type": "address"
        },
        {
          "indexed": true,
          "internalType": "address",
          "name": "operator",
          "type": "address"
        },
        {
          "indexed": false,
          "internalType": "bool",
          "name": "approved",
          "type": "bool"
        }
      ],
      "name": "ApprovalForAll",
      "type": "event"
    },
    {
      "anonymous": false,
      "inputs": [
        {
          "indexed": false,
          "internalType": "uint256",
          "name": "Id1",
          "type": "uint256"
        },
        {
          "indexed": false,
          "internalType": "uint256",
          "name": "Id2",
          "type": "uint256"
        }
      ],
      "name": "BreedAnimal",
      "type": "event"
    },
    {
      "anonymous": false,
      "inputs": [
        {
          "indexed": false,
          "internalType": "uint256",
          "name": "Id",
          "type": "uint256"
        },
        {
          "indexed": false,
          "internalType": "string",
          "name": "_species",
          "type": "string"
        },
        {
          "indexed": false,
          "internalType": "string",
          "name": "_name",
          "type": "string"
        },
        {
          "indexed": false,
          "internalType": "uint256",
          "name": "age",
          "type": "uint256"
        },
        {
          "indexed": false,
          "internalType": "uint256",
          "name": "_readyTime",
          "type": "uint256"
        },
        {
          "indexed": false,
          "internalType": "string",
          "name": "_color",
          "type": "string"
        },
        {
          "indexed": false,
          "internalType": "uint256",
          "name": "winCount",
          "type": "uint256"
        },
        {
          "indexed": false,
          "internalType": "uint256",
          "name": "lossCount",
          "type": "uint256"
        }
      ],
      "name": "DeadAnimal",
      "type": "event"
    },
    {
      "anonymous": false,
      "inputs": [
        {
          "indexed": false,
          "internalType": "uint256",
          "name": "Id",
          "type": "uint256"
        },
        {
          "indexed": false,
          "internalType": "string",
          "name": "_species",
          "type": "string"
        },
        {
          "indexed": false,
          "internalType": "string",
          "name": "_name",
          "type": "string"
        },
        {
          "indexed": false,
          "internalType": "uint256",
          "name": "age",
          "type": "uint256"
        },
        {
          "indexed": false,
          "internalType": "uint256",
          "name": "_readyTime",
          "type": "uint256"
        },
        {
          "indexed": false,
          "internalType": "string",
          "name": "_color",
          "type": "string"
        },
        {
          "indexed": false,
          "internalType": "uint256",
          "name": "winCount",
          "type": "uint256"
        },
        {
          "indexed": false,
          "internalType": "uint256",
          "name": "lossCount",
          "type": "uint256"
        }
      ],
      "name": "NewAnimal",
      "type": "event"
    },
    {
      "anonymous": false,
      "inputs": [
        {
          "indexed": true,
          "internalType": "address",
          "name": "from",
          "type": "address"
        },
        {
          "indexed": true,
          "internalType": "address",
          "name": "to",
          "type": "address"
        },
        {
          "indexed": true,
          "internalType": "uint256",
          "name": "tokenId",
          "type": "uint256"
        }
      ],
      "name": "Transfer",
      "type": "event"
    },
    {
      "inputs": [
        {
          "internalType": "uint256",
          "name": "",
          "type": "uint256"
        }
      ],
      "name": "Owners",
      "outputs": [
        {
          "internalType": "address",
          "name": "",
          "type": "address"
        }
      ],
      "stateMutability": "view",
      "type": "function",
      "constant": true
    },
    {
      "inputs": [
        {
          "internalType": "uint256",
          "name": "",
          "type": "uint256"
        }
      ],
      "name": "animals",
      "outputs": [
        {
          "internalType": "string",
          "name": "species",
          "type": "string"
        },
        {
          "internalType": "string",
          "name": "name",
          "type": "string"
        },
        {
          "internalType": "uint256",
          "name": "age",
          "type": "uint256"
        },
        {
          "internalType": "uint256",
          "name": "readyTime",
          "type": "uint256"
        },
        {
          "internalType": "string",
          "name": "color",
          "type": "string"
        },
        {
          "internalType": "uint256",
          "name": "winCount",
          "type": "uint256"
        },
        {
          "internalType": "uint256",
          "name": "lossCount",
          "type": "uint256"
        }
      ],
      "stateMutability": "view",
      "type": "function",
      "constant": true
    },
    {
      "inputs": [
        {
          "internalType": "address",
          "name": "to",
          "type": "address"
        },
        {
          "internalType": "uint256",
          "name": "tokenId",
          "type": "uint256"
        }
      ],
      "name": "approve",
      "outputs": [],
      "stateMutability": "nonpayable",
      "type": "function"
    },
    {
      "inputs": [
        {
          "internalType": "address",
          "name": "owner",
          "type": "address"
        }
      ],
      "name": "balanceOf",
      "outputs": [
        {
          "internalType": "uint256",
          "name": "",
          "type": "uint256"
        }
      ],
      "stateMutability": "view",
      "type": "function",
      "constant": true
    },
    {
      "inputs": [
        {
          "internalType": "uint256",
          "name": "",
          "type": "uint256"
        }
      ],
      "name": "colors",
      "outputs": [
        {
          "internalType": "string",
          "name": "",
          "type": "string"
        }
      ],
      "stateMutability": "view",
      "type": "function",
      "constant": true
    },
    {
      "inputs": [
        {
          "internalType": "uint256",
          "name": "tokenId",
          "type": "uint256"
        }
      ],
      "name": "getApproved",
      "outputs": [
        {
          "internalType": "address",
          "name": "",
          "type": "address"
        }
      ],
      "stateMutability": "view",
      "type": "function",
      "constant": true
    },
    {
      "inputs": [
        {
          "internalType": "address",
          "name": "owner",
          "type": "address"
        },
        {
          "internalType": "address",
          "name": "operator",
          "type": "address"
        }
      ],
      "name": "isApprovedForAll",
      "outputs": [
        {
          "internalType": "bool",
          "name": "",
          "type": "bool"
        }
      ],
      "stateMutability": "view",
      "type": "function",
      "constant": true
    },
    {
      "inputs": [
        {
          "internalType": "uint256",
          "name": "tokenId",
          "type": "uint256"
        }
      ],
      "name": "ownerOf",
      "outputs": [
        {
          "internalType": "address",
          "name": "",
          "type": "address"
        }
      ],
      "stateMutability": "view",
      "type": "function",
      "constant": true
    },
    {
      "inputs": [
        {
          "internalType": "address",
          "name": "from",
          "type": "address"
        },
        {
          "internalType": "address",
          "name": "to",
          "type": "address"
        },
        {
          "internalType": "uint256",
          "name": "tokenId",
          "type": "uint256"
        }
      ],
      "name": "safeTransferFrom",
      "outputs": [],
      "stateMutability": "nonpayable",
      "type": "function"
    },
    {
      "inputs": [
        {
          "internalType": "address",
          "name": "from",
          "type": "address"
        },
        {
          "internalType": "address",
          "name": "to",
          "type": "address"
        },
        {
          "internalType": "uint256",
          "name": "tokenId",
          "type": "uint256"
        },
        {
          "internalType": "bytes",
          "name": "_data",
          "type": "bytes"
        }
      ],
      "name": "safeTransferFrom",
      "outputs": [],
      "stateMutability": "nonpayable",
      "type": "function"
    },
    {
      "inputs": [
        {
          "internalType": "address",
          "name": "to",
          "type": "address"
        },
        {
          "internalType": "bool",
          "name": "approved",
          "type": "bool"
        }
      ],
      "name": "setApprovalForAll",
      "outputs": [],
      "stateMutability": "nonpayable",
      "type": "function"
    },
    {
      "inputs": [
        {
          "internalType": "bytes4",
          "name": "interfaceId",
          "type": "bytes4"
        }
      ],
      "name": "supportsInterface",
      "outputs": [
        {
          "internalType": "bool",
          "name": "",
          "type": "bool"
        }
      ],
      "stateMutability": "view",
      "type": "function",
      "constant": true
    },
    {
      "inputs": [
        {
          "internalType": "address",
          "name": "from",
          "type": "address"
        },
        {
          "internalType": "address",
          "name": "to",
          "type": "address"
        },
        {
          "internalType": "uint256",
          "name": "tokenId",
          "type": "uint256"
        }
      ],
      "name": "transferFrom",
      "outputs": [],
      "stateMutability": "nonpayable",
      "type": "function"
    },
    {
      "inputs": [
        {
          "internalType": "address",
          "name": "_owner",
          "type": "address"
        }
      ],
      "name": "AnimalsByOwner",
      "outputs": [
        {
          "components": [
            {
              "internalType": "string",
              "name": "species",
              "type": "string"
            },
            {
              "internalType": "string",
              "name": "name",
              "type": "string"
            },
            {
              "internalType": "uint256",
              "name": "age",
              "type": "uint256"
            },
            {
              "internalType": "uint256",
              "name": "readyTime",
              "type": "uint256"
            },
            {
              "internalType": "string",
              "name": "color",
              "type": "string"
            },
            {
              "internalType": "uint256",
              "name": "winCount",
              "type": "uint256"
            },
            {
              "internalType": "uint256",
              "name": "lossCount",
              "type": "uint256"
            }
          ],
          "internalType": "struct Breeding.Animal[]",
          "name": "",
          "type": "tuple[]"
        }
      ],
      "stateMutability": "view",
      "type": "function",
      "constant": true
    },
    {
      "inputs": [
        {
          "internalType": "string",
          "name": "_species",
          "type": "string"
        },
        {
          "internalType": "uint256",
          "name": "_age",
          "type": "uint256"
        },
        {
          "internalType": "string",
          "name": "_name",
          "type": "string"
        },
        {
          "internalType": "string",
          "name": "_color",
          "type": "string"
        }
      ],
      "name": "declareAnimal",
      "outputs": [],
      "stateMutability": "nonpayable",
      "type": "function"
    },
    {
      "inputs": [
        {
          "internalType": "uint256",
          "name": "_animalId",
          "type": "uint256"
        }
      ],
      "name": "deadAnimal",
      "outputs": [],
      "stateMutability": "nonpayable",
      "type": "function"
    },
    {
      "inputs": [
        {
          "internalType": "address",
          "name": "_owner",
          "type": "address"
        }
      ],
      "name": "registerOwner",
      "outputs": [],
      "stateMutability": "nonpayable",
      "type": "function"
    },
    {
      "inputs": [],
      "name": "getOwner",
      "outputs": [
        {
          "internalType": "address[]",
          "name": "",
          "type": "address[]"
        }
      ],
      "stateMutability": "nonpayable",
      "type": "function"
    }
  ],
  "bytecode": "0x608060405260006006556040518060c001604052806040518060400160405280600481526020017f677265790000000000000000000000000000000000000000000000000000000081525081526020016040518060400160405280600381526020017f726564000000000000000000000000000000000000000000000000000000000081525081526020016040518060400160405280600481526020017f626c75650000000000000000000000000000000000000000000000000000000081525081526020016040518060400160405280600581526020017f776869746500000000000000000000000000000000000000000000000000000081525081526020016040518060400160405280600581526020017f62726f776e00000000000000000000000000000000000000000000000000000081525081526020016040518060400160405280600581526020017f626c61636b0000000000000000000000000000000000000000000000000000008152508152506008906006620001869291906200029a565b506000600955620001a46301ffc9a760e01b620001c260201b60201c565b620001bc6380ac58cd60e01b620001c260201b60201c565b620004a2565b63ffffffff60e01b817bffffffffffffffffffffffffffffffffffffffffffffffffffffffff191614156200022e576040517f08c379a000000000000000000000000000000000000000000000000000000000815260040162000225906200046f565b60405180910390fd5b6001600080837bffffffffffffffffffffffffffffffffffffffffffffffffffffffff19167bffffffffffffffffffffffffffffffffffffffffffffffffffffffff1916815260200190815260200160002060006101000a81548160ff02191690831515021790555050565b828054828255906000526020600020908101928215620002ee579160200282015b82811115620002ed578251829080519060200190620002dc92919062000301565b5091602001919060010190620002bb565b5b509050620002fd919062000388565b5090565b828054600181600116156101000203166002900490600052602060002090601f016020900481019282601f106200034457805160ff191683800117855562000375565b8280016001018555821562000375579182015b828111156200037457825182559160200191906001019062000357565b5b509050620003849190620003b9565b5090565b620003b691905b80821115620003b25760008181620003a89190620003e1565b506001016200038f565b5090565b90565b620003de91905b80821115620003da576000816000905550600101620003c0565b5090565b90565b50805460018160011615610100020316600290046000825580601f106200040957506200042a565b601f016020900490600052602060002090810190620004299190620003b9565b5b50565b60006200043c601c8362000491565b91507f4552433136353a20696e76616c696420696e74657266616365206964000000006000830152602082019050919050565b600060208201905081810360008301526200048a816200042d565b9050919050565b600082825260208201905092915050565b612c3380620004b26000396000f3fe608060405234801561001057600080fd5b50600436106100e65760003560e01c806301ffc9a7146100eb578063081812fc1461011b578063095ea7b31461014b5780631220c6ed1461016757806323b872dd1461018357806342842e0e1461019f5780636352211e146101bb57806367aeb262146101eb57806370a082311461021b578063878daf9f1461024b578063893d20e8146102675780638a1ce90814610285578063998dd3ca146102b5578063a22cb465146102eb578063b88d4fde14610307578063bd11f69d14610323578063e985e9c514610353578063ec9b6db914610383575b600080fd5b61010560048036036101009190810190611d51565b61039f565b6040516101129190612600565b60405180910390f35b61013560048036036101309190810190611e25565b610406565b60405161014291906125a1565b60405180910390f35b61016560048036036101609190810190611d15565b61048b565b005b610181600480360361017c9190810190611baa565b610646565b005b61019d60048036036101989190810190611c0f565b6106ac565b005b6101b960048036036101b49190810190611c0f565b61070c565b005b6101d560048036036101d09190810190611e25565b61072c565b6040516101e291906125a1565b60405180910390f35b61020560048036036102009190810190611baa565b6107de565b60405161021291906125de565b60405180910390f35b61023560048036036102309190810190611baa565b610886565b6040516102429190612843565b60405180910390f35b61026560048036036102609190810190611d7a565b610945565b005b61026f610b88565b60405161027c91906125bc565b60405180910390f35b61029f600480360361029a9190810190611e25565b610c16565b6040516102ac91906125a1565b60405180910390f35b6102cf60048036036102ca9190810190611e25565b610c52565b6040516102e2979695949392919061265f565b60405180910390f35b61030560048036036103009190810190611cd9565b610e69565b005b610321600480360361031c9190810190611c5e565b610fea565b005b61033d60048036036103389190810190611e25565b61104c565b60405161034a919061261b565b60405180910390f35b61036d60048036036103689190810190611bd3565b611105565b60405161037a9190612600565b60405180910390f35b61039d60048036036103989190810190611e25565b611199565b005b6000806000837bffffffffffffffffffffffffffffffffffffffffffffffffffffffff19167bffffffffffffffffffffffffffffffffffffffffffffffffffffffff1916815260200190815260200160002060009054906101000a900460ff169050919050565b6000610411826113ed565b610450576040517f08c379a0000000000000000000000000000000000000000000000000000000008152600401610447906127c3565b60405180910390fd5b6002600083815260200190815260200160002060009054906101000a900473ffffffffffffffffffffffffffffffffffffffff169050919050565b60006104968261072c565b90508073ffffffffffffffffffffffffffffffffffffffff168373ffffffffffffffffffffffffffffffffffffffff161415610507576040517f08c379a00000000000000000000000000000000000000000000000000000000081526004016104fe90612803565b60405180910390fd5b8073ffffffffffffffffffffffffffffffffffffffff1661052661145f565b73ffffffffffffffffffffffffffffffffffffffff16148061055557506105548161054f61145f565b611105565b5b610594576040517f08c379a000000000000000000000000000000000000000000000000000000000815260040161058b90612763565b60405180910390fd5b826002600084815260200190815260200160002060006101000a81548173ffffffffffffffffffffffffffffffffffffffff021916908373ffffffffffffffffffffffffffffffffffffffff160217905550818373ffffffffffffffffffffffffffffffffffffffff168273ffffffffffffffffffffffffffffffffffffffff167f8c5be1e5ebec7d5bd14f71427d1e84f3dd0314c0f7b2291e5b200ac8c7c3b92560405160405180910390a4505050565b6007819080600181540180825580915050600190039060005260206000200160009091909190916101000a81548173ffffffffffffffffffffffffffffffffffffffff021916908373ffffffffffffffffffffffffffffffffffffffff16021790555050565b6106bd6106b761145f565b82611467565b6106fc576040517f08c379a00000000000000000000000000000000000000000000000000000000081526004016106f390612823565b60405180910390fd5b610707838383611545565b505050565b61072783838360405180602001604052806000815250610fea565b505050565b6000806001600084815260200190815260200160002060009054906101000a900473ffffffffffffffffffffffffffffffffffffffff169050600073ffffffffffffffffffffffffffffffffffffffff168173ffffffffffffffffffffffffffffffffffffffff1614156107d5576040517f08c379a00000000000000000000000000000000000000000000000000000000081526004016107cc906127a3565b60405180910390fd5b80915050919050565b60608060008090505b6005805490508163ffffffff16101561087e578373ffffffffffffffffffffffffffffffffffffffff16600a60008363ffffffff16815260200190815260200160002060009054906101000a900473ffffffffffffffffffffffffffffffffffffffff1673ffffffffffffffffffffffffffffffffffffffff161415610871578192505050610881565b80806001019150506107e7565b50505b919050565b60008073ffffffffffffffffffffffffffffffffffffffff168273ffffffffffffffffffffffffffffffffffffffff1614156108f7576040517f08c379a00000000000000000000000000000000000000000000000000000000081526004016108ee90612783565b60405180910390fd5b61093e600360008473ffffffffffffffffffffffffffffffffffffffff1673ffffffffffffffffffffffffffffffffffffffff168152602001908152602001600020611774565b9050919050565b61094d611984565b6040518060e001604052808681526020018481526020018581526020016001815260200183815260200160008152602001600081525090506109d86001600b60003373ffffffffffffffffffffffffffffffffffffffff1673ffffffffffffffffffffffffffffffffffffffff1681526020019081526020016000205461178290919063ffffffff16565b600b60003373ffffffffffffffffffffffffffffffffffffffff1673ffffffffffffffffffffffffffffffffffffffff1681526020019081526020016000208190555060058190806001815401808255809150506001900390600052602060002090600702016000909190919091506000820151816000019080519060200190610a639291906119c1565b506020820151816001019080519060200190610a809291906119c1565b5060408201518160020155606082015181600301556080820151816004019080519060200190610ab19291906119c1565b5060a0820151816005015560c082015181600601555050610ade600160065461178290919063ffffffff16565b60068190555033600a6000600654815260200190815260200160002060006101000a81548173ffffffffffffffffffffffffffffffffffffffff021916908373ffffffffffffffffffffffffffffffffffffffff1602179055507f2ed0a6a4f66e6a39321eb2bbd734537cacdbc5aec9e3686afdb9a5c1bbdb1b27600654868587600087600080604051610b7998979695949392919061285e565b60405180910390a15050505050565b60606007805480602002602001604051908101604052809291908181526020018280548015610c0c57602002820191906000526020600020905b8160009054906101000a900473ffffffffffffffffffffffffffffffffffffffff1673ffffffffffffffffffffffffffffffffffffffff1681526020019060010190808311610bc2575b5050505050905090565b60078181548110610c2357fe5b906000526020600020016000915054906101000a900473ffffffffffffffffffffffffffffffffffffffff1681565b60058181548110610c5f57fe5b9060005260206000209060070201600091509050806000018054600181600116156101000203166002900480601f016020809104026020016040519081016040528092919081815260200182805460018160011615610100020316600290048015610d0b5780601f10610ce057610100808354040283529160200191610d0b565b820191906000526020600020905b815481529060010190602001808311610cee57829003601f168201915b505050505090806001018054600181600116156101000203166002900480601f016020809104026020016040519081016040528092919081815260200182805460018160011615610100020316600290048015610da95780601f10610d7e57610100808354040283529160200191610da9565b820191906000526020600020905b815481529060010190602001808311610d8c57829003601f168201915b505050505090806002015490806003015490806004018054600181600116156101000203166002900480601f016020809104026020016040519081016040528092919081815260200182805460018160011615610100020316600290048015610e535780601f10610e2857610100808354040283529160200191610e53565b820191906000526020600020905b815481529060010190602001808311610e3657829003601f168201915b5050505050908060050154908060060154905087565b610e7161145f565b73ffffffffffffffffffffffffffffffffffffffff168273ffffffffffffffffffffffffffffffffffffffff161415610edf576040517f08c379a0000000000000000000000000000000000000000000000000000000008152600401610ed690612723565b60405180910390fd5b8060046000610eec61145f565b73ffffffffffffffffffffffffffffffffffffffff1673ffffffffffffffffffffffffffffffffffffffff16815260200190815260200160002060008473ffffffffffffffffffffffffffffffffffffffff1673ffffffffffffffffffffffffffffffffffffffff16815260200190815260200160002060006101000a81548160ff0219169083151502179055508173ffffffffffffffffffffffffffffffffffffffff16610f9961145f565b73ffffffffffffffffffffffffffffffffffffffff167f17307eab39ab6107e8899845ad3d59bd9653f200f220920489ca2b5937696c3183604051610fde9190612600565b60405180910390a35050565b610ffb610ff561145f565b83611467565b61103a576040517f08c379a000000000000000000000000000000000000000000000000000000000815260040161103190612823565b60405180910390fd5b611046848484846117d7565b50505050565b6008818154811061105957fe5b906000526020600020016000915090508054600181600116156101000203166002900480601f0160208091040260200160405190810160405280929190818152602001828054600181600116156101000203166002900480156110fd5780601f106110d2576101008083540402835291602001916110fd565b820191906000526020600020905b8154815290600101906020018083116110e057829003601f168201915b505050505081565b6000600460008473ffffffffffffffffffffffffffffffffffffffff1673ffffffffffffffffffffffffffffffffffffffff16815260200190815260200160002060008373ffffffffffffffffffffffffffffffffffffffff1673ffffffffffffffffffffffffffffffffffffffff16815260200190815260200160002060009054906101000a900460ff16905092915050565b6000600a600083815260200190815260200160002060009054906101000a900473ffffffffffffffffffffffffffffffffffffffff1690506112246001600b60008473ffffffffffffffffffffffffffffffffffffffff1673ffffffffffffffffffffffffffffffffffffffff168152602001908152602001600020546117e890919063ffffffff16565b600b60008373ffffffffffffffffffffffffffffffffffffffff1673ffffffffffffffffffffffffffffffffffffffff168152602001908152602001600020819055506005828154811061127457fe5b9060005260206000209060070201600080820160006112939190611a41565b6001820160006112a39190611a41565b600282016000905560038201600090556004820160006112c39190611a41565b6005820160009055600682016000905550507ff341316c37c0df80453d7a29598468138ffcfe7c833ec00e80ccc5772369905b826005848154811061130457fe5b90600052602060002090600702016000016005858154811061132257fe5b90600052602060002090600702016001016005868154811061134057fe5b9060005260206000209060070201600201546005878154811061135f57fe5b9060005260206000209060070201600301546005888154811061137e57fe5b90600052602060002090600702016004016005898154811061139c57fe5b90600052602060002090600702016005015460058a815481106113bb57fe5b9060005260206000209060070201600601546040516113e19897969594939291906128f1565b60405180910390a15050565b6000806001600084815260200190815260200160002060009054906101000a900473ffffffffffffffffffffffffffffffffffffffff169050600073ffffffffffffffffffffffffffffffffffffffff168173ffffffffffffffffffffffffffffffffffffffff161415915050919050565b600033905090565b6000611472826113ed565b6114b1576040517f08c379a00000000000000000000000000000000000000000000000000000000081526004016114a890612743565b60405180910390fd5b60006114bc8361072c565b90508073ffffffffffffffffffffffffffffffffffffffff168473ffffffffffffffffffffffffffffffffffffffff16148061152b57508373ffffffffffffffffffffffffffffffffffffffff1661151384610406565b73ffffffffffffffffffffffffffffffffffffffff16145b8061153c575061153b8185611105565b5b91505092915050565b8273ffffffffffffffffffffffffffffffffffffffff166115658261072c565b73ffffffffffffffffffffffffffffffffffffffff16146115bb576040517f08c379a00000000000000000000000000000000000000000000000000000000081526004016115b2906127e3565b60405180910390fd5b600073ffffffffffffffffffffffffffffffffffffffff168273ffffffffffffffffffffffffffffffffffffffff16141561162b576040517f08c379a000000000000000000000000000000000000000000000000000000000815260040161162290612703565b60405180910390fd5b61163481611832565b61167b600360008573ffffffffffffffffffffffffffffffffffffffff1673ffffffffffffffffffffffffffffffffffffffff1681526020019081526020016000206118f0565b6116c2600360008473ffffffffffffffffffffffffffffffffffffffff1673ffffffffffffffffffffffffffffffffffffffff168152602001908152602001600020611913565b816001600083815260200190815260200160002060006101000a81548173ffffffffffffffffffffffffffffffffffffffff021916908373ffffffffffffffffffffffffffffffffffffffff160217905550808273ffffffffffffffffffffffffffffffffffffffff168473ffffffffffffffffffffffffffffffffffffffff167fddf252ad1be2c89b69c2b068fc378daa952ba7f163c4a11628f55a4df523b3ef60405160405180910390a4505050565b600081600001549050919050565b6000808284019050838110156117cd576040517f08c379a00000000000000000000000000000000000000000000000000000000081526004016117c4906126e3565b60405180910390fd5b8091505092915050565b6117e2848484611545565b50505050565b600061182a83836040518060400160405280601e81526020017f536166654d6174683a207375627472616374696f6e206f766572666c6f770000815250611929565b905092915050565b600073ffffffffffffffffffffffffffffffffffffffff166002600083815260200190815260200160002060009054906101000a900473ffffffffffffffffffffffffffffffffffffffff1673ffffffffffffffffffffffffffffffffffffffff16146118ed5760006002600083815260200190815260200160002060006101000a81548173ffffffffffffffffffffffffffffffffffffffff021916908373ffffffffffffffffffffffffffffffffffffffff1602179055505b50565b611908600182600001546117e890919063ffffffff16565b816000018190555050565b6001816000016000828254019250508190555050565b6000838311158290611971576040517f08c379a0000000000000000000000000000000000000000000000000000000008152600401611968919061263d565b60405180910390fd5b5060008385039050809150509392505050565b6040518060e00160405280606081526020016060815260200160008152602001600081526020016060815260200160008152602001600081525090565b828054600181600116156101000203166002900490600052602060002090601f016020900481019282601f10611a0257805160ff1916838001178555611a30565b82800160010185558215611a30579182015b82811115611a2f578251825591602001919060010190611a14565b5b509050611a3d9190611a89565b5090565b50805460018160011615610100020316600290046000825580601f10611a675750611a86565b601f016020900490600052602060002090810190611a859190611a89565b5b50565b611aab91905b80821115611aa7576000816000905550600101611a8f565b5090565b90565b600081359050611abd81612ba1565b92915050565b600081359050611ad281612bb8565b92915050565b600081359050611ae781612bcf565b92915050565b600082601f830112611afe57600080fd5b8135611b11611b0c826129b1565b612984565b91508082526020830160208301858383011115611b2d57600080fd5b611b38838284612b4e565b50505092915050565b600082601f830112611b5257600080fd5b8135611b65611b60826129dd565b612984565b91508082526020830160208301858383011115611b8157600080fd5b611b8c838284612b4e565b50505092915050565b600081359050611ba481612be6565b92915050565b600060208284031215611bbc57600080fd5b6000611bca84828501611aae565b91505092915050565b60008060408385031215611be657600080fd5b6000611bf485828601611aae565b9250506020611c0585828601611aae565b9150509250929050565b600080600060608486031215611c2457600080fd5b6000611c3286828701611aae565b9350506020611c4386828701611aae565b9250506040611c5486828701611b95565b9150509250925092565b60008060008060808587031215611c7457600080fd5b6000611c8287828801611aae565b9450506020611c9387828801611aae565b9350506040611ca487828801611b95565b925050606085013567ffffffffffffffff811115611cc157600080fd5b611ccd87828801611aed565b91505092959194509250565b60008060408385031215611cec57600080fd5b6000611cfa85828601611aae565b9250506020611d0b85828601611ac3565b9150509250929050565b60008060408385031215611d2857600080fd5b6000611d3685828601611aae565b9250506020611d4785828601611b95565b9150509250929050565b600060208284031215611d6357600080fd5b6000611d7184828501611ad8565b91505092915050565b60008060008060808587031215611d9057600080fd5b600085013567ffffffffffffffff811115611daa57600080fd5b611db687828801611b41565b9450506020611dc787828801611b95565b935050604085013567ffffffffffffffff811115611de457600080fd5b611df087828801611b41565b925050606085013567ffffffffffffffff811115611e0d57600080fd5b611e1987828801611b41565b91505092959194509250565b600060208284031215611e3757600080fd5b6000611e4584828501611b95565b91505092915050565b6000611e5a8383611e7a565b60208301905092915050565b6000611e7283836124d9565b905092915050565b611e8381612ac8565b82525050565b611e9281612ac8565b82525050565b6000611ea382612a3e565b611ead8185612a84565b9350611eb883612a09565b8060005b83811015611ee9578151611ed08882611e4e565b9750611edb83612a6a565b925050600181019050611ebc565b5085935050505092915050565b6000611f0182612a49565b611f0b8185612a95565b935083602082028501611f1d85612a19565b8060005b85811015611f595784840389528151611f3a8582611e66565b9450611f4583612a77565b925060208a01995050600181019050611f21565b50829750879550505050505092915050565b611f7481612ada565b82525050565b611f8381612b3c565b82525050565b6000611f9482612a5f565b611f9e8185612ab7565b9350611fae818560208601612b5d565b611fb781612b90565b840191505092915050565b6000611fcd82612a54565b611fd78185612aa6565b9350611fe7818560208601612b5d565b611ff081612b90565b840191505092915050565b600061200682612a54565b6120108185612ab7565b9350612020818560208601612b5d565b61202981612b90565b840191505092915050565b6000815460018116600081146120515760018114612077576120bb565b607f60028304166120628187612ab7565b955060ff1983168652602086019350506120bb565b600282046120858187612ab7565b955061209085612a29565b60005b828110156120b257815481890152600182019150602081019050612093565b80880195505050505b505092915050565b60006120d0601b83612ab7565b91507f536166654d6174683a206164646974696f6e206f766572666c6f7700000000006000830152602082019050919050565b6000612110602483612ab7565b91507f4552433732313a207472616e7366657220746f20746865207a65726f2061646460008301527f72657373000000000000000000000000000000000000000000000000000000006020830152604082019050919050565b6000612176601983612ab7565b91507f4552433732313a20617070726f766520746f2063616c6c6572000000000000006000830152602082019050919050565b60006121b6602c83612ab7565b91507f4552433732313a206f70657261746f7220717565727920666f72206e6f6e657860008301527f697374656e7420746f6b656e00000000000000000000000000000000000000006020830152604082019050919050565b600061221c603883612ab7565b91507f4552433732313a20617070726f76652063616c6c6572206973206e6f74206f7760008301527f6e6572206e6f7220617070726f76656420666f7220616c6c00000000000000006020830152604082019050919050565b6000612282602a83612ab7565b91507f4552433732313a2062616c616e636520717565727920666f7220746865207a6560008301527f726f2061646472657373000000000000000000000000000000000000000000006020830152604082019050919050565b60006122e8602983612ab7565b91507f4552433732313a206f776e657220717565727920666f72206e6f6e657869737460008301527f656e7420746f6b656e00000000000000000000000000000000000000000000006020830152604082019050919050565b600061234e602c83612ab7565b91507f4552433732313a20617070726f76656420717565727920666f72206e6f6e657860008301527f697374656e7420746f6b656e00000000000000000000000000000000000000006020830152604082019050919050565b60006123b4602983612ab7565b91507f4552433732313a207472616e73666572206f6620746f6b656e2074686174206960008301527f73206e6f74206f776e00000000000000000000000000000000000000000000006020830152604082019050919050565b600061241a602183612ab7565b91507f4552433732313a20617070726f76616c20746f2063757272656e74206f776e6560008301527f72000000000000000000000000000000000000000000000000000000000000006020830152604082019050919050565b6000612480603183612ab7565b91507f4552433732313a207472616e736665722063616c6c6572206973206e6f74206f60008301527f776e6572206e6f7220617070726f7665640000000000000000000000000000006020830152604082019050919050565b600060e08301600083015184820360008601526124f68282611fc2565b915050602083015184820360208601526125108282611fc2565b91505060408301516125256040860182612583565b5060608301516125386060860182612583565b50608083015184820360808601526125508282611fc2565b91505060a083015161256560a0860182612583565b5060c083015161257860c0860182612583565b508091505092915050565b61258c81612b32565b82525050565b61259b81612b32565b82525050565b60006020820190506125b66000830184611e89565b92915050565b600060208201905081810360008301526125d68184611e98565b905092915050565b600060208201905081810360008301526125f88184611ef6565b905092915050565b60006020820190506126156000830184611f6b565b92915050565b600060208201905081810360008301526126358184611ffb565b905092915050565b600060208201905081810360008301526126578184611f89565b905092915050565b600060e0820190508181036000830152612679818a611ffb565b9050818103602083015261268d8189611ffb565b905061269c6040830188612592565b6126a96060830187612592565b81810360808301526126bb8186611ffb565b90506126ca60a0830185612592565b6126d760c0830184612592565b98975050505050505050565b600060208201905081810360008301526126fc816120c3565b9050919050565b6000602082019050818103600083015261271c81612103565b9050919050565b6000602082019050818103600083015261273c81612169565b9050919050565b6000602082019050818103600083015261275c816121a9565b9050919050565b6000602082019050818103600083015261277c8161220f565b9050919050565b6000602082019050818103600083015261279c81612275565b9050919050565b600060208201905081810360008301526127bc816122db565b9050919050565b600060208201905081810360008301526127dc81612341565b9050919050565b600060208201905081810360008301526127fc816123a7565b9050919050565b6000602082019050818103600083015261281c8161240d565b9050919050565b6000602082019050818103600083015261283c81612473565b9050919050565b60006020820190506128586000830184612592565b92915050565b600061010082019050612874600083018b612592565b8181036020830152612886818a611f89565b9050818103604083015261289a8189611f89565b90506128a96060830188612592565b6128b66080830187611f7a565b81810360a08301526128c88186611f89565b90506128d760c0830185611f7a565b6128e460e0830184611f7a565b9998505050505050505050565b600061010082019050612907600083018b612592565b8181036020830152612919818a612034565b9050818103604083015261292d8189612034565b905061293c6060830188612592565b6129496080830187612592565b81810360a083015261295b8186612034565b905061296a60c0830185612592565b61297760e0830184612592565b9998505050505050505050565b6000604051905081810181811067ffffffffffffffff821117156129a757600080fd5b8060405250919050565b600067ffffffffffffffff8211156129c857600080fd5b601f19601f8301169050602081019050919050565b600067ffffffffffffffff8211156129f457600080fd5b601f19601f8301169050602081019050919050565b6000819050602082019050919050565b6000819050602082019050919050565b60008190508160005260206000209050919050565b600081519050919050565b600081519050919050565b600081519050919050565b600081519050919050565b6000602082019050919050565b6000602082019050919050565b600082825260208201905092915050565b600082825260208201905092915050565b600082825260208201905092915050565b600082825260208201905092915050565b6000612ad382612b12565b9050919050565b60008115159050919050565b60007fffffffff0000000000000000000000000000000000000000000000000000000082169050919050565b600073ffffffffffffffffffffffffffffffffffffffff82169050919050565b6000819050919050565b6000612b4782612b32565b9050919050565b82818337600083830152505050565b60005b83811015612b7b578082015181840152602081019050612b60565b83811115612b8a576000848401525b50505050565b6000601f19601f8301169050919050565b612baa81612ac8565b8114612bb557600080fd5b50565b612bc181612ada565b8114612bcc57600080fd5b50565b612bd881612ae6565b8114612be357600080fd5b50565b612bef81612b32565b8114612bfa57600080fd5b5056fea26469706673582212208bb1c21d7e7f95f5eb5fae6854ad810a008fa53f8bdf5e36921c91ea19053be164736f6c63430006000033",
  "source": "pragma solidity >= 0.5.0;\npragma experimental ABIEncoderV2;\n\nimport \"./ERC721.sol\";\nimport \"./Ownable.sol\";\n\ncontract Breeding is ERC721{\n\nstruct Animal{\n    string species;\n    string name;\n    uint age;\n    uint readyTime;\n    string color;\n    uint winCount;\n    uint lossCount;\n}\n\nAnimal[] public animals;\nuint id = 0;\naddress[] public Owners;\nstring[] public colors = [\"grey\",\"red\",\"blue\",\"white\",\"brown\",\"black\"];\nuint randNonce = 0;\nmapping(uint => address) animalToOwner;\nmapping(address => uint) ownerAnimalCount;\nmapping(string => uint) ColorToId;\n\nevent NewAnimal(uint Id, string _species, string _name, uint age, uint _readyTime, string _color,uint winCount, uint lossCount);\nevent DeadAnimal(uint Id, string _species, string _name, uint age, uint _readyTime, string _color,uint winCount, uint lossCount);\nevent BreedAnimal(uint Id1, uint Id2);\n\nfunction AnimalsByOwner(address _owner) public view returns(Animal[] memory) {\n    Animal[] memory Breeds;\n    for (uint32 i = 0; i < animals.length; i++) {\n        if (animalToOwner[i] == _owner) {\n            //Breeds.push(animals[i]);\n            return Breeds;\n        }\n    }\n\n}\nfunction declareAnimal(string memory _species, uint _age, string memory _name, string memory _color) public {\n    Animal memory newAnimal = Animal(_species, _name, _age, 1 seconds, _color, 0, 0);\n    ownerAnimalCount[msg.sender] = ownerAnimalCount[msg.sender].add(1);\n    animals.push(newAnimal);\n    id = id.add(1);\n    animalToOwner[id] = msg.sender;\n    emit NewAnimal(id, _species, _name, _age, 0, _color, 0, 0);\n}\n\nfunction deadAnimal(uint _animalId) public {\n    address _owner = animalToOwner[_animalId];\n    ownerAnimalCount[_owner] = ownerAnimalCount[_owner].sub(1);\n    delete(animals[_animalId]);\n    emit DeadAnimal(_animalId, animals[_animalId].species, animals[_animalId].name, animals[_animalId].age,\n    animals[_animalId].readyTime, animals[_animalId].color, animals[_animalId].winCount, animals[_animalId].lossCount);\n}\n\nfunction randMod(uint _modulus) internal returns(uint) {\n    randNonce = randNonce.add(1);\n    return uint(keccak256(abi.encodePacked(block.timestamp, msg.sender, randNonce))) % _modulus;\n  }\n\n/*function BreedAnimal(uint _animalId1, uint _animalId2) public {\n    require(animals[_animalId1].species == animals[_animalId2].species, \"Not the same species\");\n    uint rand = randMod(2);\n    string memory _color;\n    if (rand == 1){\n        _color = animals[_animalId1].color;\n    }\n    else {\n        _color = animals[_animalId2].color;\n    }\n    declareAnimal(animals[_animalId1].species, animals[_animalId1].name[3:] + animals[_animalId1].name[3:], 1 seconds, 0, color, 0, 0);\n    animals[_animalId1].species = 0;\n    animals[_animalId1].readyTime = 1 seconds;\n}\n*/\nmodifier ReadyToBreed(uint _animalId) {\n    require(animals[_animalId].age >= 2, \"Animal too young to couple\");\n    require(animals[_animalId].readyTime >= 1, \"Animal already coupled in the previous 6 months\");\n    _;\n}\n\nfunction registerOwner( address _owner ) public {\n    Owners.push(_owner);\n}\n\n/*modifier onlyRegistered() {\n    require(isOwner(),\"You are not an owner\");\n    _;\n}\n*/\nfunction getOwner() public returns(address[] memory){\n    return Owners;\n}\n\n\n\n}",
  "sourcePath": "C:\\Users\\torta\\OneDrive\\Documents\\ESILV\\Semestre 2\\Blockchain Programming\\OPEN ZEPPELIN\\node_modules\\@openzeppelin\\TD6-ERC721\\contracts\\Breeding.sol",
  "compiler": {
    "name": "solc",
    "version": "0.6.0+commit.26b70077.Emscripten.clang"
  },
  "schemaVersion": "3.0.23",
  "updatedAt": "2020-03-10T11:08:20.519Z",
  "networkType": "ethereum",
  "devdoc": {
    "methods": {
      "approve(address,uint256)": {
        "details": "Approves another address to transfer the given token ID The zero address indicates there is no approved address. There can only be one approved address per token at a given time. Can only be called by the token owner or an approved operator.",
        "params": {
          "to": "address to be approved for the given token ID",
          "tokenId": "uint256 ID of the token to be approved"
        }
      },
      "balanceOf(address)": {
        "details": "Gets the balance of the specified address.",
        "params": {
          "owner": "address to query the balance of"
        },
        "returns": {
          "_0": "uint256 representing the amount owned by the passed address"
        }
      },
      "getApproved(uint256)": {
        "details": "Gets the approved address for a token ID, or zero if no address set Reverts if the token ID does not exist.",
        "params": {
          "tokenId": "uint256 ID of the token to query the approval of"
        },
        "returns": {
          "_0": "address currently approved for the given token ID"
        }
      },
      "isApprovedForAll(address,address)": {
        "details": "Tells whether an operator is approved by a given owner.",
        "params": {
          "operator": "operator address which you want to query the approval of",
          "owner": "owner address which you want to query the approval of"
        },
        "returns": {
          "_0": "bool whether the given operator is approved by the given owner"
        }
      },
      "ownerOf(uint256)": {
        "details": "Gets the owner of the specified token ID.",
        "params": {
          "tokenId": "uint256 ID of the token to query the owner of"
        },
        "returns": {
          "_0": "address currently marked as the owner of the given token ID"
        }
      },
      "safeTransferFrom(address,address,uint256)": {
        "details": "Safely transfers the ownership of a given token ID to another address If the target address is a contract, it must implement {IERC721Receiver-onERC721Received}, which is called upon a safe transfer, and return the magic value `bytes4(keccak256(\"onERC721Received(address,address,uint256,bytes)\"))`; otherwise, the transfer is reverted. Requires the msg.sender to be the owner, approved, or operator",
        "params": {
          "from": "current owner of the token",
          "to": "address to receive the ownership of the given token ID",
          "tokenId": "uint256 ID of the token to be transferred"
        }
      },
      "safeTransferFrom(address,address,uint256,bytes)": {
        "details": "Safely transfers the ownership of a given token ID to another address If the target address is a contract, it must implement {IERC721Receiver-onERC721Received}, which is called upon a safe transfer, and return the magic value `bytes4(keccak256(\"onERC721Received(address,address,uint256,bytes)\"))`; otherwise, the transfer is reverted. Requires the _msgSender() to be the owner, approved, or operator",
        "params": {
          "_data": "bytes data to send along with a safe transfer check",
          "from": "current owner of the token",
          "to": "address to receive the ownership of the given token ID",
          "tokenId": "uint256 ID of the token to be transferred"
        }
      },
      "setApprovalForAll(address,bool)": {
        "details": "Sets or unsets the approval of a given operator An operator is allowed to transfer all tokens of the sender on their behalf.",
        "params": {
          "approved": "representing the status of the approval to be set",
          "to": "operator address to set the approval"
        }
      },
      "supportsInterface(bytes4)": {
        "details": "See {IERC165-supportsInterface}.     * Time complexity O(1), guaranteed to always use less than 30 000 gas."
      },
      "transferFrom(address,address,uint256)": {
        "details": "Transfers the ownership of a given token ID to another address. Usage of this method is discouraged, use {safeTransferFrom} whenever possible. Requires the msg.sender to be the owner, approved, or operator.",
        "params": {
          "from": "current owner of the token",
          "to": "address to receive the ownership of the given token ID",
          "tokenId": "uint256 ID of the token to be transferred"
        }
      }
    }
  },
  "userdoc": {
    "methods": {}
  }
}