{
  "contractName": "Fighting",
  "abi": [
    {
      "anonymous": false,
      "inputs": [
        {
          "indexed": false,
          "internalType": "address",
          "name": "from",
          "type": "address"
        },
        {
          "indexed": false,
          "internalType": "address",
          "name": "to",
          "type": "address"
        },
        {
          "indexed": false,
          "internalType": "uint256",
          "name": "animalId",
          "type": "uint256"
        },
        {
          "indexed": false,
          "internalType": "uint256",
          "name": "price",
          "type": "uint256"
        }
      ],
      "name": "AnimalSoldAuction",
      "type": "event"
    },
    {
      "anonymous": false,
      "inputs": [
        {
          "indexed": false,
          "internalType": "address",
          "name": "owner",
          "type": "address"
        },
        {
          "indexed": false,
          "internalType": "uint256",
          "name": "animalId",
          "type": "uint256"
        },
        {
          "indexed": false,
          "internalType": "string",
          "name": "species",
          "type": "string"
        },
        {
          "indexed": false,
          "internalType": "string",
          "name": "name",
          "type": "string"
        },
        {
          "indexed": false,
          "internalType": "uint256",
          "name": "age",
          "type": "uint256"
        },
        {
          "indexed": false,
          "internalType": "uint256",
          "name": "readyTime",
          "type": "uint256"
        },
        {
          "indexed": false,
          "internalType": "string",
          "name": "color",
          "type": "string"
        },
        {
          "indexed": false,
          "internalType": "uint256",
          "name": "winCount",
          "type": "uint256"
        },
        {
          "indexed": false,
          "internalType": "uint256",
          "name": "lossCount",
          "type": "uint256"
        }
      ],
      "name": "AnimalToBid",
      "type": "event"
    },
    {
      "anonymous": false,
      "inputs": [
        {
          "indexed": true,
          "internalType": "address",
          "name": "owner",
          "type": "address"
        },
        {
          "indexed": true,
          "internalType": "address",
          "name": "approved",
          "type": "address"
        },
        {
          "indexed": true,
          "internalType": "uint256",
          "name": "tokenId",
          "type": "uint256"
        }
      ],
      "name": "Approval",
      "type": "event"
    },
    {
      "anonymous": false,
      "inputs": [
        {
          "indexed": true,
          "internalType": "address",
          "name": "owner",
          "type": "address"
        },
        {
          "indexed": true,
          "internalType": "address",
          "name": "operator",
          "type": "address"
        },
        {
          "indexed": false,
          "internalType": "bool",
          "name": "approved",
          "type": "bool"
        }
      ],
      "name": "ApprovalForAll",
      "type": "event"
    },
    {
      "anonymous": false,
      "inputs": [
        {
          "indexed": false,
          "internalType": "uint256",
          "name": "Id1",
          "type": "uint256"
        },
        {
          "indexed": false,
          "internalType": "uint256",
          "name": "Id2",
          "type": "uint256"
        }
      ],
      "name": "BreedAnimal",
      "type": "event"
    },
    {
      "anonymous": false,
      "inputs": [
        {
          "indexed": false,
          "internalType": "uint256",
          "name": "Id",
          "type": "uint256"
        },
        {
          "indexed": false,
          "internalType": "string",
          "name": "_species",
          "type": "string"
        },
        {
          "indexed": false,
          "internalType": "string",
          "name": "_name",
          "type": "string"
        },
        {
          "indexed": false,
          "internalType": "uint256",
          "name": "age",
          "type": "uint256"
        },
        {
          "indexed": false,
          "internalType": "uint256",
          "name": "_readyTime",
          "type": "uint256"
        },
        {
          "indexed": false,
          "internalType": "string",
          "name": "_color",
          "type": "string"
        },
        {
          "indexed": false,
          "internalType": "uint256",
          "name": "winCount",
          "type": "uint256"
        },
        {
          "indexed": false,
          "internalType": "uint256",
          "name": "lossCount",
          "type": "uint256"
        }
      ],
      "name": "DeadAnimal",
      "type": "event"
    },
    {
      "anonymous": false,
      "inputs": [
        {
          "indexed": false,
          "internalType": "uint256",
          "name": "Id",
          "type": "uint256"
        },
        {
          "indexed": false,
          "internalType": "string",
          "name": "_species",
          "type": "string"
        },
        {
          "indexed": false,
          "internalType": "string",
          "name": "_name",
          "type": "string"
        },
        {
          "indexed": false,
          "internalType": "uint256",
          "name": "age",
          "type": "uint256"
        },
        {
          "indexed": false,
          "internalType": "uint256",
          "name": "_readyTime",
          "type": "uint256"
        },
        {
          "indexed": false,
          "internalType": "string",
          "name": "_color",
          "type": "string"
        },
        {
          "indexed": false,
          "internalType": "uint256",
          "name": "winCount",
          "type": "uint256"
        },
        {
          "indexed": false,
          "internalType": "uint256",
          "name": "lossCount",
          "type": "uint256"
        }
      ],
      "name": "NewAnimal",
      "type": "event"
    },
    {
      "anonymous": false,
      "inputs": [
        {
          "indexed": true,
          "internalType": "address",
          "name": "previousOwner",
          "type": "address"
        },
        {
          "indexed": true,
          "internalType": "address",
          "name": "newOwner",
          "type": "address"
        }
      ],
      "name": "OwnershipTransferred",
      "type": "event"
    },
    {
      "anonymous": false,
      "inputs": [
        {
          "indexed": true,
          "internalType": "address",
          "name": "from",
          "type": "address"
        },
        {
          "indexed": true,
          "internalType": "address",
          "name": "to",
          "type": "address"
        },
        {
          "indexed": true,
          "internalType": "uint256",
          "name": "tokenId",
          "type": "uint256"
        }
      ],
      "name": "Transfer",
      "type": "event"
    },
    {
      "anonymous": false,
      "inputs": [
        {
          "indexed": false,
          "internalType": "address",
          "name": "_owner",
          "type": "address"
        },
        {
          "indexed": false,
          "internalType": "uint256",
          "name": "_bidAnimalId",
          "type": "uint256"
        },
        {
          "indexed": false,
          "internalType": "uint256",
          "name": "price",
          "type": "uint256"
        }
      ],
      "name": "UpdatedAuction",
      "type": "event"
    },
    {
      "inputs": [
        {
          "internalType": "uint256",
          "name": "",
          "type": "uint256"
        }
      ],
      "name": "Owners",
      "outputs": [
        {
          "internalType": "address",
          "name": "",
          "type": "address"
        }
      ],
      "stateMutability": "view",
      "type": "function"
    },
    {
      "inputs": [
        {
          "internalType": "uint256",
          "name": "",
          "type": "uint256"
        }
      ],
      "name": "animals",
      "outputs": [
        {
          "internalType": "string",
          "name": "species",
          "type": "string"
        },
        {
          "internalType": "string",
          "name": "name",
          "type": "string"
        },
        {
          "internalType": "uint256",
          "name": "age",
          "type": "uint256"
        },
        {
          "internalType": "uint256",
          "name": "readyTime",
          "type": "uint256"
        },
        {
          "internalType": "string",
          "name": "color",
          "type": "string"
        },
        {
          "internalType": "uint256",
          "name": "winCount",
          "type": "uint256"
        },
        {
          "internalType": "uint256",
          "name": "lossCount",
          "type": "uint256"
        }
      ],
      "stateMutability": "view",
      "type": "function"
    },
    {
      "inputs": [
        {
          "internalType": "address",
          "name": "to",
          "type": "address"
        },
        {
          "internalType": "uint256",
          "name": "tokenId",
          "type": "uint256"
        }
      ],
      "name": "approve",
      "outputs": [],
      "stateMutability": "nonpayable",
      "type": "function"
    },
    {
      "inputs": [
        {
          "internalType": "uint256",
          "name": "",
          "type": "uint256"
        }
      ],
      "name": "auctions",
      "outputs": [
        {
          "internalType": "uint256",
          "name": "animalId",
          "type": "uint256"
        },
        {
          "internalType": "uint256",
          "name": "price",
          "type": "uint256"
        },
        {
          "internalType": "bool",
          "name": "validate",
          "type": "bool"
        }
      ],
      "stateMutability": "view",
      "type": "function"
    },
    {
      "inputs": [
        {
          "internalType": "address",
          "name": "owner",
          "type": "address"
        }
      ],
      "name": "balanceOf",
      "outputs": [
        {
          "internalType": "uint256",
          "name": "",
          "type": "uint256"
        }
      ],
      "stateMutability": "view",
      "type": "function"
    },
    {
      "inputs": [
        {
          "internalType": "uint256",
          "name": "",
          "type": "uint256"
        }
      ],
      "name": "bidAnimals",
      "outputs": [
        {
          "components": [
            {
              "internalType": "string",
              "name": "species",
              "type": "string"
            },
            {
              "internalType": "string",
              "name": "name",
              "type": "string"
            },
            {
              "internalType": "uint256",
              "name": "age",
              "type": "uint256"
            },
            {
              "internalType": "uint256",
              "name": "readyTime",
              "type": "uint256"
            },
            {
              "internalType": "string",
              "name": "color",
              "type": "string"
            },
            {
              "internalType": "uint256",
              "name": "winCount",
              "type": "uint256"
            },
            {
              "internalType": "uint256",
              "name": "lossCount",
              "type": "uint256"
            }
          ],
          "internalType": "struct Breeding.Animal",
          "name": "myAnimal",
          "type": "tuple"
        },
        {
          "internalType": "uint256",
          "name": "time",
          "type": "uint256"
        },
        {
          "internalType": "bool",
          "name": "alreadySold",
          "type": "bool"
        }
      ],
      "stateMutability": "view",
      "type": "function"
    },
    {
      "inputs": [
        {
          "internalType": "uint256",
          "name": "_animalId1",
          "type": "uint256"
        },
        {
          "internalType": "uint256",
          "name": "_animalId2",
          "type": "uint256"
        }
      ],
      "name": "breedAnimal",
      "outputs": [],
      "stateMutability": "nonpayable",
      "type": "function"
    },
    {
      "inputs": [
        {
          "internalType": "uint256",
          "name": "_bidAnimalId",
          "type": "uint256"
        },
        {
          "internalType": "uint256",
          "name": "_auctionId",
          "type": "uint256"
        }
      ],
      "name": "claimAuction",
      "outputs": [],
      "stateMutability": "nonpayable",
      "type": "function"
    },
    {
      "inputs": [
        {
          "internalType": "uint256",
          "name": "",
          "type": "uint256"
        }
      ],
      "name": "colors",
      "outputs": [
        {
          "internalType": "string",
          "name": "",
          "type": "string"
        }
      ],
      "stateMutability": "view",
      "type": "function"
    },
    {
      "inputs": [
        {
          "internalType": "uint256",
          "name": "_animalId",
          "type": "uint256"
        }
      ],
      "name": "deadAnimal",
      "outputs": [],
      "stateMutability": "nonpayable",
      "type": "function"
    },
    {
      "inputs": [
        {
          "internalType": "address",
          "name": "_owner",
          "type": "address"
        },
        {
          "internalType": "string",
          "name": "_species",
          "type": "string"
        },
        {
          "internalType": "uint256",
          "name": "_age",
          "type": "uint256"
        },
        {
          "internalType": "string",
          "name": "_name",
          "type": "string"
        },
        {
          "internalType": "string",
          "name": "_color",
          "type": "string"
        }
      ],
      "name": "declareAnimal",
      "outputs": [],
      "stateMutability": "nonpayable",
      "type": "function"
    },
    {
      "inputs": [
        {
          "internalType": "uint256",
          "name": "_price",
          "type": "uint256"
        },
        {
          "internalType": "uint256",
          "name": "_animalId",
          "type": "uint256"
        }
      ],
      "name": "declareAuction",
      "outputs": [],
      "stateMutability": "payable",
      "type": "function"
    },
    {
      "inputs": [
        {
          "internalType": "uint256",
          "name": "",
          "type": "uint256"
        }
      ],
      "name": "fightAnimals",
      "outputs": [
        {
          "internalType": "uint256",
          "name": "animalId",
          "type": "uint256"
        },
        {
          "internalType": "uint256",
          "name": "readyToFight",
          "type": "uint256"
        }
      ],
      "stateMutability": "view",
      "type": "function"
    },
    {
      "inputs": [
        {
          "internalType": "uint256",
          "name": "tokenId",
          "type": "uint256"
        }
      ],
      "name": "getApproved",
      "outputs": [
        {
          "internalType": "address",
          "name": "",
          "type": "address"
        }
      ],
      "stateMutability": "view",
      "type": "function"
    },
    {
      "inputs": [],
      "name": "getOwner",
      "outputs": [
        {
          "internalType": "address[]",
          "name": "",
          "type": "address[]"
        }
      ],
      "stateMutability": "view",
      "type": "function"
    },
    {
      "inputs": [
        {
          "internalType": "address",
          "name": "owner",
          "type": "address"
        },
        {
          "internalType": "address",
          "name": "operator",
          "type": "address"
        }
      ],
      "name": "isApprovedForAll",
      "outputs": [
        {
          "internalType": "bool",
          "name": "",
          "type": "bool"
        }
      ],
      "stateMutability": "view",
      "type": "function"
    },
    {
      "inputs": [],
      "name": "isOwner",
      "outputs": [
        {
          "internalType": "bool",
          "name": "",
          "type": "bool"
        }
      ],
      "stateMutability": "view",
      "type": "function"
    },
    {
      "inputs": [],
      "name": "owner",
      "outputs": [
        {
          "internalType": "address",
          "name": "",
          "type": "address"
        }
      ],
      "stateMutability": "view",
      "type": "function"
    },
    {
      "inputs": [
        {
          "internalType": "uint256",
          "name": "tokenId",
          "type": "uint256"
        }
      ],
      "name": "ownerOf",
      "outputs": [
        {
          "internalType": "address",
          "name": "",
          "type": "address"
        }
      ],
      "stateMutability": "view",
      "type": "function"
    },
    {
      "inputs": [
        {
          "internalType": "address",
          "name": "_owner",
          "type": "address"
        }
      ],
      "name": "registerOwner",
      "outputs": [],
      "stateMutability": "nonpayable",
      "type": "function"
    },
    {
      "inputs": [],
      "name": "renounceOwnership",
      "outputs": [],
      "stateMutability": "nonpayable",
      "type": "function"
    },
    {
      "inputs": [
        {
          "internalType": "address",
          "name": "from",
          "type": "address"
        },
        {
          "internalType": "address",
          "name": "to",
          "type": "address"
        },
        {
          "internalType": "uint256",
          "name": "tokenId",
          "type": "uint256"
        }
      ],
      "name": "safeTransferFrom",
      "outputs": [],
      "stateMutability": "nonpayable",
      "type": "function"
    },
    {
      "inputs": [
        {
          "internalType": "address",
          "name": "from",
          "type": "address"
        },
        {
          "internalType": "address",
          "name": "to",
          "type": "address"
        },
        {
          "internalType": "uint256",
          "name": "tokenId",
          "type": "uint256"
        },
        {
          "internalType": "bytes",
          "name": "_data",
          "type": "bytes"
        }
      ],
      "name": "safeTransferFrom",
      "outputs": [],
      "stateMutability": "nonpayable",
      "type": "function"
    },
    {
      "inputs": [
        {
          "internalType": "uint256",
          "name": "_animalId",
          "type": "uint256"
        }
      ],
      "name": "setAnimalToBid",
      "outputs": [],
      "stateMutability": "nonpayable",
      "type": "function"
    },
    {
      "inputs": [
        {
          "internalType": "address",
          "name": "to",
          "type": "address"
        },
        {
          "internalType": "bool",
          "name": "approved",
          "type": "bool"
        }
      ],
      "name": "setApprovalForAll",
      "outputs": [],
      "stateMutability": "nonpayable",
      "type": "function"
    },
    {
      "inputs": [
        {
          "internalType": "bytes4",
          "name": "interfaceId",
          "type": "bytes4"
        }
      ],
      "name": "supportsInterface",
      "outputs": [
        {
          "internalType": "bool",
          "name": "",
          "type": "bool"
        }
      ],
      "stateMutability": "view",
      "type": "function"
    },
    {
      "inputs": [
        {
          "internalType": "address",
          "name": "from",
          "type": "address"
        },
        {
          "internalType": "address",
          "name": "to",
          "type": "address"
        },
        {
          "internalType": "uint256",
          "name": "tokenId",
          "type": "uint256"
        }
      ],
      "name": "transferFrom",
      "outputs": [],
      "stateMutability": "nonpayable",
      "type": "function"
    },
    {
      "inputs": [
        {
          "internalType": "address",
          "name": "newOwner",
          "type": "address"
        }
      ],
      "name": "transferOwnership",
      "outputs": [],
      "stateMutability": "nonpayable",
      "type": "function"
    },
    {
      "inputs": [
        {
          "internalType": "uint256",
          "name": "_price",
          "type": "uint256"
        },
        {
          "internalType": "uint256",
          "name": "_auctionId",
          "type": "uint256"
        }
      ],
      "name": "updateAuction",
      "outputs": [],
      "stateMutability": "payable",
      "type": "function"
    },
    {
      "inputs": [
        {
          "internalType": "uint256",
          "name": "_fightAnimalId1",
          "type": "uint256"
        },
        {
          "internalType": "uint256",
          "name": "_fightAnimalId2",
          "type": "uint256"
        }
      ],
      "name": "Fight",
      "outputs": [],
      "stateMutability": "nonpayable",
      "type": "function"
    }
  ],
  "bytecode": "0x608060405260006007556040518060c001604052806040518060400160405280600481526020017f677265790000000000000000000000000000000000000000000000000000000081525081526020016040518060400160405280600381526020017f726564000000000000000000000000000000000000000000000000000000000081525081526020016040518060400160405280600481526020017f626c75650000000000000000000000000000000000000000000000000000000081525081526020016040518060400160405280600581526020017f776869746500000000000000000000000000000000000000000000000000000081525081526020016040518060400160405280600581526020017f62726f776e00000000000000000000000000000000000000000000000000000081525081526020016040518060400160405280600581526020017f626c61636b0000000000000000000000000000000000000000000000000000008152508152506009906006620001869291906200035a565b506000600a556202a300601055620001ab6301ffc9a760e01b6200027a60201b60201c565b620001c36380ac58cd60e01b6200027a60201b60201c565b6000620001d56200035260201b60201c565b905080600560006101000a81548173ffffffffffffffffffffffffffffffffffffffff021916908373ffffffffffffffffffffffffffffffffffffffff1602179055508073ffffffffffffffffffffffffffffffffffffffff16600073ffffffffffffffffffffffffffffffffffffffff167f8be0079c531659141344cd1fd0a4f28419497f9722a3daafe3b4186f6b6457e060405160405180910390a35062000562565b63ffffffff60e01b817bffffffffffffffffffffffffffffffffffffffffffffffffffffffff19161415620002e6576040517f08c379a0000000000000000000000000000000000000000000000000000000008152600401620002dd906200052f565b60405180910390fd5b6001600080837bffffffffffffffffffffffffffffffffffffffffffffffffffffffff19167bffffffffffffffffffffffffffffffffffffffffffffffffffffffff1916815260200190815260200160002060006101000a81548160ff02191690831515021790555050565b600033905090565b828054828255906000526020600020908101928215620003ae579160200282015b82811115620003ad5782518290805190602001906200039c929190620003c1565b50916020019190600101906200037b565b5b509050620003bd919062000448565b5090565b828054600181600116156101000203166002900490600052602060002090601f016020900481019282601f106200040457805160ff191683800117855562000435565b8280016001018555821562000435579182015b828111156200043457825182559160200191906001019062000417565b5b50905062000444919062000479565b5090565b6200047691905b80821115620004725760008181620004689190620004a1565b506001016200044f565b5090565b90565b6200049e91905b808211156200049a57600081600090555060010162000480565b5090565b90565b50805460018160011615610100020316600290046000825580601f10620004c95750620004ea565b601f016020900490600052602060002090810190620004e9919062000479565b5b50565b6000620004fc601c8362000551565b91507f4552433136353a20696e76616c696420696e74657266616365206964000000006000830152602082019050919050565b600060208201905081810360008301526200054a81620004ed565b9050919050565b600082825260208201905092915050565b614fb880620005726000396000f3fe60806040526004361061015d5760003560e01c806301ffc9a714610162578063081812fc1461019f578063095ea7b3146101dc5780631220c6ed1461020557806323b872dd1461022e578063400520811461025757806342842e0e146102735780634723fc531461029c578063571a26a0146102da5780635e6bab68146103195780636352211e146103425780636f257d741461037f57806370a08231146103a8578063715018a6146103e5578063893d20e8146103fc5780638a1ce908146104275780638ab59faa146104645780638da5cb5b1461048d5780638f32d59b146104b8578063998dd3ca146104e357806399c3290714610526578063a10a2d8514610565578063a22cb4651461058e578063b88d4fde146105b7578063bd11f69d146105e0578063c46a6d3d1461061d578063e985e9c514610646578063ec9b6db914610683578063f22b0169146106ac578063f2fde38b146106c8575b600080fd5b34801561016e57600080fd5b5061018960048036036101849190810190613acc565b6106f1565b604051610196919061475d565b60405180910390f35b3480156101ab57600080fd5b506101c660048036036101c19190810190613af5565b610758565b6040516101d39190614602565b60405180910390f35b3480156101e857600080fd5b5061020360048036036101fe9190810190613a90565b6107dd565b005b34801561021157600080fd5b5061022c60048036036102279190810190613866565b610998565b005b34801561023a57600080fd5b50610255600480360361025091908101906138cb565b6109fe565b005b610271600480360361026c9190810190613b1e565b610a5e565b005b34801561027f57600080fd5b5061029a600480360361029591908101906138cb565b610b94565b005b3480156102a857600080fd5b506102c360048036036102be9190810190613af5565b610bb4565b6040516102d1929190614c5f565b60405180910390f35b3480156102e657600080fd5b5061030160048036036102fc9190810190613af5565b610be5565b60405161031093929190614c88565b60405180910390f35b34801561032557600080fd5b50610340600480360361033b9190810190613b1e565b610c29565b005b34801561034e57600080fd5b5061036960048036036103649190810190613af5565b6112c0565b6040516103769190614602565b60405180910390f35b34801561038b57600080fd5b506103a660048036036103a191908101906139d1565b611372565b005b3480156103b457600080fd5b506103cf60048036036103ca9190810190613866565b611624565b6040516103dc9190614b1e565b60405180910390f35b3480156103f157600080fd5b506103fa6116e3565b005b34801561040857600080fd5b506104116117eb565b60405161041e919061473b565b60405180910390f35b34801561043357600080fd5b5061044e60048036036104499190810190613af5565b611879565b60405161045b9190614602565b60405180910390f35b34801561047057600080fd5b5061048b60048036036104869190810190613b1e565b6118b5565b005b34801561049957600080fd5b506104a2611b22565b6040516104af9190614602565b60405180910390f35b3480156104c457600080fd5b506104cd611b4c565b6040516104da919061475d565b60405180910390f35b3480156104ef57600080fd5b5061050a60048036036105059190810190613af5565b611bab565b60405161051d97969594939291906147bc565b60405180910390f35b34801561053257600080fd5b5061054d60048036036105489190810190613af5565b611dc2565b60405161055c93929190614ae0565b60405180910390f35b34801561057157600080fd5b5061058c60048036036105879190810190613af5565b61201e565b005b34801561059a57600080fd5b506105b560048036036105b09190810190613995565b61256f565b005b3480156105c357600080fd5b506105de60048036036105d9919081019061391a565b6126f0565b005b3480156105ec57600080fd5b5061060760048036036106029190810190613af5565b612752565b6040516106149190614778565b60405180910390f35b34801561062957600080fd5b50610644600480360361063f9190810190613b1e565b61280b565b005b34801561065257600080fd5b5061066d6004803603610668919081019061388f565b61296e565b60405161067a919061475d565b60405180910390f35b34801561068f57600080fd5b506106aa60048036036106a59190810190613af5565b612a02565b005b6106c660048036036106c19190810190613b1e565b612c56565b005b3480156106d457600080fd5b506106ef60048036036106ea9190810190613866565b612d79565b005b6000806000837bffffffffffffffffffffffffffffffffffffffffffffffffffffffff19167bffffffffffffffffffffffffffffffffffffffffffffffffffffffff1916815260200190815260200160002060009054906101000a900460ff169050919050565b600061076382612dcc565b6107a2576040517f08c379a0000000000000000000000000000000000000000000000000000000008152600401610799906149e0565b60405180910390fd5b6002600083815260200190815260200160002060009054906101000a900473ffffffffffffffffffffffffffffffffffffffff169050919050565b60006107e8826112c0565b90508073ffffffffffffffffffffffffffffffffffffffff168373ffffffffffffffffffffffffffffffffffffffff161415610859576040517f08c379a000000000000000000000000000000000000000000000000000000000815260040161085090614a60565b60405180910390fd5b8073ffffffffffffffffffffffffffffffffffffffff16610878612e3e565b73ffffffffffffffffffffffffffffffffffffffff1614806108a757506108a6816108a1612e3e565b61296e565b5b6108e6576040517f08c379a00000000000000000000000000000000000000000000000000000000081526004016108dd90614960565b60405180910390fd5b826002600084815260200190815260200160002060006101000a81548173ffffffffffffffffffffffffffffffffffffffff021916908373ffffffffffffffffffffffffffffffffffffffff160217905550818373ffffffffffffffffffffffffffffffffffffffff168273ffffffffffffffffffffffffffffffffffffffff167f8c5be1e5ebec7d5bd14f71427d1e84f3dd0314c0f7b2291e5b200ac8c7c3b92560405160405180910390a4505050565b6008819080600181540180825580915050600190039060005260206000200160009091909190916101000a81548173ffffffffffffffffffffffffffffffffffffffff021916908373ffffffffffffffffffffffffffffffffffffffff16021790555050565b610a0f610a09612e3e565b82612e46565b610a4e576040517f08c379a0000000000000000000000000000000000000000000000000000000008152600401610a4590614ac0565b60405180910390fd5b610a59838383612f24565b505050565b80610a6881613153565b610aa7576040517f08c379a0000000000000000000000000000000000000000000000000000000008152600401610a9e90614a80565b60405180910390fd5b610aaf6135b7565b6040518060600160405280848152602001858152602001600015158152509050600f819080600181540180825580915050600190039060005260206000209060030201600090919091909150600082015181600001556020820151816001015560408201518160020160006101000a81548160ff02191690831515021790555050506000600f805490509050336011600083815260200190815260200160002060006101000a81548173ffffffffffffffffffffffffffffffffffffffff021916908373ffffffffffffffffffffffffffffffffffffffff1602179055505050505050565b610baf838383604051806020016040528060008152506126f0565b505050565b60148181548110610bc157fe5b90600052602060002090600202016000915090508060000154908060010154905082565b600f8181548110610bf257fe5b90600052602060002090600302016000915090508060000154908060010154908060020160009054906101000a900460ff16905083565b81600260068281548110610c3957fe5b9060005260206000209060070201600201541015610c8c576040517f08c379a0000000000000000000000000000000000000000000000000000000008152600401610c83906149c0565b60405180910390fd5b600160068281548110610c9b57fe5b9060005260206000209060070201600301541015610cee576040517f08c379a0000000000000000000000000000000000000000000000000000000008152600401610ce590614840565b60405180910390fd5b81600260068281548110610cfe57fe5b9060005260206000209060070201600201541015610d51576040517f08c379a0000000000000000000000000000000000000000000000000000000008152600401610d48906149c0565b60405180910390fd5b600160068281548110610d6057fe5b9060005260206000209060070201600301541015610db3576040517f08c379a0000000000000000000000000000000000000000000000000000000008152600401610daa90614840565b60405180910390fd5b83600b600082815260200190815260200160002060009054906101000a900473ffffffffffffffffffffffffffffffffffffffff1673ffffffffffffffffffffffffffffffffffffffff163373ffffffffffffffffffffffffffffffffffffffff1614610e55576040517f08c379a0000000000000000000000000000000000000000000000000000000008152600401610e4c90614aa0565b60405180910390fd5b83600b600082815260200190815260200160002060009054906101000a900473ffffffffffffffffffffffffffffffffffffffff1673ffffffffffffffffffffffffffffffffffffffff163373ffffffffffffffffffffffffffffffffffffffff1614610ef7576040517f08c379a0000000000000000000000000000000000000000000000000000000008152600401610eee90614aa0565b60405180910390fd5b6000610f036002613219565b905060606001821415610fce5760068881548110610f1d57fe5b90600052602060002090600702016004018054600181600116156101000203166002900480601f016020809104026020016040519081016040528092919081815260200182805460018160011615610100020316600290048015610fc25780601f10610f9757610100808354040283529160200191610fc2565b820191906000526020600020905b815481529060010190602001808311610fa557829003601f168201915b50505050509050611088565b60068781548110610fdb57fe5b90600052602060002090600702016004018054600181600116156101000203166002900480601f0160208091040260200160405190810160405280929190818152602001828054600181600116156101000203166002900480156110805780601f1061105557610100808354040283529160200191611080565b820191906000526020600020905b81548152906001019060200180831161106357829003601f168201915b505050505090505b7f8a6fde0c0f8077884948daef31fc0b7565d15b1944dbd05612fe54e358bb7a1688886040516110b9929190614c5f565b60405180910390a161126e600b60008a815260200190815260200160002060009054906101000a900473ffffffffffffffffffffffffffffffffffffffff1660068a8154811061110557fe5b90600052602060002090600702016000018054600181600116156101000203166002900480601f0160208091040260200160405190810160405280929190818152602001828054600181600116156101000203166002900480156111aa5780601f1061117f576101008083540402835291602001916111aa565b820191906000526020600020905b81548152906001019060200180831161118d57829003601f168201915b5050505050600160068c815481106111be57fe5b90600052602060002090600702016001018054600181600116156101000203166002900480601f0160208091040260200160405190810160405280929190818152602001828054600181600116156101000203166002900480156112635780601f1061123857610100808354040283529160200191611263565b820191906000526020600020905b81548152906001019060200180831161124657829003601f168201915b505050505085611372565b60016006888154811061127d57fe5b9060005260206000209060070201600301819055506001600689815481106112a157fe5b9060005260206000209060070201600301819055505050505050505050565b6000806001600084815260200190815260200160002060009054906101000a900473ffffffffffffffffffffffffffffffffffffffff169050600073ffffffffffffffffffffffffffffffffffffffff168173ffffffffffffffffffffffffffffffffffffffff161415611369576040517f08c379a0000000000000000000000000000000000000000000000000000000008152600401611360906149a0565b60405180910390fd5b80915050919050565b8473ffffffffffffffffffffffffffffffffffffffff163373ffffffffffffffffffffffffffffffffffffffff16146113e0576040517f08c379a00000000000000000000000000000000000000000000000000000000081526004016113d790614a20565b60405180910390fd5b6113e86135da565b6040518060e001604052808681526020018481526020018581526020016001815260200183815260200160008152602001600081525090506114736001600c60003373ffffffffffffffffffffffffffffffffffffffff1673ffffffffffffffffffffffffffffffffffffffff1681526020019081526020016000205461327790919063ffffffff16565b600c60003373ffffffffffffffffffffffffffffffffffffffff1673ffffffffffffffffffffffffffffffffffffffff16815260200190815260200160002081905550600681908060018154018082558091505060019003906000526020600020906007020160009091909190915060008201518160000190805190602001906114fe929190613617565b50602082015181600101908051906020019061151b929190613617565b506040820151816002015560608201518160030155608082015181600401908051906020019061154c929190613617565b5060a0820151816005015560c082015181600601555050611579600160075461327790919063ffffffff16565b60078190555033600b6000600754815260200190815260200160002060006101000a81548173ffffffffffffffffffffffffffffffffffffffff021916908373ffffffffffffffffffffffffffffffffffffffff1602179055507f2ed0a6a4f66e6a39321eb2bbd734537cacdbc5aec9e3686afdb9a5c1bbdb1b27600754868587600087600080604051611614989796959493929190614b39565b60405180910390a1505050505050565b60008073ffffffffffffffffffffffffffffffffffffffff168273ffffffffffffffffffffffffffffffffffffffff161415611695576040517f08c379a000000000000000000000000000000000000000000000000000000000815260040161168c90614980565b60405180910390fd5b6116dc600360008473ffffffffffffffffffffffffffffffffffffffff1673ffffffffffffffffffffffffffffffffffffffff1681526020019081526020016000206132cc565b9050919050565b6116eb611b4c565b61172a576040517f08c379a000000000000000000000000000000000000000000000000000000000815260040161172190614a00565b60405180910390fd5b600073ffffffffffffffffffffffffffffffffffffffff16600560009054906101000a900473ffffffffffffffffffffffffffffffffffffffff1673ffffffffffffffffffffffffffffffffffffffff167f8be0079c531659141344cd1fd0a4f28419497f9722a3daafe3b4186f6b6457e060405160405180910390a36000600560006101000a81548173ffffffffffffffffffffffffffffffffffffffff021916908373ffffffffffffffffffffffffffffffffffffffff160217905550565b6060600880548060200260200160405190810160405280929190818152602001828054801561186f57602002820191906000526020600020905b8160009054906101000a900473ffffffffffffffffffffffffffffffffffffffff1673ffffffffffffffffffffffffffffffffffffffff1681526020019060010190808311611825575b5050505050905090565b6008818154811061188657fe5b906000526020600020016000915054906101000a900473ffffffffffffffffffffffffffffffffffffffff1681565b81600b600082815260200190815260200160002060009054906101000a900473ffffffffffffffffffffffffffffffffffffffff1673ffffffffffffffffffffffffffffffffffffffff163373ffffffffffffffffffffffffffffffffffffffff1614611957576040517f08c379a000000000000000000000000000000000000000000000000000000000815260040161194e90614aa0565b60405180910390fd5b6202a3006014838154811061196857fe5b90600052602060002090600202016001015410156119bb576040517f08c379a00000000000000000000000000000000000000000000000000000000081526004016119b290614940565b60405180910390fd5b60006119c76002613219565b90506001811415611a7957611a2260016006601487815481106119e657fe5b90600052602060002090600202016000015481548110611a0257fe5b90600052602060002090600702016005015461327790919063ffffffff16565b50611a736001600660148681548110611a3757fe5b90600052602060002090600202016000015481548110611a5357fe5b90600052602060002090600702016006015461327790919063ffffffff16565b50611b1c565b611ac96001600660148681548110611a8d57fe5b90600052602060002090600202016000015481548110611aa957fe5b90600052602060002090600702016005015461327790919063ffffffff16565b50611b1a6001600660148781548110611ade57fe5b90600052602060002090600202016000015481548110611afa57fe5b90600052602060002090600702016006015461327790919063ffffffff16565b505b50505050565b6000600560009054906101000a900473ffffffffffffffffffffffffffffffffffffffff16905090565b6000600560009054906101000a900473ffffffffffffffffffffffffffffffffffffffff1673ffffffffffffffffffffffffffffffffffffffff16611b8f612e3e565b73ffffffffffffffffffffffffffffffffffffffff1614905090565b60068181548110611bb857fe5b9060005260206000209060070201600091509050806000018054600181600116156101000203166002900480601f016020809104026020016040519081016040528092919081815260200182805460018160011615610100020316600290048015611c645780601f10611c3957610100808354040283529160200191611c64565b820191906000526020600020905b815481529060010190602001808311611c4757829003601f168201915b505050505090806001018054600181600116156101000203166002900480601f016020809104026020016040519081016040528092919081815260200182805460018160011615610100020316600290048015611d025780601f10611cd757610100808354040283529160200191611d02565b820191906000526020600020905b815481529060010190602001808311611ce557829003601f168201915b505050505090806002015490806003015490806004018054600181600116156101000203166002900480601f016020809104026020016040519081016040528092919081815260200182805460018160011615610100020316600290048015611dac5780601f10611d8157610100808354040283529160200191611dac565b820191906000526020600020905b815481529060010190602001808311611d8f57829003601f168201915b5050505050908060050154908060060154905087565b600e8181548110611dcf57fe5b9060005260206000209060090201600091509050806000016040518060e0016040529081600082018054600181600116156101000203166002900480601f016020809104026020016040519081016040528092919081815260200182805460018160011615610100020316600290048015611e8b5780601f10611e6057610100808354040283529160200191611e8b565b820191906000526020600020905b815481529060010190602001808311611e6e57829003601f168201915b50505050508152602001600182018054600181600116156101000203166002900480601f016020809104026020016040519081016040528092919081815260200182805460018160011615610100020316600290048015611f2d5780601f10611f0257610100808354040283529160200191611f2d565b820191906000526020600020905b815481529060010190602001808311611f1057829003601f168201915b505050505081526020016002820154815260200160038201548152602001600482018054600181600116156101000203166002900480601f016020809104026020016040519081016040528092919081815260200182805460018160011615610100020316600290048015611fe35780601f10611fb857610100808354040283529160200191611fe3565b820191906000526020600020905b815481529060010190602001808311611fc657829003601f168201915b5050505050815260200160058201548152602001600682015481525050908060070154908060080160009054906101000a900460ff16905083565b80600b600082815260200190815260200160002060009054906101000a900473ffffffffffffffffffffffffffffffffffffffff1673ffffffffffffffffffffffffffffffffffffffff163373ffffffffffffffffffffffffffffffffffffffff16146120c0576040517f08c379a00000000000000000000000000000000000000000000000000000000081526004016120b790614aa0565b60405180910390fd5b6120c8613697565b6040518060600160405280600685815481106120e057fe5b90600052602060002090600702016040518060e0016040529081600082018054600181600116156101000203166002900480601f0160208091040260200160405190810160405280929190818152602001828054600181600116156101000203166002900480156121925780601f1061216757610100808354040283529160200191612192565b820191906000526020600020905b81548152906001019060200180831161217557829003601f168201915b50505050508152602001600182018054600181600116156101000203166002900480601f0160208091040260200160405190810160405280929190818152602001828054600181600116156101000203166002900480156122345780601f1061220957610100808354040283529160200191612234565b820191906000526020600020905b81548152906001019060200180831161221757829003601f168201915b505050505081526020016002820154815260200160038201548152602001600482018054600181600116156101000203166002900480601f0160208091040260200160405190810160405280929190818152602001828054600181600116156101000203166002900480156122ea5780601f106122bf576101008083540402835291602001916122ea565b820191906000526020600020905b8154815290600101906020018083116122cd57829003601f168201915b5050505050815260200160058201548152602001600682015481525050815260200160018152602001600015158152509050600e819080600181540180825580915050600190039060005260206000209060090201600090919091909150600082015181600001600082015181600001908051906020019061236d929190613617565b50602082015181600101908051906020019061238a929190613617565b50604082015181600201556060820151816003015560808201518160040190805190602001906123bb929190613617565b5060a0820151816005015560c0820151816006015550506020820151816007015560408201518160080160006101000a81548160ff02191690831515021790555050506000600e8054905090508360136000838152602001908152602001600020819055507f35fd122dfbf8007a96d6033dd1956c772bfc1009f4e22dba88c751beb2c94ebd600b600086815260200190815260200160002060009054906101000a900473ffffffffffffffffffffffffffffffffffffffff16856006878154811061248357fe5b9060005260206000209060070201600001600688815481106124a157fe5b9060005260206000209060070201600101600689815481106124bf57fe5b90600052602060002090600702016002015460068a815481106124de57fe5b90600052602060002090600702016003015460068b815481106124fd57fe5b906000526020600020906007020160040160068c8154811061251b57fe5b90600052602060002090600702016005015460068d8154811061253a57fe5b90600052602060002090600702016006015460405161256199989796959493929190614699565b60405180910390a150505050565b612577612e3e565b73ffffffffffffffffffffffffffffffffffffffff168273ffffffffffffffffffffffffffffffffffffffff1614156125e5576040517f08c379a00000000000000000000000000000000000000000000000000000000081526004016125dc906148e0565b60405180910390fd5b80600460006125f2612e3e565b73ffffffffffffffffffffffffffffffffffffffff1673ffffffffffffffffffffffffffffffffffffffff16815260200190815260200160002060008473ffffffffffffffffffffffffffffffffffffffff1673ffffffffffffffffffffffffffffffffffffffff16815260200190815260200160002060006101000a81548160ff0219169083151502179055508173ffffffffffffffffffffffffffffffffffffffff1661269f612e3e565b73ffffffffffffffffffffffffffffffffffffffff167f17307eab39ab6107e8899845ad3d59bd9653f200f220920489ca2b5937696c31836040516126e4919061475d565b60405180910390a35050565b6127016126fb612e3e565b83612e46565b612740576040517f08c379a000000000000000000000000000000000000000000000000000000000815260040161273790614ac0565b60405180910390fd5b61274c848484846132da565b50505050565b6009818154811061275f57fe5b906000526020600020016000915090508054600181600116156101000203166002900480601f0160208091040260200160405190810160405280929190818152602001828054600181600116156101000203166002900480156128035780601f106127d857610100808354040283529160200191612803565b820191906000526020600020905b8154815290600101906020018083116127e657829003601f168201915b505050505081565b80600f818154811061281957fe5b906000526020600020906003020160020160009054906101000a900460ff16612877576040517f08c379a000000000000000000000000000000000000000000000000000000000815260040161286e90614900565b60405180910390fd5b6128c86012600085815260200190815260200160002060009054906101000a900473ffffffffffffffffffffffffffffffffffffffff16336013600087815260200190815260200160002054612f24565b7f336caae23f7c926c563a756c493d2e4186fe8ea365ea75f8813cb36882a2c0886012600085815260200190815260200160002060009054906101000a900473ffffffffffffffffffffffffffffffffffffffff16336013600087815260200190815260200160002054600f868154811061293f57fe5b9060005260206000209060030201600101546040516129619493929190614654565b60405180910390a1505050565b6000600460008473ffffffffffffffffffffffffffffffffffffffff1673ffffffffffffffffffffffffffffffffffffffff16815260200190815260200160002060008373ffffffffffffffffffffffffffffffffffffffff1673ffffffffffffffffffffffffffffffffffffffff16815260200190815260200160002060009054906101000a900460ff16905092915050565b6000600b600083815260200190815260200160002060009054906101000a900473ffffffffffffffffffffffffffffffffffffffff169050612a8d6001600c60008473ffffffffffffffffffffffffffffffffffffffff1673ffffffffffffffffffffffffffffffffffffffff168152602001908152602001600020546132eb90919063ffffffff16565b600c60008373ffffffffffffffffffffffffffffffffffffffff1673ffffffffffffffffffffffffffffffffffffffff1681526020019081526020016000208190555060068281548110612add57fe5b906000526020600020906007020160008082016000612afc91906136c0565b600182016000612b0c91906136c0565b60028201600090556003820160009055600482016000612b2c91906136c0565b6005820160009055600682016000905550507ff341316c37c0df80453d7a29598468138ffcfe7c833ec00e80ccc5772369905b8260068481548110612b6d57fe5b906000526020600020906007020160000160068581548110612b8b57fe5b906000526020600020906007020160010160068681548110612ba957fe5b90600052602060002090600702016002015460068781548110612bc857fe5b90600052602060002090600702016003015460068881548110612be757fe5b906000526020600020906007020160040160068981548110612c0557fe5b90600052602060002090600702016005015460068a81548110612c2457fe5b906000526020600020906007020160060154604051612c4a989796959493929190614bcc565b60405180910390a15050565b803373ffffffffffffffffffffffffffffffffffffffff166011600083815260200190815260200160002060009054906101000a900473ffffffffffffffffffffffffffffffffffffffff1673ffffffffffffffffffffffffffffffffffffffff1614612cf8576040517f08c379a0000000000000000000000000000000000000000000000000000000008152600401612cef90614880565b60405180910390fd5b82600f8381548110612d0657fe5b9060005260206000209060030201600101819055507fc33aa4393fdbbf1d92280c505235f4a5f7ad1524676d96bb2376428fe731d43433600f8481548110612d4a57fe5b90600052602060002090600302016000015485604051612d6c9392919061461d565b60405180910390a1505050565b612d81611b4c565b612dc0576040517f08c379a0000000000000000000000000000000000000000000000000000000008152600401612db790614a00565b60405180910390fd5b612dc981613335565b50565b6000806001600084815260200190815260200160002060009054906101000a900473ffffffffffffffffffffffffffffffffffffffff169050600073ffffffffffffffffffffffffffffffffffffffff168173ffffffffffffffffffffffffffffffffffffffff161415915050919050565b600033905090565b6000612e5182612dcc565b612e90576040517f08c379a0000000000000000000000000000000000000000000000000000000008152600401612e8790614920565b60405180910390fd5b6000612e9b836112c0565b90508073ffffffffffffffffffffffffffffffffffffffff168473ffffffffffffffffffffffffffffffffffffffff161480612f0a57508373ffffffffffffffffffffffffffffffffffffffff16612ef284610758565b73ffffffffffffffffffffffffffffffffffffffff16145b80612f1b5750612f1a818561296e565b5b91505092915050565b8273ffffffffffffffffffffffffffffffffffffffff16612f44826112c0565b73ffffffffffffffffffffffffffffffffffffffff1614612f9a576040517f08c379a0000000000000000000000000000000000000000000000000000000008152600401612f9190614a40565b60405180910390fd5b600073ffffffffffffffffffffffffffffffffffffffff168273ffffffffffffffffffffffffffffffffffffffff16141561300a576040517f08c379a0000000000000000000000000000000000000000000000000000000008152600401613001906148c0565b60405180910390fd5b61301381613465565b61305a600360008573ffffffffffffffffffffffffffffffffffffffff1673ffffffffffffffffffffffffffffffffffffffff168152602001908152602001600020613523565b6130a1600360008473ffffffffffffffffffffffffffffffffffffffff1673ffffffffffffffffffffffffffffffffffffffff168152602001908152602001600020613546565b816001600083815260200190815260200160002060006101000a81548173ffffffffffffffffffffffffffffffffffffffff021916908373ffffffffffffffffffffffffffffffffffffffff160217905550808273ffffffffffffffffffffffffffffffffffffffff168473ffffffffffffffffffffffffffffffffffffffff167fddf252ad1be2c89b69c2b068fc378daa952ba7f163c4a11628f55a4df523b3ef60405160405180910390a4505050565b6000806001905060008090505b600f8054905081101561320f573373ffffffffffffffffffffffffffffffffffffffff166011600083815260200190815260200160002060009054906101000a900473ffffffffffffffffffffffffffffffffffffffff1673ffffffffffffffffffffffffffffffffffffffff161480156131f8575083600f82815481106131e457fe5b906000526020600020906003020160000154145b1561320257600091505b8080600101915050613160565b5080915050919050565b60006132316001600a5461327790919063ffffffff16565b600a81905550814233600a5460405160200161324f939291906145c5565b6040516020818303038152906040528051906020012060001c8161326f57fe5b069050919050565b6000808284019050838110156132c2576040517f08c379a00000000000000000000000000000000000000000000000000000000081526004016132b9906148a0565b60405180910390fd5b8091505092915050565b600081600001549050919050565b6132e5848484612f24565b50505050565b600061332d83836040518060400160405280601e81526020017f536166654d6174683a207375627472616374696f6e206f766572666c6f77000081525061355c565b905092915050565b600073ffffffffffffffffffffffffffffffffffffffff168173ffffffffffffffffffffffffffffffffffffffff1614156133a5576040517f08c379a000000000000000000000000000000000000000000000000000000000815260040161339c90614860565b60405180910390fd5b8073ffffffffffffffffffffffffffffffffffffffff16600560009054906101000a900473ffffffffffffffffffffffffffffffffffffffff1673ffffffffffffffffffffffffffffffffffffffff167f8be0079c531659141344cd1fd0a4f28419497f9722a3daafe3b4186f6b6457e060405160405180910390a380600560006101000a81548173ffffffffffffffffffffffffffffffffffffffff021916908373ffffffffffffffffffffffffffffffffffffffff16021790555050565b600073ffffffffffffffffffffffffffffffffffffffff166002600083815260200190815260200160002060009054906101000a900473ffffffffffffffffffffffffffffffffffffffff1673ffffffffffffffffffffffffffffffffffffffff16146135205760006002600083815260200190815260200160002060006101000a81548173ffffffffffffffffffffffffffffffffffffffff021916908373ffffffffffffffffffffffffffffffffffffffff1602179055505b50565b61353b600182600001546132eb90919063ffffffff16565b816000018190555050565b6001816000016000828254019250508190555050565b60008383111582906135a4576040517f08c379a000000000000000000000000000000000000000000000000000000000815260040161359b919061479a565b60405180910390fd5b5060008385039050809150509392505050565b604051806060016040528060008152602001600081526020016000151581525090565b6040518060e00160405280606081526020016060815260200160008152602001600081526020016060815260200160008152602001600081525090565b828054600181600116156101000203166002900490600052602060002090601f016020900481019282601f1061365857805160ff1916838001178555613686565b82800160010185558215613686579182015b8281111561368557825182559160200191906001019061366a565b5b5090506136939190613708565b5090565b60405180606001604052806136aa61372d565b8152602001600081526020016000151581525090565b50805460018160011615610100020316600290046000825580601f106136e65750613705565b601f0160209004906000526020600020908101906137049190613708565b5b50565b61372a91905b8082111561372657600081600090555060010161370e565b5090565b90565b6040518060e00160405280606081526020016060815260200160008152602001600081526020016060815260200160008152602001600081525090565b60008135905061377981614f26565b92915050565b60008135905061378e81614f3d565b92915050565b6000813590506137a381614f54565b92915050565b600082601f8301126137ba57600080fd5b81356137cd6137c882614cec565b614cbf565b915080825260208301602083018583830111156137e957600080fd5b6137f4838284614e98565b50505092915050565b600082601f83011261380e57600080fd5b813561382161381c82614d18565b614cbf565b9150808252602083016020830185838301111561383d57600080fd5b613848838284614e98565b50505092915050565b60008135905061386081614f6b565b92915050565b60006020828403121561387857600080fd5b60006138868482850161376a565b91505092915050565b600080604083850312156138a257600080fd5b60006138b08582860161376a565b92505060206138c18582860161376a565b9150509250929050565b6000806000606084860312156138e057600080fd5b60006138ee8682870161376a565b93505060206138ff8682870161376a565b925050604061391086828701613851565b9150509250925092565b6000806000806080858703121561393057600080fd5b600061393e8782880161376a565b945050602061394f8782880161376a565b935050604061396087828801613851565b925050606085013567ffffffffffffffff81111561397d57600080fd5b613989878288016137a9565b91505092959194509250565b600080604083850312156139a857600080fd5b60006139b68582860161376a565b92505060206139c78582860161377f565b9150509250929050565b600080600080600060a086880312156139e957600080fd5b60006139f78882890161376a565b955050602086013567ffffffffffffffff811115613a1457600080fd5b613a20888289016137fd565b9450506040613a3188828901613851565b935050606086013567ffffffffffffffff811115613a4e57600080fd5b613a5a888289016137fd565b925050608086013567ffffffffffffffff811115613a7757600080fd5b613a83888289016137fd565b9150509295509295909350565b60008060408385031215613aa357600080fd5b6000613ab18582860161376a565b9250506020613ac285828601613851565b9150509250929050565b600060208284031215613ade57600080fd5b6000613aec84828501613794565b91505092915050565b600060208284031215613b0757600080fd5b6000613b1584828501613851565b91505092915050565b60008060408385031215613b3157600080fd5b6000613b3f85828601613851565b9250506020613b5085828601613851565b9150509250929050565b6000613b668383613b98565b60208301905092915050565b613b7b81614e50565b82525050565b613b92613b8d82614ddc565b614eda565b82525050565b613ba181614dca565b82525050565b613bb081614dca565b82525050565b6000613bc182614d69565b613bcb8185614d97565b9350613bd683614d44565b8060005b83811015613c07578151613bee8882613b5a565b9750613bf983614d8a565b925050600181019050613bda565b5085935050505092915050565b613c1d81614dee565b82525050565b613c2c81614e62565b82525050565b6000613c3d82614d7f565b613c478185614db9565b9350613c57818560208601614ea7565b613c6081614f08565b840191505092915050565b6000613c7682614d74565b613c808185614da8565b9350613c90818560208601614ea7565b613c9981614f08565b840191505092915050565b6000613caf82614d74565b613cb98185614db9565b9350613cc9818560208601614ea7565b613cd281614f08565b840191505092915050565b600081546001811660008114613cfa5760018114613d2057613d64565b607f6002830416613d0b8187614db9565b955060ff198316865260208601935050613d64565b60028204613d2e8187614db9565b9550613d3985614d54565b60005b82811015613d5b57815481890152600182019150602081019050613d3c565b80880195505050505b505092915050565b6000613d79602f83614db9565b91507f416e696d616c20616c726561647920636f75706c656420696e2074686520707260008301527f6576696f75732036206d6f6e74687300000000000000000000000000000000006020830152604082019050919050565b6000613ddf602683614db9565b91507f4f776e61626c653a206e6577206f776e657220697320746865207a65726f206160008301527f64647265737300000000000000000000000000000000000000000000000000006020830152604082019050919050565b6000613e45603883614db9565b91507f20596f752063616e2774206368616e676520746869732061756374696f6e2c2060008301527f6974206973206e6f7420796f75722061756374696f6e202100000000000000006020830152604082019050919050565b6000613eab601b83614db9565b91507f536166654d6174683a206164646974696f6e206f766572666c6f7700000000006000830152602082019050919050565b6000613eeb602483614db9565b91507f4552433732313a207472616e7366657220746f20746865207a65726f2061646460008301527f72657373000000000000000000000000000000000000000000000000000000006020830152604082019050919050565b6000613f51601983614db9565b91507f4552433732313a20617070726f766520746f2063616c6c6572000000000000006000830152602082019050919050565b6000613f91602c83614db9565b91507f41756374696f6e206e6f742076616c6964617465642c206974206973206e6f7460008301527f20796f757220416e696d616c00000000000000000000000000000000000000006020830152604082019050919050565b6000613ff7602c83614db9565b91507f4552433732313a206f70657261746f7220717565727920666f72206e6f6e657860008301527f697374656e7420746f6b656e00000000000000000000000000000000000000006020830152604082019050919050565b600061405d602983614db9565b91507f54686520616e696d616c20796f752077616e7420746f2066696768742069732060008301527f6e6f7420726561647900000000000000000000000000000000000000000000006020830152604082019050919050565b60006140c3603883614db9565b91507f4552433732313a20617070726f76652063616c6c6572206973206e6f74206f7760008301527f6e6572206e6f7220617070726f76656420666f7220616c6c00000000000000006020830152604082019050919050565b6000614129602a83614db9565b91507f4552433732313a2062616c616e636520717565727920666f7220746865207a6560008301527f726f2061646472657373000000000000000000000000000000000000000000006020830152604082019050919050565b600061418f602983614db9565b91507f4552433732313a206f776e657220717565727920666f72206e6f6e657869737460008301527f656e7420746f6b656e00000000000000000000000000000000000000000000006020830152604082019050919050565b60006141f5601a83614db9565b91507f416e696d616c20746f6f20796f756e6720746f20636f75706c650000000000006000830152602082019050919050565b6000614235602c83614db9565b91507f4552433732313a20617070726f76656420717565727920666f72206e6f6e657860008301527f697374656e7420746f6b656e00000000000000000000000000000000000000006020830152604082019050919050565b600061429b602083614db9565b91507f4f776e61626c653a2063616c6c6572206973206e6f7420746865206f776e65726000830152602082019050919050565b60006142db602183614db9565b91507f596f7520617265206e6f74206465636c6172696e6720796f757220616e696d6160008301527f6c000000000000000000000000000000000000000000000000000000000000006020830152604082019050919050565b6000614341602983614db9565b91507f4552433732313a207472616e73666572206f6620746f6b656e2074686174206960008301527f73206e6f74206f776e00000000000000000000000000000000000000000000006020830152604082019050919050565b60006143a7602183614db9565b91507f4552433732313a20617070726f76616c20746f2063757272656e74206f776e6560008301527f72000000000000000000000000000000000000000000000000000000000000006020830152604082019050919050565b600061440d602683614db9565b91507f596f7520616c7265616479206861766520616e2061756374696f6e2c2075706460008301527f61746520697400000000000000000000000000000000000000000000000000006020830152604082019050919050565b6000614473600083614db9565b9150600082019050919050565b600061448d603183614db9565b91507f4552433732313a207472616e736665722063616c6c6572206973206e6f74206f60008301527f776e6572206e6f7220617070726f7665640000000000000000000000000000006020830152604082019050919050565b600060e08301600083015184820360008601526145038282613c6b565b9150506020830151848203602086015261451d8282613c6b565b91505060408301516145326040860182614590565b5060608301516145456060860182614590565b506080830151848203608086015261455d8282613c6b565b91505060a083015161457260a0860182614590565b5060c083015161458560c0860182614590565b508091505092915050565b61459981614e46565b82525050565b6145a881614e46565b82525050565b6145bf6145ba82614e46565b614efe565b82525050565b60006145d182866145ae565b6020820191506145e18285613b81565b6014820191506145f182846145ae565b602082019150819050949350505050565b60006020820190506146176000830184613ba7565b92915050565b60006060820190506146326000830186613b72565b61463f602083018561459f565b61464c604083018461459f565b949350505050565b60006080820190506146696000830187613ba7565b6146766020830186613b72565b614683604083018561459f565b614690606083018461459f565b95945050505050565b6000610120820190506146af600083018c613ba7565b6146bc602083018b61459f565b81810360408301526146ce818a613cdd565b905081810360608301526146e28189613cdd565b90506146f1608083018861459f565b6146fe60a083018761459f565b81810360c08301526147108186613cdd565b905061471f60e083018561459f565b61472d61010083018461459f565b9a9950505050505050505050565b600060208201905081810360008301526147558184613bb6565b905092915050565b60006020820190506147726000830184613c14565b92915050565b600060208201905081810360008301526147928184613ca4565b905092915050565b600060208201905081810360008301526147b48184613c32565b905092915050565b600060e08201905081810360008301526147d6818a613ca4565b905081810360208301526147ea8189613ca4565b90506147f9604083018861459f565b614806606083018761459f565b81810360808301526148188186613ca4565b905061482760a083018561459f565b61483460c083018461459f565b98975050505050505050565b6000602082019050818103600083015261485981613d6c565b9050919050565b6000602082019050818103600083015261487981613dd2565b9050919050565b6000602082019050818103600083015261489981613e38565b9050919050565b600060208201905081810360008301526148b981613e9e565b9050919050565b600060208201905081810360008301526148d981613ede565b9050919050565b600060208201905081810360008301526148f981613f44565b9050919050565b6000602082019050818103600083015261491981613f84565b9050919050565b6000602082019050818103600083015261493981613fea565b9050919050565b6000602082019050818103600083015261495981614050565b9050919050565b60006020820190508181036000830152614979816140b6565b9050919050565b600060208201905081810360008301526149998161411c565b9050919050565b600060208201905081810360008301526149b981614182565b9050919050565b600060208201905081810360008301526149d9816141e8565b9050919050565b600060208201905081810360008301526149f981614228565b9050919050565b60006020820190508181036000830152614a198161428e565b9050919050565b60006020820190508181036000830152614a39816142ce565b9050919050565b60006020820190508181036000830152614a5981614334565b9050919050565b60006020820190508181036000830152614a798161439a565b9050919050565b60006020820190508181036000830152614a9981614400565b9050919050565b60006020820190508181036000830152614ab981614466565b9050919050565b60006020820190508181036000830152614ad981614480565b9050919050565b60006060820190508181036000830152614afa81866144e6565b9050614b09602083018561459f565b614b166040830184613c14565b949350505050565b6000602082019050614b33600083018461459f565b92915050565b600061010082019050614b4f600083018b61459f565b8181036020830152614b61818a613c32565b90508181036040830152614b758189613c32565b9050614b84606083018861459f565b614b916080830187613c23565b81810360a0830152614ba38186613c32565b9050614bb260c0830185613c23565b614bbf60e0830184613c23565b9998505050505050505050565b600061010082019050614be2600083018b61459f565b8181036020830152614bf4818a613cdd565b90508181036040830152614c088189613cdd565b9050614c17606083018861459f565b614c24608083018761459f565b81810360a0830152614c368186613cdd565b9050614c4560c083018561459f565b614c5260e083018461459f565b9998505050505050505050565b6000604082019050614c74600083018561459f565b614c81602083018461459f565b9392505050565b6000606082019050614c9d600083018661459f565b614caa602083018561459f565b614cb76040830184613c14565b949350505050565b6000604051905081810181811067ffffffffffffffff82111715614ce257600080fd5b8060405250919050565b600067ffffffffffffffff821115614d0357600080fd5b601f19601f8301169050602081019050919050565b600067ffffffffffffffff821115614d2f57600080fd5b601f19601f8301169050602081019050919050565b6000819050602082019050919050565b60008190508160005260206000209050919050565b600081519050919050565b600081519050919050565b600081519050919050565b6000602082019050919050565b600082825260208201905092915050565b600082825260208201905092915050565b600082825260208201905092915050565b6000614dd582614e26565b9050919050565b6000614de782614e26565b9050919050565b60008115159050919050565b60007fffffffff0000000000000000000000000000000000000000000000000000000082169050919050565b600073ffffffffffffffffffffffffffffffffffffffff82169050919050565b6000819050919050565b6000614e5b82614e74565b9050919050565b6000614e6d82614e46565b9050919050565b6000614e7f82614e86565b9050919050565b6000614e9182614e26565b9050919050565b82818337600083830152505050565b60005b83811015614ec5578082015181840152602081019050614eaa565b83811115614ed4576000848401525b50505050565b6000614ee582614eec565b9050919050565b6000614ef782614f19565b9050919050565b6000819050919050565b6000601f19601f8301169050919050565b60008160601b9050919050565b614f2f81614dca565b8114614f3a57600080fd5b50565b614f4681614dee565b8114614f5157600080fd5b50565b614f5d81614dfa565b8114614f6857600080fd5b50565b614f7481614e46565b8114614f7f57600080fd5b5056fea26469706673582212202889bc85c9d50fc0de627d59111348df2f2c8530cbc5c73f1526e1dba46123b864736f6c63430006000033",
  "source": "pragma solidity >= 0.5.0;\npragma experimental ABIEncoderV2;\n\nimport \"./Breeding.sol\";\nimport \"./BidAuction.sol\";\n\ncontract Fighting is Breeding, BidAuction{\n\nstruct FightAnimal{\n    uint animalId;\n    uint readyToFight;\n}\n\nFightAnimal[] public fightAnimals;\n\n    function Fight(uint _fightAnimalId1, uint _fightAnimalId2) public OwnerOf(_fightAnimalId1) {\n        require(fightAnimals[_fightAnimalId2].readyToFight >= 2 days, \"The animal you want to fight is not ready\");\n        uint rand = randMod(2);\n        if(rand == 1){\n            animals[fightAnimals[_fightAnimalId1].animalId].winCount.add(1);\n            animals[fightAnimals[_fightAnimalId2].animalId].lossCount.add(1);\n        }\n        else {\n            animals[fightAnimals[_fightAnimalId2].animalId].winCount.add(1);\n            animals[fightAnimals[_fightAnimalId1].animalId].lossCount.add(1);\n        }\n    }\n}\n",
  "sourcePath": "C:\\Users\\torta\\OneDrive\\Documents\\ESILV\\Semestre 2\\Blockchain Programming\\OPEN ZEPPELIN\\node_modules\\@openzeppelin\\TD6-ERC721\\contracts\\Fighting.sol",
  "compiler": {
    "name": "solc",
    "version": "0.6.0+commit.26b70077.Emscripten.clang"
  },
  "schemaVersion": "3.0.23",
  "updatedAt": "2020-03-11T14:16:39.950Z",
  "devdoc": {
    "methods": {
      "approve(address,uint256)": {
        "details": "Approves another address to transfer the given token ID The zero address indicates there is no approved address. There can only be one approved address per token at a given time. Can only be called by the token owner or an approved operator.",
        "params": {
          "to": "address to be approved for the given token ID",
          "tokenId": "uint256 ID of the token to be approved"
        }
      },
      "balanceOf(address)": {
        "details": "Gets the balance of the specified address.",
        "params": {
          "owner": "address to query the balance of"
        },
        "returns": {
          "_0": "uint256 representing the amount owned by the passed address"
        }
      },
      "getApproved(uint256)": {
        "details": "Gets the approved address for a token ID, or zero if no address set Reverts if the token ID does not exist.",
        "params": {
          "tokenId": "uint256 ID of the token to query the approval of"
        },
        "returns": {
          "_0": "address currently approved for the given token ID"
        }
      },
      "isApprovedForAll(address,address)": {
        "details": "Tells whether an operator is approved by a given owner.",
        "params": {
          "operator": "operator address which you want to query the approval of",
          "owner": "owner address which you want to query the approval of"
        },
        "returns": {
          "_0": "bool whether the given operator is approved by the given owner"
        }
      },
      "isOwner()": {
        "details": "Returns true if the caller is the current owner."
      },
      "owner()": {
        "details": "Returns the address of the current owner."
      },
      "ownerOf(uint256)": {
        "details": "Gets the owner of the specified token ID.",
        "params": {
          "tokenId": "uint256 ID of the token to query the owner of"
        },
        "returns": {
          "_0": "address currently marked as the owner of the given token ID"
        }
      },
      "renounceOwnership()": {
        "details": "Leaves the contract without owner. It will not be possible to call `onlyOwner` functions anymore. Can only be called by the current owner.     * NOTE: Renouncing ownership will leave the contract without an owner, thereby removing any functionality that is only available to the owner."
      },
      "safeTransferFrom(address,address,uint256)": {
        "details": "Safely transfers the ownership of a given token ID to another address If the target address is a contract, it must implement {IERC721Receiver-onERC721Received}, which is called upon a safe transfer, and return the magic value `bytes4(keccak256(\"onERC721Received(address,address,uint256,bytes)\"))`; otherwise, the transfer is reverted. Requires the msg.sender to be the owner, approved, or operator",
        "params": {
          "from": "current owner of the token",
          "to": "address to receive the ownership of the given token ID",
          "tokenId": "uint256 ID of the token to be transferred"
        }
      },
      "safeTransferFrom(address,address,uint256,bytes)": {
        "details": "Safely transfers the ownership of a given token ID to another address If the target address is a contract, it must implement {IERC721Receiver-onERC721Received}, which is called upon a safe transfer, and return the magic value `bytes4(keccak256(\"onERC721Received(address,address,uint256,bytes)\"))`; otherwise, the transfer is reverted. Requires the _msgSender() to be the owner, approved, or operator",
        "params": {
          "_data": "bytes data to send along with a safe transfer check",
          "from": "current owner of the token",
          "to": "address to receive the ownership of the given token ID",
          "tokenId": "uint256 ID of the token to be transferred"
        }
      },
      "setApprovalForAll(address,bool)": {
        "details": "Sets or unsets the approval of a given operator An operator is allowed to transfer all tokens of the sender on their behalf.",
        "params": {
          "approved": "representing the status of the approval to be set",
          "to": "operator address to set the approval"
        }
      },
      "supportsInterface(bytes4)": {
        "details": "See {IERC165-supportsInterface}.     * Time complexity O(1), guaranteed to always use less than 30 000 gas."
      },
      "transferFrom(address,address,uint256)": {
        "details": "Transfers the ownership of a given token ID to another address. Usage of this method is discouraged, use {safeTransferFrom} whenever possible. Requires the msg.sender to be the owner, approved, or operator.",
        "params": {
          "from": "current owner of the token",
          "to": "address to receive the ownership of the given token ID",
          "tokenId": "uint256 ID of the token to be transferred"
        }
      },
      "transferOwnership(address)": {
        "details": "Transfers ownership of the contract to a new account (`newOwner`). Can only be called by the current owner."
      }
    }
  },
  "userdoc": {
    "methods": {}
  }
}